:040000000CEF00F011
:10000800E9CF41F0EACF42F0F3CF43F0F2EF25F029
:1000180001EE30F05E0EF66E000EF76E10EE1AF07E
:1000280026EC00F000EE00F0210EEE6AE806FDE195
:1000380000EE60F0D00EEE6AE806FDE1000EF86E04
:10004800C1EF14F00900F5CFEEFFE550E150FAE1F9
:10005800E250F8E112003B013B013B013B013B014F
:100068003B013B013B013B013B013B01F900F9002E
:100078003BEF06F07C6B956B966B8F6BF86BF96BAF
:100088007A4B7B2B5F0E00017A5D010E7B591CE3D6
:10009800010E1E6E7A6B7B6BB26B1A6ACAEC36F075
:1000A8000001E86BE96B936B010E0101266F70ECA0
:1000B80034F07FC08DF080C08EF00001B66BB76B56
:1000C800B86BB96B92991200FA0E7A5D000E7B59E3
:1000D80002E335EF31F0330E7A5D000E7B5921E3F0
:1000E800340E7A5D000E7B5910E21E0E0101236169
:1000F80007D000017A6B7B6B8B940101236B120094
:10010800ACEC1CF08B848B868A820FEC37F06DEC9C
:1001180031F03F0EF4EC0BF002E389961200898669
:10012800120081503C0B380A03E10101232B120015
:100138000101236B1200D76B01010E6B0F6B8A92C2
:1001480000018F6BB66BB76BB86BB96B92997C512A
:10015800D8A412009305D8B412001A50380A03E143
:1001680088C01EF012001A50340AD8A41200040ED7
:100178001E6E1FC010F020C011F0040C1FC010F03C
:1001880020C011F0956B966B8F6B020E886F9305EC
:10019800D8B412001A50380A03E1050E1E6E050C79
:1001A8001A50B40AD8A41200040E1E6E1FC010F014
:1001B80020C011F01D50D8A415EC32F012008F6742
:1001C8002AD01FC010F020C011F07A4B7B2B330EC1
:1001D800F4EC0BF001E2B2D07A6B7B6B954B962B6B
:1001E8003C0E98EC0BF02BEC36F093EC0BF001E2A4
:1001F800A5D0D76B01010E6B0F6B0001D76B9299DD
:10020800C56BC66B010E976FAD6BAE6B956B966B3E
:10021800010E8F6F93D08F0501E090D01BC010F0B6
:100228001CC011F07F518D5D80518E591DE28D519A
:100238007F5D266E8E518059276E76EC35F026C08C
:1002480026F027C027F028C028F089C029F08AC0E6
:100258002AF08BC02BF06CEC28F026C0A8F027C041
:10026800A9F028C0AAF003D0A86BA96BAA6BA8C0F4
:1002780026F0A9C027F0AAC028F0C9EC2EF026C0A5
:100288007DF027C07EF097052DE1AD4BAE2B0D0E0E
:100298000001AD5D000EAE5920E38A924B0EAD5DB4
:1002A800000EAE591BE310C023F011C024F083ECFC
:1002B8002EF010C021F011C022F0A1512126A25128
:1002C80022227D51215C7E51225804E3020E976F51
:1002D8007A6B7B6BAD6BAE6B01D08A820001D76BFA
:1002E80092992CD0AD4BAE2BF40E0001AD5D010EF2
:1002F800AE5924E3976B7A4B7B2B330E7A5D000E55
:100308007B5918E37A6B7B6B954B962B3C0E73EC01
:100318000BF02BEC36F093EC0BF00CE3D76B0101F0
:100328000E6B0F6B0001956B966B8F6B1FC010F0F7
:1003380020C011F0F30EAD6F010EAE6F030E886F83
:100348009305D8B412001A50380A08E18F6B7A6BFB
:100358007B6B956B966B050E1E6E050C1A50B40AD6
:10036800D8A41200040E1E6E1FC010F020C011F099
:100378001D50D8A415EC32F012008F671BD01FC097
:1003880010F020C011F07A4B7B2B330EF4EC0BF0FD
:1003980030E37A6B7B6B954B962B3C0E98EC0BF00D
:1003A8002BEC36F093EC0BF024E3956B966B010E77
:1003B8008F6F1FD08F051DE11BC010F01CC011F0FE
:1003C8007A4B7B2B330EF4EC0BF013E37A6B7B6BDD
:1003D800954B962B3C0E73EC0BF02BEC36F093EC14
:1003E8000BF007E3956B966B8F6B1FC010F020C066
:1003F80011F00A0E886F9305D8B4120001012A5132
:10040800040AD8B412001A50380A03E1050E1E6E09
:10041800050C1A50B40AD8A41200040E1E6E1FC090
:1004280010F020C011F0040CD76B01010E6B0F6B9C
:100438008B9E00018F6B9305D8B412001A50380AAE
:1004480003E188C01EF014D01A50B40A0BE1040E60
:100458001E6E1FC010F020C011F01D5009E015ECF1
:1004680032F006D01A50040A03E1FF0E01011F1FE3
:100478000001B66BB76BB86BB96B9299976B1200AA
:10048800B66BB76BB86BB96B929981675BD0D06765
:100498001AD0020EA06F1A50340A05E1010ED06F6F
:1004A800030EA06F030C1A502C0A05E1010ED06F41
:1004B800030EA06F030C1A50380AD8A41200010EBC
:1004C800816F70EF34F0D0051DE1030EA06F1A5054
:1004D800340A04E1D06B020EA06F020C1A502C0AE9
:1004E80004E1D06B020EA06F020C1A50380AD8A48F
:1004F8001200010E816F70EC34F01D50D8A4DDECB1
:1005080031F01200D051020AD8A412000A0EA06FCE
:100518001A50340A0AE1D06B800EBDEC0AF093EC55
:100528002FF0020E0001A06F020C1A502C0AC3E132
:10053800010ED06F800EBDEC0AF093EC2FF0030E85
:100548000001B7D7810501E0D8D0A051020A73E1B4
:100558001A50340A12E1050E1026000E1122C90E97
:10056800105C000E115803E3140E106E116A800E11
:1005780097EC0AF093EC2FF0B4D01A502C0A12E141
:10058800FB0E1026FF0E1122140E105C000E1158DF
:1005980003E2C80E106E116A800E97EC0AF093EC15
:1005A8002FF09FD01A50AC0A1AE1150E8C2B0001BF
:1005B8008C6101D0150C8C6B190E105C000E115853
:1005C80004E2C80E106E116A04D0FB0E1026FF0E4E
:1005D8001122800E97EC0AF093EC2FF082D01A507B
:1005E800B40A1AE1150E8C2B00018C6101D0150C90
:1005F8008C6BC40E105C000E115804E3140E106EC0
:10060800116A04D0050E1026000E1122800E97ECF8
:100618000AF093EC2FF065D01A50380A62E1816B2A
:10062800A0C088F0050E1E6E70EC34F01D5059E025
:10063800DDEC31F056D01A50340A0AE1050E1026C6
:10064800000E1122C90E105C000E11584AE332D078
:100658001A502C0A0DE1FB0E1026FF0E1122140E63
:10066800105C000E11583DE2C80E106E116A39D0A8
:100678001A50AC0A10E1150E8C2B00018C6101D0C8
:10068800150C8C6B190E105C000E1158EDE3FB0E67
:100698001026FF0E14D01A50B40A13E1150E8C2B35
:1006A80000018C6101D0150C8C6BC40E105C000E1F
:1006B800115802E3140ED9D7050E1026000E112288
:1006C80010D01A50380A0DE1A051030A02E1020EB7
:1006D80001D0030E816F70EC34F01D50D8A4DDEC0E
:1006E80031F00A0E21EC0AF003E2F60E1BEC0AF0D8
:1006F80010C01FF011C020F012008151020A79E1E8
:100708001A50340A0CE1050E1B26000E1C22650E39
:100718001B5C000E1C5839E31B6A1C6A36D01A5041
:100728002C0A09E1050E1B5C000E1C5813E2F60E9C
:100738001BEC0AF013D01A50AC0A19E1150E8C2BD9
:1007480000018C6101D0150C8C6B050E1B5C000E32
:100758001C58EDE3FB0E1B26FF0E1C220A0E1B5C29
:10076800000E1C582DE2FB0E1BEC0AF029D01A5083
:10077800B40A19E1150E8C2B00018C6101D0150CFF
:100788008C6B050E1B26000E1C22F60E1024216E03
:10079800FF0E1120226E1B50215C1C50225810E2C3
:1007A8001B6A1C6A0DD01A50380A0AE11D5003E072
:1007B8004DEC32F002D070EC34F0030E0001816F82
:1007C8000A0E21EC0AF003E2F60E1BEC0AF0650EA5
:1007D8001B5C000E1C5803E3640E1B6E1C6A0A0E99
:1007E8001B5C000E1C58D8B012000A0E1B6E1C6A47
:1007F800000C8151030A58E11A50340A0CE1744B79
:10080800752B00017451640A7511D8A41200010EE9
:10081800746F756B000C1A502C0A0CE17407D8A081
:100828007507000175517411D8A41200630E746F16
:10083800756B000C1A50AC0A15E1150E8C2B0001D3
:100848008C6101D0150C8C6B0A0E745D000E755905
:1008580004E2630E746F756B000CFB0E7427FF0EB9
:100868007523FF0C1A50B40A15E1150E8C2B0001E4
:100878008C6101D0150C8C6B5A0E745D000E755985
:1008880004E3010E746F756B000C050E7427000EDF
:100898007523000C1A50380AD8A41200040E816F70
:1008A8001D66040C70EF34F08151040A61E11A509E
:1008B800340A0CE1764B772B00017651640A7711E4
:1008C800D8A41200010E766F776B000C1A502C0A10
:1008D8000CE17607D8A07707000177517611D8A4E4
:1008E8001200630E766F776B000C1A50AC0A15E194
:1008F800150E8C2B00018C6101D0150C8C6B0A0E27
:10090800765D000E775904E2630E766F776B000C04
:10091800FB0E7627FF0E7723FF0C1A50B40A15E159
:10092800150E8C2B00018C6101D0150C8C6B5A0EA6
:10093800765D000E775904E3010E766F776B000C35
:10094800050E7627000E7723000C1A50380AD8A413
:100958001200816BA0C088F0050E1E6E7A6B7B6B4F
:10096800C36BC46BFE6BFF6B956B966B8F6B120042
:100978008151050AD8A412001A50340A04E1010171
:10098800084B092B17D01A502C0A05E1010108075A
:10099800D8A009070FD01A50AC0A11E1150E8C2BFC
:1009A80000018C6101D0150C8C6B0101F60E082733
:1009B800FF0E0923800E97EC0AF093EF2FF01A50E0
:1009C800B40A0CE1150E8C2B00018C6101D0150CBA
:1009D8008C6B0A0E01010827000EEBD71A50380A53
:1009E800D8A41200816B896B300E8A6F400E8B6F12
:1009F800050E1E6E050C1A50380A03E1050E1E6E10
:100A080017D01A50340A06E11D2A060E1D6410D0AC
:100A18001D6E0ED01A502C0A06E11D06010E1D602F
:100A280007D01D6A05D01A50980AD8B48DEC30F05A
:100A38001D5010E0010A33E0030A56E0010A79E08C
:100A4800070A01E19BD0010A01E1BDD0030A01E1D7
:100A5800E4D01200350E236E000E246A25EC33F024
:100A6800350E236E246A020ED6EC33F0350E236E53
:100A7800246A040ED6EC33F0350E236E246A060E73
:100A8800D6EC33F07A0E236E000E246AD6EC33F0DF
:100A98007A0E236E246A020ED6EC33F0B8D0350EE7
:100AA800236E000E246AD6EC33F0350E236E246ACA
:100AB800020E25EC33F0350E236E246A040ED6ECB4
:100AC80033F0350E236E246A060ED6EC33F07A0E18
:100AD800236E000E246AD6EC33F07A0E236E246A55
:100AE800020ED6EC33F093D0350E236E000E246A36
:100AF800D6EC33F0350E236E246A020ED6EC33F0B2
:100B0800350E236E246A040E25EC33F0350E236E61
:100B1800246A060ED6EC33F07A0E236E000E246A91
:100B2800D6EC33F07A0E236E246A020ED6EC33F03C
:100B38006ED0350E236E000E246AD6EC33F0350ED7
:100B4800236E246A020ED6EC33F0350E236E246A27
:100B5800040ED6EC33F0350E236E246A060E25EC0F
:100B680033F07A0E236E000E246AD6EC33F07A0E38
:100B7800236E246A020ED6EC33F049D0350E236E6C
:100B8800000E246AD6EC33F0350E236E246A020E6A
:100B9800D6EC33F0350E236E246A040ED6EC33F00F
:100BA800350E236E246A060ED6EC33F07A0E236EC9
:100BB800000E246A25EC33F07A0E236E246A020EA6
:100BC800D6EC33F024D0350E236E000E246AD6EC12
:100BD80033F0350E236E246A020ED6EC33F0350E50
:100BE800236E246A040ED6EC33F0350E236E246A85
:100BF800060ED6EC33F07A0E236E000E246AD6EC7D
:100C080033F07A0E236E246A020E25EC33F07A0E46
:100C1800236E246A040ED6EF33F0350E236E000ED1
:100C2800246AD6EC33F0350E236E246A020ED6EC15
:100C380033F0350E236E246A040ED6EC33F0350EED
:100C4800236E246A060ED6EC33F07A0E236E000E5D
:100C5800246AD6EC33F07A0E236E246A020ED6ECA0
:100C680033F07A0E236E246A040E25EF33F01E50FB
:100C780002E13EEF00F0010A02E19FEF00F0030AF3
:100C880002E1C2EF00F0010A02E1E3EF00F0070A17
:100C980002E144EF02F0010A02E118EF02F0030A50
:100CA80002E19EEF00F0010A02E19EEF00F00F0A58
:100CB80002E19EEF00F0010A01E19DD6030A02E17C
:100CC800C1EF01F0120054C0E9FF55C0EAFFEC5231
:100CD800EC52D890ED32ED32EF32120051C051F0A3
:100CE80052C052F00A0E536E000E546A1200536E30
:100CF800000E546A4FC051F050C052F01200536EAB
:100D0800000E546A4DC051F04EC052F01200476AAE
:100D1800486A496A4A6A12004A5050264B50512282
:100D28004C505222120050C047F051C048F052C0F7
:100D380049F012003F6E406A000E402212002B6AF2
:100D48002B50800A2C6E28502A5C2950800A2C5877
:100D58001200F66EF76AFE0EF7220800F5503F6E95
:100D6800406A1200F3243F6E406A000E40221200CF
:100D780027243F6E406A000E402212002A242C6E5F
:100D8800000E2B202D6E2C50F35C2D50F4581200C1
:100D980051C047F052C048F053C049F0120029240E
:100DA8003F6E406A000E40221200D9243F6E406A0E
:100DB800000E4022120028242A6E000E29202B6ED5
:100DC8002A50F35C2B50F458120027243F6E406AD7
:100DD800000E40221200D9243F6E406A000E4022C5
:100DE800120028242A6E000E29202B6E2A50F35C4C
:100DF8002B50F4581200F324F66EF76AFC0EF72213
:100E08000800F5503F6E406A1200D9243F6E406AD0
:100E1800000E4022120027243F6E406A000E402236
:100E28001200D9243F6E406A000E40221200F324BB
:100E38003F6E406A000E40221200080F316E2EC02D
:100E480030F02D501200326E000E336A29C030F097
:100E58002AC031F01200F3242B6E000EF4202C6E01
:100E68002B50295C2C502A581200D9243F6E406A16
:100E7800000E4022120028243F6E406A000E4022D5
:100E8800120028242A6E000E29202B6E2A50F35CAB
:100E98002B50F4581200F324F66EF76AFE0EF72270
:100EA8000800F5503F6E406A1200D9243F6E406A30
:100EB800000E4022120027243F6E406A000E402296
:100EC8001200306E2F6A080E2E6E060E1200396A56
:100ED8003950800A3A6E3650385C3750800A3A5892
:100EE8001200306E2F6A060E2E6E040E1200306E3F
:100EF8002F6A040E2E6E020E12002F6E2AC02EF0DC
:100F080029C02CF02D6A1200D9243F6E406A000EC9
:100F18004022120032243F6E406A000E4022120026
:100F2800326E000E336A78C030F079C031F01200AA
:100F3800080F2F6E2CC02EF02B501200356A35503A
:100F4800800A366E3250345C3350800A36581200AC
:100F5800326E000E336A27C030F028C031F012001C
:100F6800F3243F6E406A000E40221200E1243F6ED7
:100F7800406A000E40221200640E326E000E336A80
:100F88001200326E030E336E9EC030F09FC031F0F7
:100F98001200A00E226E000E236A246A1200F420AA
:100FA800346E3150335C3250345812003124F66EAE
:100FB800C60E3220F76E0800F5503F6E406A1200E8
:100FC800F324316E000EF420326E12002E243F6E90
:100FD800406A000E40221200E1243F6E406A000E73
:100FE800402212000001CC5D000ECD5912002A24C7
:100FF8002C6E000E2B202D6E2C50F35C2D50F458C7
:101008001200F324F66EF76AFC0EF7220800F5507A
:101018003F6E406A1200D9243F6E406A000E40229B
:10102800120029243F6E406A000E40221200F4206C
:10103800346E3150335C3250345812003124F66E1D
:10104800C60E3220F76E0800F5503F6E406A120057
:10105800F324316E000EF420326E12009DC02AF087
:10106800250E286E000E12002E243F6E406A000ED8
:1010780040221200E1243F6E406A000E4022120016
:1010880029C0F7FF0800F550120036C030F037C00D
:1010980031F00A0E326E000E336A1200386E000EFE
:1010A800396AF3CF36F0F4CF37F01200326E000E03
:1010B800336A23C030F024C031F0120029C0F7FF92
:1010C8000800F5501200266A276A286A296A120061
:1010D8002A242C6E000E2B202D6E2C50F35C2D50E4
:1010E800F4581200F324F66EF76AFA0EF722080095
:1010F800F5503F6E406A1200D9243F6E406A000ED8
:101108004022120029243F6E406A000E402212003D
:101118002A242C6E000E2B202D6E2C50F35C2D50A3
:10112800F4581200F324F66EF76AFB0EF722080053
:10113800F5503F6E406A1200D9243F6E406A000E97
:101148004022120029243F6E406A000E40221200FD
:10115800356A3550800A366E3250345C3350800A16
:1011680036581200E1243F6E406A000E40221200F9
:10117800F4243F6E406A000E402212002324256E9C
:10118800000E2420266E2550F35C2650F4581200D9
:1011980022243F6E406A000E40221200D9243F6E7E
:1011A800406A000E402212003B203D6EF3503C5C2A
:1011B800F4503D581200F324F66EC60EF420F76E74
:1011C8000800F5503F6E406A1200F324F66EC60E12
:1011D800F420F76E0800F5CF3CF03CC03DF03E6AC5
:1011E8003D1C3F6E3E1C406E12003A24F36E000E0A
:1011F8003B20F46E120034243F6E000E3520406E02
:10120800120032243F6E000E3320406E120030C0B0
:1012180026F031C027F032C028F012002A242C6EA4
:10122800000E2B202D6E2C50F35C2D50F45812001C
:10123800F324F66EF76AFA0EF7220800F5503F6EAF
:10124800406A1200D9243F6E406A000E4022120004
:1012580029243F6E406A000E402212002A242C6E78
:10126800000E2B202D6E2C50F35C2D50F4581200DC
:10127800F324F66EF76AFB0EF7220800F5503F6E6E
:10128800406A1200D9243F6E406A000E40221200C4
:1012980029243F6E406A000E4022120029C0F7FF41
:1012A8000800F5501200D9243F6E406A000E402213
:1012B8001200F3243F6E406A000E402212002324DD
:1012C800256E000E2420266E2550F35C2650F45817
:1012D800120022243F6E406A000E40221200D924D8
:1012E8003F6E406A000E402212002F243F6E406A73
:1012F800000E402212002324256E000E2420266EA4
:101308002550F35C2650F458120022243F6E406AA0
:10131800000E40221200D9243F6E406A000E40227F
:1013280012003124F66EF60E3220F76E0800F550E2
:101338003F6E406A1200E1243F6E406A000E402270
:1013480012000E0EF324336E000EF420346E335068
:10135800315C345032581200F324316E000EF42000
:10136800326E1200070EF324336E000EF420346E32
:101378003350315C3450325812003124F66EF40E7A
:101388003220F76E0800F5503F6E406A1200302494
:101398003F6E406A000E40221200E9243F6E406A08
:1013A800000E40221200F324366EFF0EF420376E32
:1013B8001200D9243F6E406A000E402212003224E7
:1013C800F36E000E3320F46E12003F6E406A000E7A
:1013D800402212003F6E406A000E40221200232471
:1013E800256E000E2420266E2550F35C2650F458F6
:1013F80012003224346E000E3320356E3450F35C04
:101408003550F4581200F324F66EF00EF420F76EFF
:101418000800F5503F6E406A12003F6E406A000EA9
:10142800402212003F6E406A000E40221200102433
:101438001B6EFF0E11201C6E12001B24216E000E65
:101448001C20226E2150105C2250115812002E6E62
:10145800040E2D6E6D0E1200060F316E2EC030F088
:101468002D5012007851265C795127581200326E9F
:10147800000E336A29C030F02AC031F01200336AF6
:101488003350800A346E3050325C3150800A345800
:101498001200F66EF76AF80EF7220800F5503F6E54
:1014A800406A1200F66EF76AF80EF7220800F5CFC8
:1014B80030F030C031F0326A311C3F6E321C406E61
:1014C8001200F3243F6E406A000E40221200E1240D
:1014D8003F6E406A000E4022120028242A6E000E39
:1014E80029202B6E2A50F35C2B50F4581200F32459
:1014F800F66EF76AFC0EF7220800F5503F6E406A58
:101508001200D9243F6E406A000E402212002724A0
:101518003F6E406A000E402212003024F36E000E27
:101528003120F46E1200306E2F6A060E2E6E040EF5
:1015380012003024326E000E3120336E3250F35CCC
:101548003350F4581200F324F66EF30EF420F76EBD
:101558000800F5503F6E406A1200D9243F6E406A79
:10156800000E40221200E9243F6E406A000E40221D
:101578001200306E2F6A020E2E6E000E1200282402
:101588002A6E000E29202B6E2A50F35C2B50F4583B
:10159800120027243F6E406A000E40221200D92410
:1015A8003F6E406A000E4022120077C028F04B0EB2
:1015B800266E040E12002B6E020E2A6EF20E286E94
:1015C800FF0E296E120075C028F04B0E266E020E13
:1015D80012002B6E040E2A6EB60E286EFF0E296EB0
:1015E80012002B6E020E2A6EC00E286EFF0E296E98
:1015F80012002E6E040E2D6E670E12002F6A2F50E9
:10160800800A306E2C502E5C2D50800A3058120003
:101618002A243F6E406A000E40221200D9243F6EF1
:10162800406A000E402212002E6E040E2D6E480EE7
:1016380012002E6E040E2D6E6D0E12002E6E020E0E
:101648002D6E670E12002E6E020E2D6E480E1200C1
:101658002A242C6E000E2B202D6E2C50F35C2D505E
:10166800F45812002E6E020E2D6E6D0E12001CC064
:1016780028F0490E266E040E120011C028F0490EFB
:10168800266E020E120029243F6E406A000E402288
:101698001200D9243F6E406A000E402212002B6EC1
:1016A800040E2A6EAB0E286EFF0E296E12002B6EEA
:1016B800020E2A6E950E286EFF0E296E12002B6EF2
:1016C800040E2A6E9E0E286EFF0E296E12002B6ED7
:1016D800020E2A6E9E0E286EFF0E296E1200386EBC
:1016E800000E396A76C036F077C037F012002B6EDC
:1016F8002A6AD40E286EFF0E296E1200D9243F6E76
:10170800406A000E40221200F3243F6E406A000E29
:1017180040221200700E286EFF0E296E12003650FD
:10172800955D375096591200386E000E396A74C0AC
:1017380036F075C037F01200306E2F6A080E2E6E24
:10174800060E1200306E2F6A060E2E6E040E120060
:10175800306E2F6A040E2E6E020E1200316E2CC0EF
:1017680030F02BC02EF02F6A120028242A6E000EAB
:1017780029202B6E2A50F35C2B50F4581200F324C6
:10178800F66EF76AF90EF7220800F5503F6E406AC8
:101798001200D9243F6E406A000E40221200326EB9
:1017A800000E336A78C030F079C031F01200272477
:1017B8003F6E406A000E4022120024502A2625500F
:1017C8002B2226502C2212002AC021F02BC022F0F6
:1017D8002CC023F012003F6E406A000E4022120017
:1017E80000017A5D000E7B5912003F6E406A000EC0
:1017F800402212003F6E406A000E40221200A00EE6
:10180800226E000E236A246A12002324256E000E1D
:101818002420266E2550F35C2650F458120022240A
:101828003F6E406A000E40221200D9243F6E406A83
:10183800000E4022120033C0E9FF34C0EAFFEC5228
:10184800EC52D890ED32ED32EF32120081674ED073
:10185800DA6730D0010EDA6F1D5003E015EC32F074
:1018680029D0460E266E000E69EC27F0050E2B6E69
:101878002A6AED0E286EFF0E296EFBEC34F0500E2E
:101888002B6E2A6AE60E286EFF0E296EFBEC34F0EA
:10189800080E2B6E020E2A6EA00E286EFF0E296E01
:1018A800FBEC34F0050E2B6E040E2A6E8EEC0BF05A
:1018B800FBEC34F00001A051020A0AE1740E266E16
:1018C800020EFDEC29F0740E266E040E26EF2CF0A5
:1018D800A051030AD8A41200740E266E040EFDEC63
:1018E80029F0740E266E020E26EF2CF0810578E1A1
:1018F80010C078F011C079F0A051020A18E1200E4A
:10190800286E030E56EC33F0300E266E040EA9EC4A
:101918001BF01D5006E04D0E266E010E4CEC2AF011
:101928004DD0240E7BEC0BF0FBEC34F047D01D506F
:1019380011E0DA6704D0010EDA6FDDEC31F03D0E0C
:101948006BEC0BF0FBEC34F03D0E63EC0BF0FBECB6
:1019580034F00FD0240E7BEC0BF0FBEC34F0060EC9
:101968005BEC0BF0FBEC34F0060E53EC0BF0FBECED
:1019780034F0010E0001986F10C027F041EC0BF015
:10198800D2EC24F00001986B1BC027F03BEC0BF065
:10199800D2EC24F0620E36EC0BF0AFEC12F0690ECC
:1019A80036EC0BF0AFEC12F0700E27EC0BF0AFEC4E
:1019B80012F0770E22EC0BF0AFEC12F00001986BEE
:1019C800620E1DEC0BF0AFEC12F0690E1DEC0BF083
:1019D800AFEC12F0700E18EC0BF0AFEC12F080D0F8
:1019E8008151020A01E081D0DA6B10C078F011C091
:1019F80079F0A051020A18E1200E286E030E56EC69
:101A080033F0300E266E040EA9EC1BF01D5006E0D4
:101A18004D0E266E010E4CEC2AF051D0240E7BECB4
:101A28000BF0FBEC34F04BD01D5015E0060ED22B1A
:101A38000001D26103D0DDEC31F002D0050ED26F87
:101A48003D0E6BEC0BF0FBEC34F03D0E63EC0BF051
:101A5800FBEC34F00FD0240E7BEC0BF0FBEC34F0F5
:101A6800060E5BEC0BF0FBEC34F0060E53EC0BF0BF
:101A7800FBEC34F010C027F041EC0BF0D2EC24F072
:101A8800010E0001986F1BC027F03BEC0BF0D2EC65
:101A980024F00001986B620E36EC0BF0AFEC12F0FC
:101AA800690E36EC0BF0AFEC12F0700E27EC0BF071
:101AB800AFEC12F0770E22EC0BF0AFEC12F0000155
:101AC800986B620E1DEC0BF0AFEC12F0690E1DEC7A
:101AD8000BF0AFEC12F0700E18EC0BF0AFEC12F04C
:101AE800770EFDEC0AF0AFEF12F08151030A35E1F1
:101AF8001D500BE0060ED22B0001D26103D04DEC35
:101B080032F014D0050ED26F11D0100E2B6E2A6A47
:101B18008EEC0BF0FBEC34F0060EF5EC0AF0FBEC67
:101B280034F0060EEDEC0AF0FBEC34F0010E000187
:101B3800986F74C027F0E7EC0AF0D2EC24F00001AB
:101B4800986B650EDFEC0AF0FBEC34F076C027F0FA
:101B5800D9EC0AF0D2EC24F03CD08151040A43E1DC
:101B6800DA6B1D500BE0060ED22B0001D26103D0B8
:101B78004DEC32F014D0050ED26F11D0100E2B6E32
:101B88002A6A8EEC0BF0FBEC34F0060EF5EC0AF04A
:101B9800FBEC34F0060EEDEC0AF0FBEC34F000013F
:101BA800986B74C027F0E7EC0AF0D2EC24F000013F
:101BB800986B650EDFEC0AF0FBEC34F0010E0001C7
:101BC800986F76C027F0D9EC0AF0D2EC24F0000127
:101BD800986B650E2B6E040E2A6EF20E286EFF0EA1
:101BE800296EFBEF34F08151050AD8A41200200EAB
:101BF800286E020E56EC33F01D5006E04D0E266E90
:101C0800000E4CEC2AF042D0180E2E6E2D6A530EA0
:101C1800AFEC12F01F0E2E6E2D6A650EAFEC12F0AF
:101C2800260E2E6E2D6A740EAFEC12F0300E2E6E4C
:101C38002D6A500EAFEC12F0370E2E6E2D6A720E12
:101C4800AFEC12F03E0E2E6E2D6A650EAFEC12F060
:101C5800450E2E6E2D6A730EAFEC12F04C0E2E6EE2
:101C68002D6A730EAFEC12F0530E2E6E2D6A750EA0
:101C7800AFEC12F05A0E2E6E2D6A720EAFEC12F007
:101C8800610E2E6E2D6A650EAFEC12F008C178F069
:101C980009C179F0640E105C000E115806E2300E8E
:101CA800266E040EA9EC1BF005D02E0E266E040E2F
:101CB800A9EC1BF05A0E1DEC0BF0AFEC12F0610E04
:101CC8001DEC0BF0AFEC12F0680E18EC0BF0AFEC5B
:101CD80012F06F0EFDEC0AF0AFEC12F00001986BF9
:101CE800120000017F518D5D80518E591DE28D518A
:101CF8007F5D266E8E518059276E76EC35F026C0B2
:101D080026F027C027F028C028F089C029F08AC00B
:101D18002AF08BC02BF06CEC28F026C021F027C0ED
:101D280022F028C023F003D0216A226A236A21C046
:101D380026F022C027F023C028F0C9EC2EF026C0D8
:101D480090F027C091F001011F6729D0FB0E1024E5
:101D5800246EFF0E1120256E24500001905D255041
:101D6800915905E310C090F011C091F018D0050EFC
:101D7800326E000E336A90C030F091C031F026EC1C
:101D880034F030C036F031C037F0060E386E000E31
:101D9800396A2BEC36F036C090F037C091F0050E5A
:101DA8000001905D000E915902E2906B916B1E50FC
:101DB80016E0010A15E0030A01E19BD0010A01E1DE
:101DC8009CD0070A01E124D1010A01E19AD0030A53
:101DD80006E0010A01E11ED10F0A01E12DD112002E
:101DE80001011B6720D0010E1B6F1D5003E0FDECA5
:101DF80030F019D0140E266E020E69EC27F0320E60
:101E08002B6E020E2A6EDD0E286EFF0E296EFBEC7D
:101E180034F00A0E2B6E040E2A6E270E286EFF0E63
:101E2800296EFBEC34F000018851020A110E2BE1F7
:101E3800286E000E4EEC23F01C0E286E000E81EC6E
:101E480033F010C029F011C02AF0220E286E000EBF
:101E580092EC25F0390E296E000E286A5BEC16F01C
:101E68003F0E296E000E286A5BEC16F0450E296EAF
:101E7800286A240E5BEC16F04B0E296E286A300E89
:101E88005BEC16F02AD0286E000ECAEC21F01C0E6E
:101E9800286E000E81EC33F010C029F011C02AF032
:101EA800210E286E000E92EC25F0390E296E000ED8
:101EB800286A5BEC16F03F0E296E000E286A5BEC70
:101EC80016F0450E296E286A240E5BEC16F04B0EB0
:101ED800296E286A300E5BEC16F0000193516C0EE7
:101EE80004E0266E060E2BEF22F0266E060E52EF49
:101EF80026F08FEC15F05AEF35F0BEEC13F05AEFE0
:101F080035F010C09CF011C09DF08851020A29E1FB
:101F1800110E286E000E4EEC23F01F0E286E000ED8
:101F280081EC33F09CC029F032EC08F092EC25F0FB
:101F3800390E296E000E286A5BEC16F03F0E296EEA
:101F4800000E286A5BEC16F0450E296E286A240EEE
:101F58005BEC16F04B0E296E286A300E5BEC16F01F
:101F68002BD08851030A28E1110E286E000ECAEC06
:101F780021F01F0E286E000E81EC33F09CC029F072
:101F880032EC08F092EC25F0390E296E000E286A22
:101F98005BEC16F03F0E296E000E286A5BEC16F01B
:101FA800450E296E286A240E5BEC16F04B0E296E3E
:101FB800286A300E5BEC16F05AEC35F00001A76782
:101FC80012001D500AE05C0E266E030E88EC2BF002
:101FD8002C0E266E060E5FEF29F0140E2B6E030EE4
:101FE8002A6E560E286EFF0E296EFBEC34F0040E96
:101FF8002D6E060E2C6E7C0E15EC1AF0100E2B6E44
:10200800060E2A6E2F0E286EFF0E296EDAEF34F0B8
:102018002AEF0CF094510F0B050A06E11D5002E05F
:10202800A5EF31F0C5EF30F070EC34F0AE0E3F6E36
:10203800000E406AF0EF36F01AEC1EF07CC0D8F0C3
:102048001200476A486A496A4A6A1150101012E138
:1020580014EC37F0104B112BEA0E0101105D030E42
:10206800115906E38A924C0E106F040E116F040C7E
:102078008A82120010C04DF011C04EF03CEC2EF0D8
:102088000101106B116B000192A704D08A908A920B
:1020980014EF37F0E4C04FF0E5C050F010C04DF039
:1020A80011C04EF0C7EC35F04DC047F04EC048F0B7
:1020B8007D51475C7E5148583AE3D76B01010E6B5E
:1020C8000F6B152B310E156504D0156B0001AB6B2A
:1020D800AC6B0101256B0001B66BB76BB86BB96BC4
:1020E8009299CF6707D1FA4BFB2B0B0EFA5D000EC6
:1020F800FB5901E2FFD0FA6BFB6B8F0503E19751A7
:10210800020AD8B48A92000192A10ED0E10E9A5D1B
:102118002E0E9B5905E314EC37F0010E1E6FEAD022
:1021280018EC37F01E6BE6D018EC37F0FBD710C070
:102138004BF011C04CF0A1514B26A2514C22040E79
:102148004B26000E4C224B507D5D4C507E5961E36E
:10215800AB4BAC2BE80EAB5D030EAC5904E3E80EB9
:10216800AB6F030EAC6F0A0E536E000E546A10C0AC
:1021780051F011C052F04BEC34F051C049F052C04C
:102188004AF0140E536E000E546A49C051F04AC00A
:1021980052F057EC36F051C049F052C04AF0150ED3
:1021A800495C000E4A5803E2140E496E4A6A900EC2
:1021B800495C010E4A5804E3900E496E010E4A6EBE
:1021C800AB51495CAC514A5805E214EC37F08B9E90
:1021D8000001DC6BF30E49244B6E010E4A204C6E55
:1021E800AB514B5CAC514C580EE2CF670CD0C34B93
:1021F800C42B01012F6B010E0001CF6FCE6BC76B93
:10220800C86BAB6BAC6BD76B01010E6B0F6B256B9F
:1022180071D092A107D0E10E9A5D2E0E9B59D8B0CD
:1022280014EC37F00001B62B000EB723B823B923FE
:10223800220EB65DBF0EB759020EB859000EB95935
:10224800D8B092890101252B310E256505D0156B73
:10225800256B0001AB6BAC6B01010E4B0F2BB80E5D
:102268000E5D0B0E0F5946E30001D751020DF350D6
:10227800E96EEA6A7DC0EEFF7EC0EDFFD72B070E40
:10228800D76535D000EE0EF0EE520150ED1800C0C3
:10229800E8FFD8B4EF180AE00E284B6E000E0F20A6
:1022A8004C6E011802E100504B1802E1928901D0EE
:1022B800929902C000F003C001F004C002F005C00A
:1022C80003F006C004F007C005F008C006F009C016
:1022D80007F00AC008F00BC009F00CC00AF00DC0E6
:1022E8000BF00EC00CF00FC00DF0070ED76F0101F8
:1022F8000E6B0F6B0001CF51D8A413EC30F0120015
:102308001E50070A1CE01E501AE00101026B036B05
:102318000001930501E1F7D01A50B80A01E0F3D0A3
:1023280001012605D8B41200010E266F0001DA6BF0
:1023380070EC34F0070E1E6E01012A6FE4D01E50B7
:10234800070A01E0E0D0000194510F0B050A01E1F2
:10235800DAD00101024B032B340E025D000E035943
:1023680001E2D1D08B9C8992216AA00E226E000EC8
:10237800236A246AF9EC36F01FC025F020C026F045
:10238800216ACDEC07F082EC36F074C025F075C0F8
:1023980026F0020E216ECDEC07F082EC36F076C006
:1023A80025F077C026F0040E216ECDEC07F082EC04
:1023B80036F0000188C025F0266A060E216ECDECA5
:1023C80007F082EC36F0246A7A0E256E440E266EEB
:1023D80089C021F08AC022F08BC023F05DEC2DF07B
:1023E80021C026F022C027F023C028F0C9EC2EF027
:1023F80026C09EF027C09FF0E80E326E030E336EA3
:102408009EC030F09FC031F026EC34F030C0E6F0CA
:1024180031C0E7F0E80EC5EC07F0ACEC35F030C0A1
:1024280030F031C031F0640E326E000E336A26ECA3
:1024380034F030C0E2F031C0E3F0E80EC5EC07F04C
:10244800ACEC35F0C0EC07F0ACEC35F030C030F057
:1024580031C031F00A0E326E000E336A26EC34F0C9
:1024680030C0DEF031C0DFF0E80EC5EC07F0ACECB0
:1024780035F0C0EC07F0ACEC35F00A0E326E000E09
:10248800336AACEC35F030C0E0F031C0E1F0E6C0C2
:1024980025F0E7C026F0080E216ECDEC07F082EC9F
:1024A80036F0E2C025F0E3C026F00A0E216ECDEC2E
:1024B80007F082EC36F0DEC025F0DFC026F00C0E07
:1024C800216ECDEC07F082EC36F0E0C025F0E1C0DB
:1024D80026F00E0E216ECDEC07F082EC36F01DC012
:1024E80025F0266A100E216ECDEC07F082EC36F04E
:1024F8001BC025F01CC026F0120E216ECDEC07F093
:1025080082EC36F08B941A50A40A04E10001936B14
:10251800E86BE96B1A50240A04E10001936BE86B3D
:10252800E96B000193670ED01E040CE101012767D7
:1025380009D01A50980A06E1010E276F090E1E6E7F
:1025480070EC34F01E5001012E19D8A470EC34F050
:102558001EC02EF11200E8CFE9FFE9CFF3FFF46ABD
:102568005B0EF35C000EF45854E30E0E386E396AB5
:102578009F0ED7EC09F02BEC36F036C0F3FF37C0CE
:10258800F4FF2D500608E96E2E507A08E16EE13806
:102598000F0B306EE1500F0BD96EB00ED1EC09F075
:1025A800F0EC36F0100ECBEC09F0F0EC36F0D9CFA9
:1025B8003FF0406AF0EC36F0F3CF31F0F4CF32F070
:1025C800B6EC09F008E2FC0EC1EC09F0E7EC36F0D5
:1025D800314A322AF5D7B10ED1EC09F0F0EC36F0D9
:1025E800100ECBEC09F0F0EC36F0D9CF3FF0406A92
:1025F800F0EC36F0070EB0EC09F0A5EC09F0D8B015
:102608001200FC0EC1EC09F0E7EC36F0314A322A30
:10261800F4D7290EF35C000EF45854E30E0E386E0E
:10262800396ABF0ED7EC09F02BEC36F036C0F3FF51
:1026380037C0F4FF2D500608E16E2E507A08E96E77
:10264800E9380F0B306EE9500F0BD96EB00E9FECC6
:1026580009F0F0EC36F0100ECBEC09F0F0EC36F0A7
:10266800D9CF3FF0406AF0EC36F0F3CF31F0F4CF39
:1026780032F0B6EC09F008E2680E95EC09F0E7ECE8
:1026880036F0314A322AF5D7B10E9FEC09F0F0EC5A
:1026980036F0100ECBEC09F0F0EC36F0D9CF3FF065
:1026A800406AF0EC36F0070EB0EC09F0A5EC09F042
:1026B800D8B01200680E95EC09F0E7EC36F0314A14
:1026C800322AF4D72D5006082F6E2E507A08D96E6C
:1026D800D9380F0BE96ED9500F0BE16EB00E79ECBB
:1026E80009F0F0EC36F0100ED1EC09F0F0EC36F011
:1026F800E1CF3FF0406AF0EC36F0F3CF31F0F4CFA1
:1027080032F0020EF324336E000EF420346E335090
:10271800315C3450325808E2000E3F6A406AE7ECF8
:1027280036F0314A322AEDD7B10E79EC09F0F0ECE7
:1027380036F0100ED1EC09F0F0EC36F0E1CF3FF0B6
:10274800406AF0EC36F0020EB0EC09F0040EF32407
:10275800336E000EF420346E3350315C34503258EE
:10276800D8B01200000E3F6A406AE7EC36F0314AF2
:10277800322AECD78F6705D010C09CF011C09DF0AD
:1027880004D01BC09CF01CC09DF0D8517C6301D0C4
:1027980002D070EC34F000017C67EAD0110E286E8C
:1027A800000ECAEC21F01F0E286E000E81EC33F0EB
:1027B8009CC029F09DC02AF0250E286E000E92ECD0
:1027C80025F0390E296E000E286A5BEC16F03F0ED4
:1027D800296E000E286A5BEC16F0450E296E286AF1
:1027E800240E5BEC16F04B0E296E286A300E5BEC5B
:1027F80016F074C029F075C02AF0500E286E020E2B
:1028080032EC25F06A0E2E6E020E2D6E6D0EAFECB8
:1028180012F0710E2E6E020E2D6E690EAFEC12F0D4
:10282800780E2E6E020E2D6E6E0EAFEC12F076C084
:1028380029F077C02AF0500E286E040E32EC25F0ED
:102848006A0E2E6E040E2D6E6D0EAFEC12F0710E28
:102858002E6E040E2D6E690EAFEC12F0780E2E6EF1
:10286800040E2D6E6E0EAFEC12F001010B2B330E21
:102878000B6505D00B6B90C0BCF091C0BDF000019A
:10288800BF4BC02B090EBF5D000EC0590CE3BF6BD8
:10289800C06BBCC028F0BDC029F0F4EC2DF028C0F6
:1028A800B3F029C0B4F08F05D8B4970532E0CA4B0D
:1028B800CB2B040E0001CA5D000ECB591AE3CA6B7C
:1028C800CB6B050E326E000E336AB3C030F0B4C065
:1028D80031F026EC34F030C036F031C037F0050E58
:1028E800386E000E396A2BEC36F036C078F037C0F7
:1028F80079F0050E1024266E000E1120276E265042
:10290800785D2750795917E310C078F011C079F035
:1029180012D0970510E1C651C51104E17DC078F0C9
:102928007EC079F0C54BC62B320EC55D000EC65968
:1029380002E3C56BC66B1E0E286E040E2DEC1CF050
:102948000C0E286E020E56EC33F01D5006E02D0ECC
:10295800286E060EAEEC29F00DD0020E2B6E060E78
:102968002A6E7D0E286EFF0E296EDAEC34F002D046
:102978001AEC1EF07CC0D8F0120009EC37F0040005
:10298800216A03EC0CF06DEC36F021C0EEF022C0A9
:10299800EFF0020E216E03EC0CF06DEC36F021C066
:1029A800F0F022C0F1F0040E216E03EC0CF06DEC97
:1029B80036F021C0ECF022C0EDF0060E216E03ECDB
:1029C8000CF06DEC36F021C0C1F022C0C2F0080E48
:1029D800216E03EC0CF06DEC36F021C0E6F022C05D
:1029E800E7F00A0E216E03EC0CF06DEC36F021C016
:1029F800E2F022C0E3F00C0E216E03EC0CF06DEC5B
:102A080036F021C0DEF022C0DFF00E0E216E03EC9E
:102A18000CF06DEC36F021C0E0F022C0E1F0100EB1
:102A2800216E03EC0CF06DEC36F021501D6E120E89
:102A3800216E03EC0CF06DEC36F021C01BF022C0C7
:102A48001CF015EC36F0AAEC36F01CEC37F0B7ECBD
:102A580034F0D4EC36F0C3EC27F0926B01011A6B1A
:102A680002EC37F079800101246BF28EF28C0400BD
:102A7800DEEC36F0000E0001896F300E8A6F400ED2
:102A88008B6F040001012251FCE0226B1E5004E010
:102A980088EC19F0FCEC35F000EC34F03CEC00F07C
:102AA80084EC11F075EC0EF01E6603D01E50080A77
:102AB80006E1ACEC33F0D4EC2FF005EC21F01E501D
:102AC80007E01E50070AD8A41E04D8A42BEC1DF05A
:102AD80001011A51F00B17E01667D3D70001D42B68
:102AE800320ED4650ED0010EDC6F630ED465C9D7E3
:102AF800010E0101166F8A900001D46B124A132A45
:102B0800C0D78A80BED70001DC6B0101166B8A90A2
:102B18000001D46BB6D710C09CF011C09DF0D851FD
:102B28007C6301D002D070EC34F000017C67BAD02D
:102B380051EC2FF0110E286E000E4EEC23F01F0EF4
:102B4800286E000E81EC33F09CC029F09DC02AF05D
:102B5800250E286E000E92EC25F0390E296E000E17
:102B6800286A5BEC16F03F0E296E000E286A5BECB3
:102B780016F0450E296E286A240E5BEC16F04B0EF3
:102B8800296E286A300E5BEC16F001010B2B330E10
:102B98000B6505D00B6B90C0BCF091C0BDF0000177
:102BA800BF4BC02B090EBF5D000EC0590CE3BF6BB5
:102BB800C06BBCC028F0BDC029F0F4EC2DF028C0D3
:102BC800B3F029C0B4F0CA4BCB2B040E0001CA5D88
:102BD800000ECB591AE3CA6BCB6B050E326E000E92
:102BE800336AB3C030F0B4C031F026EC34F030C0F2
:102BF80036F031C037F0050E386E000E396A2BEC0E
:102C080036F036C078F037C079F0050E1024266EFD
:102C1800000E1120276E36EC0AF00BE310C026F0E8
:102C280011C027F0A151265EA251275A36EC0AF0AE
:102C380004E210C078F011C079F01E0E286E040E60
:102C48002DEC1CF00C0E286E020E56EC33F04C0ED8
:102C58002BEC0AF0AFEC12F0530E2BEC0AF0AFECB1
:102C680012F05A0E2E6E040E2D6E480EAFEC12F0B6
:102C7800610E2E6E040E2D6E670EAFEC12F01D5015
:102C880006E02D0E286E060EAEEC29F00DD0020ED1
:102C98002B6E060E2A6E7D0E286EFF0E296EDAEC5C
:102CA80034F002D01AEC1EF07CC0D8F01200E8CF45
:102CB800E9FFE9CF2BF028500608D96E29507A0889
:102CC800E16EE1380F0B2A6EE1500F0BE96EB00E82
:102CD80012EC0BF0F0EC36F0100E0CEC0BF0F0EC04
:102CE80036F0E9CF3FF0406AF0EC36F02BC0E1FF58
:102CF8002BC02CF02D6A060E2C26000E2D22E1CFBB
:102D08002EF002EC0BF032E2D40EE124F66EF76AF4
:102D1800F70EF7220800F550F36EF46AE1CF2CF0B5
:102D28002D6A060E2C26000E2D22D40E2C24F66EAB
:102D3800F70E2D20F76E0800F5502F6E2E6A2E50D4
:102D4800F3122F50F412D890F432F332D890F432B0
:102D5800F332D890F432F332000EF46AF3CF3FF036
:102D6800F4CF40F0E7EC36F0E12AC2D7B10E12EC0E
:102D78000BF0F0EC36F0100E0CEC0BF0F0EC36F03B
:102D8800E9CF3FF0406AF0EC36F02B50060FD96ED1
:102D98002BC02CF02D6A0C0E2C26000E2D22D9CF1C
:102DA8002EF002EC0BF0D8B01200D40ED924F66E37
:102DB800F76AF70EF7220800F550F36EF46AFA0E78
:102DC800D9242C6E2D6AFF0E2D22D40E2C24F66EDB
:102DD800F70E2D20F76E0800F5CF2EF0F350F46EA5
:102DE8002E50F36ED890F432F332D890F432F33296
:102DF800D890F432F332F450F36EF46AF3CF3FF024
:102E0800F4CF40F0E7EC36F0D92AC2D7E8CFE9FF93
:102E1800E9500C0DF3CF33F030500608326E3150C4
:102E28007A08E16EE1380F0BD96EE1500F0BE96EAD
:102E3800B00E8EEC07F0F0EC36F0100E88EC07F0D0
:102E4800F0EC36F0E9CF3FF0406AF0EC36F033C0F2
:102E5800E1FF33C036F0376A060E3626000E3722F9
:102E6800E1CF38F06BEC07F02FE2700EE124F66E3C
:102E7800F76AF90EF7220800F550F36EF46AE1CF0D
:102E880036F0060E3626700E3624F66EF76AF90E00
:102E9800F7220800F550386E376A3750F312385069
:102EA800F412D890F336F436D890F336F436D89036
:102EB800F336F436000EF46AF3CF3FF0F4CF40F067
:102EC800E7EC36F0E12AC5D7B10E8EEC07F0F0EC4E
:102ED80036F0100E88EC07F0F0EC36F0E9CF3FF052
:102EE800406AF0EC36F03350060FD96E33C036F036
:102EF800376A0C0E3626000E3722D9CF38F06BEC25
:102F080007F0D8B01200700ED924F66EF76AF90EE1
:102F1800F7220800F550F36EF46AD9CF36F0FA0EAE
:102F28003626700E3624F66EF76AF90EF722080078
:102F3800F5CF37F0F350F46E3750F36ED890F33680
:102F4800F436D890F336F436D890F336F436F45095
:102F5800346E356A34C03FF035C040F0E7EC36F0E7
:102F6800D92AC4D7480E386E000E396A2EC036F0FA
:102F78002FC037F02BEC36F036C032F037C033F0C4
:102F880030500608D96E31507A08F36EF3380F0BBB
:102F9800E96EF3500F0BE16EB00ED92416EC0AF06F
:102FA800F0EC36F0100EE92416EC0AF0F0EC36F0EE
:102FB800E1CF3FF0406AF0EC36F032C0F3FF33C0A7
:102FC800F4FF120EFDEC09F008E26A0E07EC0AF0B5
:102FD800E7EC36F0F34AF42AF4D7B10ED924EEEC34
:102FE80009F0F0EC36F0100EE924EEEC09F0F0EC04
:102FF80036F0E1CF3FF0406AF0EC36F0120EE3EC29
:1030080009F0240EFDEC09F008E26A0E07EC0AF05C
:10301800E7EC36F0F34AF42AF4D7B20EDDEC09F007
:10302800F0EC36F0100EE9243F6E406A000E4022A4
:10303800F0EC36F0E1CF3FF0406AF0EC36F0240EC9
:10304800E3EC09F0360EFDEC09F008E26A0E07EC35
:103058000AF0E7EC36F0F34AF42AF4D7B30EDDECC5
:1030680009F0F0EC36F0100EE9243F6E406A000ECD
:103078004022F0EC36F0E1CF3FF0406AF0EC36F059
:10308800360EE3EC09F0480EFDEC09F0D8B012005A
:103098006A0E07EC0AF0E7EC36F0F34AF42AF3D7A5
:1030A80068EC21F07F518D5D80518E591DE28D5164
:1030B8007F5D476E8E518059486E91EC35F047C060
:1030C80047F048C048F049C049F089C04AF08AC072
:1030D8004BF08BC04CF01AEC28F047C0A8F048C061
:1030E800A9F049C0AAF003D0A86BA96BAA6BA8C025
:1030F80047F0A9C048F0AAC049F00DEC2FF047C02E
:103108007DF048C07EF0410E7D5D010E7E5904E3DE
:10311800400E7D6F010E7E6F10C047F011C048F061
:1031280091EC35F047C047F048C048F049C049F035
:103138004A6A480E4B6EC20E4C6EEFEC18F047C050
:1031480047F048C048F049C049F09A0E4A6E190E37
:103158004B6E3F0E4C6EC3EC2CF047C047F048C096
:1031680048F049C049F04A6A200E4B6E410E4C6E39
:10317800EFEC18F047C0A8F048C0A9F049C0AAF081
:10318800150E105C000E11580AE3460E105C000E76
:10319800115805E3640E105C000E115802E2040E8B
:1031A80008D0230E105C010E115802E2050E01D062
:1031B800060E01011D6F0A0E536E000E546A10C0F0
:1031C80051F011C052F04BEC34F051C045F052C0F0
:1031D80046F025EF10F0510E566E000E576E470E52
:1031E800546E000E556E85EC32F04F6E516607D066
:1031F8004AC047F04BC048F04CC049F01200500E8E
:10320800566E000E576E4A0E546E000E556E85ECC3
:1032180032F04D6E50506BE0060E4E6E50505160BD
:1032280022D05150505C526E190E525C08E3476A26
:10323800486A496A50C051F04DC04FF034D0D89018
:103248004A364B364C3650065050511808E04E2E30
:10325800F6D705D0D890493248324732512A5050D3
:103268005162F8D720D0515050181DE05050515C91
:10327800526E190E525C04E34A6A4B6A4C6A13D0C8
:10328800D89047364836493651065050511808E00C
:103298004E2EF6D705D0D8904C324B324A32502AAF
:1032A80050505162F8D74F5007E0471E481E491E3C
:1032B800472A000E482249224D5007E04A1E4B1E5D
:1032C8004C1E4A2A000E4B224C224F6A4A5047266F
:1032D8004B5048224C50492249AE09D0471E481E3F
:1032E800491E472A000E48224922010E4F6E51C03E
:1032F80056F0470E546E000E556ED4EC1FF04F502A
:1033080002E0800E491A120081503C0B0001BE6F8A
:10331800010121510001BE6361D0AF4BB02B060EF5
:10332800AF5D000EB0595DE3BE513C0A31E10101C9
:10333800266B276B00017C670ED0D9510CE19451A4
:103348000A0A09E00101044B052BDE0E045D050E97
:103358000559D8B08B9C0001E84BE92BCA0EE85DF3
:10336800AF0EE95902E3010E936FD1670ED0B25147
:1033780007E0B2C01AF001012B6B0001B26B31D02B
:10338800B2C01AF001010C6B2CD0D16B1A6AF6D7B7
:10339800E86BE96B0101046B056B0FEC37F0BEC0FD
:1033A800B2F01A50240A13E1050EAF5D000EB059B1
:1033B80018E3050EAF6FB06BB251800F1A6ED105CE
:1033C800D8B41200010ED16F01012B6B0AD0640E24
:1033D800AF5D000EB05905E3640EECD7AF6BB06B70
:1033E8001A6A1A501BE00001DA6B1E50080A14E131
:1033F8007D0E306E2F6A060E2E6E000E93EC2FF0A7
:1034080001011B6B0001DA6BD26BD6C01EF0D66BC4
:103418001A6A996B0FEC37F0F86BF96BBEC021F1A3
:103428001200E8CFD9FFE00ED924F36EF46AFF0E3C
:10343800F422F33AF43AF00EF416F3500F0BF412A8
:10344800F00EF3162C500608E16E2D507A08306EF7
:1034580030380F0B2E6E30500F0B2F6EB00E3EEC27
:1034680008F0F0EC36F0100E38EC08F0F0EC36F01E
:103478002FC03FF0406AF0EC36F0D950200A0FE137
:10348800316A326A000E3F6A406AE7EC36F0314A28
:10349800322A030E315C000E325814E2F3D70F0EB5
:1034A8002CEC08F0070EF324336E000E1BEC08F02A
:1034B80009E26A0E22EC08F0E7EC36F03106D8A0F3
:1034C8003206F0D7B10E3EEC08F0F0EC36F0100EF4
:1034D80038EC08F0F0EC36F02FC03FF0406AF0EC22
:1034E80036F0D950200A10E1F36AF46A000E3F6AF8
:1034F800406AE7EC36F0F34AF42A030EF35C000E58
:10350800F458D8B01200F2D7070E2CEC08F0FF0ED2
:10351800F324336EFF0E1BEC08F0D8B012006A0ECD
:1035280022EC08F0E7EC36F03106D8A03206EFD7E7
:10353800E8CFD9FFE00ED924F36EF46AFF0EF42227
:10354800F33AF43AF00EF416F3500F0BF412F00EAF
:10355800F3162C500608E16E2D508708306E30386F
:103568000F0B2E6E30500F0B2F6EB00EF0EC07F0D5
:10357800F0EC36F0100EEAEC07F0F0EC36F02FC065
:103588003FF0406AF0EC36F0D950200A0FE1316A7A
:10359800326A000E3F6A406AE7EC36F0314A322A56
:1035A800030E315C000E325814E2F3D70F0EE4EC30
:1035B80007F0070EF324336E000ED3EC07F009E290
:1035C8006A0EDAEC07F0E7EC36F03106D8A03206DE
:1035D800F0D7B10EF0EC07F0F0EC36F0100EEAEC94
:1035E80007F0F0EC36F02FC03FF0406AF0EC36F010
:1035F800D950200A10E1F36AF46A000E3F6A406A63
:10360800E7EC36F0F34AF42A030EF35C000EF458A4
:10361800D8B01200F2D7070EE4EC07F0FF0EF3243F
:10362800336EFF0ED3EC07F0D8B012006A0EDAEC56
:1036380007F0E7EC36F03106D8A03206EFD7E8CF2E
:10364800D9FFD950100D000EF3243A6E010EF42064
:103658003B6E30500608326E000ED8A0E82A0008EB
:10366800336E31507A08386E000ED8A0E82A000868
:10367800396E38C03CF039C03DF0040E3E6ED8902B
:103688003D323C323E2EFBD73CC034F03DC035F0D5
:103698000F0E3814366E376AB00E05EC09F0F0ECF0
:1036A80036F0100EFFEC08F0F0EC36F036C03FF0C4
:1036B80037C040F0F0EC36F00F0EF9EC08F0070ECA
:1036C8003A243C6E000ED8EC08F012E20001985142
:1036D80006E06A0EE9EC08F0E7EC36F005D06A0E71
:1036E800DFEC08F0E7EC36F0F306D8A0F406E7D7ED
:1036F800B10E05EC09F0F0EC36F0100EFFEC08F016
:10370800F0EC36F036C03FF037C040F0F0EC36F061
:10371800070EF9EC08F0FF0E3A243C6EFF0ED8ECC9
:1037280008F0D8B012000001985106E06A0EE9ECE2
:1037380008F0E7EC36F005D06A0EDFEC08F0E7ECAD
:1037480036F0F306D8A0F406E6D7E8CFD9FF640E22
:10375800326E000E336A78C030F079C031F026EC52
:1037680034F03050276E640E94EC07F0ACEC35F072
:1037780030C030F031C031F00A0E326E000E336ABC
:1037880026EC34F03050296E640E94EC07F0ACEC63
:1037980035F00A0E326E000E336AACEC35F030505C
:1037A800286ED9CF2AF026C02BF0275014E000014C
:1037B800B56B2BC02FF02AC02EF027C02CF02D6A35
:1037C800A4EC1DF02B500F0F81EC07F0A4EC1DF0BA
:1037D8002B501E0F36D029501DE00001B50511E011
:1037E800010EB56F800E7BEC07F093EC2FF0800E86
:1037F80075EC07F093EC2FF0800E65EC07F093EC76
:103808002FF02B50080F81EC07F0A4EC1DF02B5083
:10381800170F17D00001B551020A11E0020EB56F5B
:10382800800E7BEC07F093EC2FF0800E75EC07F020
:1038380093EC2FF0800E65EC07F093EC2FF02B50F3
:10384800120F2F6E2AC02EF028C02CF02D6AA4EF7C
:103858001DF0E8CFD9FF640E326E000E336A78C0CF
:1038680030F079C031F026EC34F03050296E640E17
:10387800D3EC0BF0ACEC35F030C030F031C031F0A7
:103888000A0E326E000E336A26EC34F030502B6E7E
:10389800640ED3EC0BF0ACEC35F00A0E326E000E71
:1038A800336AACEC35F030502A6ED9CF2CF028C0F2
:1038B8002DF0295013E0B56B2DC031F02CC030F03D
:1038C80029C02EF02F6AB6EC17F02D50120FB2EC6B
:1038D8000BF0B6EC17F02D50240F1DD02B5023E021
:1038E800B50511E0010EB56F800EACEC0BF093EC52
:1038F8002FF0800EA6EC0BF093EC2FF0800EA0ECCE
:103908000BF093EC2FF02D50090FB2EC0BF0B6EC46
:1039180017F02D501B0F316E2CC030F02AC02EF03E
:103928002F6AB6EF17F0B551020AF3E0020EB56F31
:10393800800EACEC0BF093EC2FF0800EA6EC0BF0A5
:1039480093EC2FF0800EA0EC0BF093EC2FF0E1D766
:10395800899CC80E236E000E246AE2EC35F0898C2F
:10396800C80E236E000E246AE2EC35F0E20E3F6EBC
:10397800000E406AF0EC36F0320E236E000E246A18
:10398800E2EC35F0A20E3F6E000E406AF0EC36F025
:10399800A10E3F6E000E406AF0EC36F0C00E3F6E8E
:1039A800000E406AF0EC36F02C0E3F6E000E406AB6
:1039B800F0EC36F0050E236E000E246AE2EC35F0CA
:1039C8002E0E3F6E000E406AF0EC36F0050E236EA8
:1039D800000E246AE2EC35F02F0E3F6E000E406AAE
:1039E800F0EC36F0320E236E000E246AE2EC35F06D
:1039F800250E3F6E000E406AF0EC36F0810E3F6EE9
:103A0800000E406AF0EC36F00C0E3F6E000E406A75
:103A1800F0EC36F00A0E236E000E246AE2EC35F064
:103A2800AC0E3F6E000E406AF0EC36F0000E3F6AB6
:103A3800406AF0EC36F0400E3F6E000E406AF0EC43
:103A480036F0AF0E3F6E000E406AF0EF36F0000120
:103A5800B12B94510F0BE16E9451C00BD96ED95014
:103A6800800A26E1996703D08B988B8A0AD099053A
:103A780003E1B5EC36F005D099510A0AD8B4B5EC93
:103A880036F0190E0001B16101D031D0320EB161AA
:103A980001D034D04B0EB16101D035D0640EB16184
:103AA80001D036D07D0EB16101D037D0B16B120094
:103AB800996703D08B988B9A35D0990503E1B5ECBB
:103AC80036F030D099510A0A2DE1B5EC36F02AD0FB
:103AD800330E0101142B146105D0660E216E060EFB
:103AE8000CEF27F0C90E142B0101146105D0660EE6
:103AF800216E060EA0EF20F0146B1200660E216EE8
:103B0800060EEDEF22F0660E216E060E8CEF22F007
:103B1800660E216E060E10EF24F0660E216E060E5C
:103B280071EF24F0E150010AE9E0030AECE0010A30
:103B3800EFE0070AF2E0010AE0E00F0AC9E012002C
:103B48002D0E386E000E396A2CC036F02DC037F0B5
:103B58002BEC36F036C030F037C031F02E50060866
:103B6800E96E2F507A08F36EF3380F0BD96EF350C5
:103B78000F0BE16EB00EB7EC0AF0F0EC36F0100E59
:103B8800B1EC0AF0F0EC36F0E1CF3FF0406AF0EC2F
:103B980036F030C0F3FF31C0F4FF0F0E9DEC0AF091
:103BA80008E23A0EA7EC0AF0E7EC36F0F34AF42AFA
:103BB800F4D7B10EB7EC0AF0F0EC36F0100EB1EC19
:103BC8000AF0F0EC36F0E1CF3FF0406AF0EC36F066
:103BD8000F0E91EC0AF01E0E9DEC0AF008E23A0E68
:103BE800A7EC0AF0E7EC36F0F34AF42AF4D7B20E61
:103BF800B7EC0AF0F0EC36F0100EB1EC0AF0F0EC8D
:103C080036F0E1CF3FF0406AF0EC36F01E0E91EC52
:103C18000AF02D0E9DEC0AF0D8B012003A0EA7EC6F
:103C28000AF0E7EC36F0F34AF42AF3D7CC4BCD2B65
:103C3800330EF6EC07F008E27D0E306E2F6A060EA2
:103C48002E6E000E93EF2FF0CC4BCD2BC90EF6EC59
:103C580007F05DE21E50D8B412001E50070AD8B40F
:103C680012004BD01D5005E0550E286E030E9BEF39
:103C78002AF00D0E2B6E030E2A6E480E286EFF0ECC
:103C880039D01D5005E0550E286E030E39EF2BF084
:103C9800180E2B6E030E2A6E890E286EFF0E2AD080
:103CA8001D5005E0550E286E030ED7EF2BF0180EA9
:103CB8002B6E030E2A6E380E286EFF0E296E1CEF2F
:103CC80035F0180E2B6E030E2A6ECA0E286EFF0EE4
:103CD80011D09905D8A412001D5005E0550E286E84
:103CE800030EEAEF2AF0140E2B6E030E2A6E630EF3
:103CF800286EFF0E296EFBEF34F07C51030AC1E0F9
:103D0800050AB0E0010ACCE00F0ADBE0E2D7CC6B91
:103D1800CD6B0101146B1200E8CFD9FFD950100DFB
:103D2800F3CFE9FF2E500608E16E2F507A08D96EBE
:103D3800D9380F0BF36ED9500F0BF46EB00E6BEC35
:103D48000AF0F0EC36F0100E65EC0AF0F0EC36F004
:103D5800F4CF3FF0406AF0EC36F0E9CFD9FFE9CF75
:103D680030F0316A080E3026000E3122D9CF32F0F9
:103D780043EC0AF012E20001985107E0D00ED92472
:103D880056EC0AF0E7EC36F006D0D00ED9244DEC0C
:103D98000AF0E7EC36F0D92AE2D7B10E6BEC0AF05C
:103DA800F0EC36F0100E65EC0AF0F0EC36F0F4CFDB
:103DB8003FF0406AF0EC36F0E950080FE16EE9CFC9
:103DC80030F0316A100E3026000E3122E1CF32F089
:103DD80043EC0AF0D8B012000001985107E0D00E69
:103DE800E12456EC0AF0E7EC36F006D0D00EE124D8
:103DF8004DEC0AF0E7EC36F0E12AE1D7E8CFE9FF2D
:103E0800E95009080C0DF3CFD9FF30500608F46EBD
:103E180031507A08E96EE9380F0BE16EE9500F0B63
:103E2800F36EB00EBCEC08F0F0EC36F0100EB6EC09
:103E380008F0F0EC36F0F3CF3FF0406AF0EC36F0E3
:103E4800D9CFE9FFD9CF32F0336A080E3226000EF7
:103E58003322E9CF34F0ACEC08F00DE200019851C0
:103E6800000E3F6E406E03E0E7EC36F002D0E7EC60
:103E780036F0E92AE7D7B10EBCEC08F0F0EC36F0E2
:103E8800100EB6EC08F0F0EC36F0F3CF3FF0406AD5
:103E9800F0EC36F0D950080FE16ED9CF32F0336A22
:103EA800100E3226000E3322E1CF34F0ACEC08F0CD
:103EB800D8B0120000019851000E3F6E406E03E02A
:103EC800E7EC36F002D0E7EC36F0E12AE6D7E8CFA7
:103ED800D9FFD95009080C0DF3CFE9FF3050060877
:103EE800E16E31507A08F46EF4380F0BF36EF4502B
:103EF8000F0BD96EB00EBAEC07F0F0EC36F0100EDE
:103F0800B4EC07F0F0EC36F0D9CF3FF0406AF0ECB3
:103F180036F0E9CFF4FFE9CF32F0336A060E3226E5
:103F2800000E3322F4CF34F0A2EC07F00DE20001CA
:103F38009851000E3F6E406E03E0E7EC36F002D079
:103F4800E7EC36F0F42AE7D7B10EBAEC07F0F0EC5C
:103F580036F0100EB4EC07F0F0EC36F0D9CF3FF0A5
:103F6800406AF0EC36F0E950060FF36EE9CF32F014
:103F7800336A0C0E3226000E3322F3CF34F0A2EC53
:103F880007F0D8B0120000019851000E3F6E406E45
:103F980003E0E7EC36F002D0E7EC36F0F32AE6D798
:103FA800565054C0E9FF08E055C0EAFFEE50EE1045
:103FB800ED100BE154C0E9FF55C0EAFFEE6AEE6A66
:103FC800ED6A000C562A67EC06F054C0E9FF55C0AC
:103FD800EAFFEE52EE52FE0EED140CE0F3D7562A2D
:103FE80054C0E9FF55C0EAFFEE2A000EEE22ED228A
:103FF80067EC06F054C0E9FF55C0EAFFEE52EE52F6
:10400800FF0EED140AE0EBD7560654C0E9FF55C081
:10401800EAFFD890EE36EE36ED3654C0E9FF55C0CB
:10402800EAFFEECF57F0EECF58F0EECF59F058AE8A
:10403800EBD756B00AD054C0E9FF55C0EAFFFF0ECF
:10404800EE167F0EEE16FF0EED16D890563256502D
:10405800596E586A576A54C0E9FF55C0EAFF57506D
:10406800EE125850EE125950ED121200355033C06E
:10407800E9FF08E034C0EAFFEE50EE10ED100BE166
:1040880033C0E9FF34C0EAFFEE6AEE6AED6A000C5D
:10409800352A1FEC0CF033C0E9FF34C0EAFFEE52BA
:1040A800EE52FE0EED140CE0F3D7352A33C0E9FFCB
:1040B80034C0EAFFEE2A000EEE22ED221FEC0CF0CF
:1040C80033C0E9FF34C0EAFFEE52EE52FF0EED14A2
:1040D8000AE0EBD7350633C0E9FF34C0EAFFD890D1
:1040E800EE36EE36ED3633C0E9FF34C0EAFFEECFE8
:1040F80036F0EECF37F0EECF38F037AEEBD735B03D
:104108000AD033C0E9FF34C0EAFFFF0EEE167F0E77
:10411800EE16FF0EED16D89035323550386E376AE8
:10412800366A33C0E9FF34C0EAFF3650EE12375022
:10413800EE123850ED121200E8CFF3FF236A246A1A
:10414800F3500608D96E21507408E96EE9380F0B50
:10415800226EE9500F0BE16EB00ED92411EC0AF073
:10416800F0EC36F0100E222411EC0AF0F0EC36F0E8
:10417800E1CF3FF0406AF0EC36F0F36AF46A180ECB
:10418800F3EC09F011E29E0EF324F66EF76AFD0EC9
:10419800F7220800F5CFE9FFE9CF3FF0406AE7ECE6
:1041A80036F0F34AF42AEBD7B10ED924E9EC09F03A
:1041B800F0EC36F0100E2224E9EC09F0F0EC36F0C1
:1041C800E1CF3FF0406AF0EC36F0180E2324F36E8E
:1041D800000E2420F46E300EF3EC09F0D8B0120073
:1041E8009E0EF324F66EF76AFD0EF7220800F5CF4F
:1041F800D9FFD9CF3FF0406AE7EC36F0F34AF42A0A
:10420800EAD794510F0B050A02E1D58101D0D59167
:104218007C5102E0D58301D0D59394C021F00F0ED4
:104228002116210402E1D58701D0D597D551010186
:10423800206102D00001A76B000194510F0B050A01
:1042480017E1070E1E6E01012A6F0A0E0001996F11
:10425800B5EC36F00101064B072BF50E065D010E95
:10426800075904E2010E10EC2DF02BD08B9429D0C5
:104278007C6702D0D9510FE07C51030A05E182A284
:1042880006D0C951040A03E0010E10EC2DF00A0E05
:104298000001996F16D01E50070AD8B41200945125
:1042A8000F0B0A0A09E1010E10EC2DF0010E0001B6
:1042B800996FB5EC36F005D0996BA76BEA6BEB6B91
:1042C8008B98D5C020F11200980E0001FC6F080EE3
:1042D800FD6F1150101031E0DC6712D00101296B1D
:1042E8001E512BE1004B012BC90E005D000E015938
:1042F80024E3006B016B000192919A6B9B6B1DD0BC
:104308000101006B016B292B0A0E296516D0296B58
:1043180000019A4B9B2B320E9A5D2A0E9B5905E39E
:10432800C80E9A6F320E9B6F08D09A51FC5D9B5154
:10433800FD5902E2928101D092910001C451C3114A
:1043480022E0FE4BFF2B410EFE5D1F0EFF5916E2C9
:10435800050EC35D000EC459D8A012001E50030AF2
:1043680007E18F6701D092878F0503E1976701D036
:104378009287C36BC46BFE6BFF6B1200C36BC46B7D
:10438800FE6BFF6B1200FE6BFF6B1200E8CFF3FFB2
:104398002A6A2B6AF3500608D96E28507408E96E09
:1043A800E9380F0B296EE9500F0BE16EB00E4DEC9A
:1043B8000BF0F0EC36F0100E47EC0BF0F0EC36F0AA
:1043C800E1CF3FF0406AF0EC36F0F36AF46A1F0E72
:1043D8002CEC0BF011E2240EF324F66EF76AFD0EB6
:1043E800F7220800F5CFE9FFE9CF3FF0406AE7EC94
:1043F80036F0F34AF42AEBD7B10E4DEC0BF0F0ECA3
:1044080036F0100E47EC0BF0F0EC36F0E1CF3FF051
:10441800406AF0EC36F01F0E2A24F36E000E2B20B3
:10442800F46E3E0E2CEC0BF0D8B01200240EF324E0
:10443800F66EF76AFD0EF7220800F5CFD9FFD9CF3F
:104448003FF0406AE7EC36F0F34AF42AEAD7E8CFBF
:10445800F3FF286A296AF3500608D96E26507408B3
:10446800E96EE9380F0B276EE9500F0BE16EB00EBD
:10447800D3EC0AF0F0EC36F0100ECDEC0AF0F0ECCC
:1044880036F0E1CF3FF0406AF0EC36F0F36AF46AB8
:10449800090EC3EC0AF011E20D0EF324F66EF76A6A
:1044A800FF0EF7220800F5CFE9FFE9CF3FF0406A99
:1044B800E7EC36F0F34AF42AEBD7B10ED3EC0AF066
:1044C800F0EC36F0100ECDEC0AF0F0EC36F0E1CF5F
:1044D8003FF0406AF0EC36F0090E2824F36E000E27
:1044E8002920F46E120EC3EC0AF0D8B012000D0E9B
:1044F800F324F66EF76AFF0EF7220800F5CFD9FF0E
:10450800D9CF3FF0406AE7EC36F0F34AF42AEAD70D
:10451800E8CFF3FF236A246AF3500608D96E2150C6
:104528007408E96EE9380F0B226EE9500F0BE16E43
:10453800B00ED2EC08F0F0EC36F0100ECCEC08F02F
:10454800F0EC36F0E1CF3FF0406AF0EC36F0F36A79
:10455800F46A180EC2EC08F011E2FE0EF324F66EAF
:10456800F76AFD0EF7220800F5CFE9FFE9CF3FF023
:10457800406AE7EC36F0F34AF42AEBD7B10ED2ECF6
:1045880008F0F0EC36F0100ECCEC08F0F0EC36F059
:10459800E1CF3FF0406AF0EC36F0180E2324F36EBA
:1045A800000E2420F46E300EC2EC08F0D8B01200D1
:1045B800FE0EF324F66EF76AFD0EF7220800F5CF1B
:1045C800D9FFD9CF3FF0406AE7EC36F0F34AF42A36
:1045D800EAD7E8CFF3FF236A246AF3500608D96EB6
:1045E80021507408E96EE9380F0B226EE9500F0B61
:1045F800E16EB00E19EC0CF0F0EC36F0100E13EC86
:104608000CF0F0EC36F0E1CF3FF0406AF0EC36F019
:10461800F36AF46A180E09EC0CF011E2CE0EF324DA
:10462800F66EF76AFD0EF7220800F5CFE9FFE9CF2D
:104638003FF0406AE7EC36F0F34AF42AEBD7B10EC4
:1046480019EC0CF0F0EC36F0100E13EC0CF0F0EC6A
:1046580036F0E1CF3FF0406AF0EC36F0180E232434
:10466800F36E000E2420F46E300E09EC0CF0D8B076
:104678001200CE0EF324F66EF76AFD0EF72208003C
:10468800F5CFD9FFD9CF3FF0406AE7EC36F0F34ACF
:10469800F42AEAD7E8CFF3FF2A6A2B6AF350060810
:1046A800D96E28507408E96EE9380F0B296EE95065
:1046B8000F0BE16EB00ED9EC06F0F0EC36F0100EF0
:1046C800D3EC06F0F0EC36F0E1CF3FF0406AF0ECC6
:1046D80036F0F36AF46A1E0EC2EC06F011E2620EBE
:1046E800F324F66EF76AFD0EF7220800F5CFE9FF0E
:1046F800E9CF3FF0406AE7EC36F0F34AF42AEBD70B
:10470800B10ED9EC06F0F0EC36F0100ED3EC06F052
:10471800F0EC36F0E1CF3FF0406AF0EC36F01E0ED8
:104728002A24F36E000E2B20F46E3C0EC2EC06F029
:10473800D8B01200620EF324F66EF76AFD0EF72267
:104748000800F5CFD9FFD9CF3FF0406AE7EC36F043
:10475800F34AF42AEAD7E8CFF3FF286A296AF35024
:104768000608D96E26507408E96EE9380F0B276ED3
:10477800E9500F0BE16EB00EEFEC06F0F0EC36F0FE
:10478800100EE9EC06F0F0EC36F0E1CF3FF0406AAD
:10479800F0EC36F0F36AF46A100EDFEC06F011E282
:1047A8008E0EF324F66EF76AFE0EF7220800F5CF98
:1047B800E9FFE9CF3FF0406AE7EC36F0F34AF42A24
:1047C800EBD7B10EEFEC06F0F0EC36F0100EE9EC9A
:1047D80006F0F0EC36F0E1CF3FF0406AF0EC36F04E
:1047E800100E2824F36E000E2920F46E200EDFEC44
:1047F80006F0D8B012008E0EF324F66EF76AFE0E9D
:10480800F7220800F5CFD9FFD9CF3FF0406AE7EC8F
:1048180036F0F34AF42AEAD7E8CFF3FF236A246A8A
:10482800F3500608D96E21507408E96EE9380F0B69
:10483800226EE9500F0BE16EB00E8FEC09F0F0EC30
:1048480036F0100E89EC09F0F0EC36F0E1CF3FF0CD
:10485800406AF0EC36F0F36AF46A180E7FEC09F05F
:1048680011E22E0EF324F66EF76AFE0EF722080008
:10487800F5CFE9FFE9CF3FF0406AE7EC36F0F34ABD
:10488800F42AEBD7B10E8FEC09F0F0EC36F0100EED
:1048980089EC09F0F0EC36F0E1CF3FF0406AF0EC3B
:1048A80036F0180E2324F36E000E2420F46E300E1A
:1048B8007FEC09F0D8B012002E0EF324F66EF76ADA
:1048C800FE0EF7220800F5CFD9FFD9CF3FF0406A96
:1048D800E7EC36F0F34AF42AEAD7E8CFF3FF236A85
:1048E800246AF3500608D96E21507408E96EE93835
:1048F8000F0B226EE9500F0BE16EB00E73EC09F04E
:10490800F0EC36F0100E6DEC09F0F0EC36F0E1CF7B
:104918003FF0406AF0EC36F0F36AF46A180E63EC84
:1049280009F011E25E0EF324F66EF76AFE0EF72226
:104938000800F5CFE9FFE9CF3FF0406AE7EC36F031
:10494800F34AF42AEBD7B10E73EC09F0F0EC36F029
:10495800100E6DEC09F0F0EC36F0E1CF3FF0406A54
:10496800F0EC36F0180E2324F36E000E2420F46EBB
:10497800300E63EC09F0D8B012005E0EF324F66E28
:10498800F76AFE0EF7220800F5CFD9FFD9CF3FF01E
:10499800406AE7EC36F0F34AF42AEAD7E8CFD9FFC1
:1049A800640E326E000E336A27C030F028C031F032
:1049B80026EC34F03050296E640EACEC07F0ACEC09
:1049C80035F030C030F031C031F00A0E326E000ED2
:1049D800336A26EC34F030502B6E640EACEC07F0E2
:1049E800ACEC35F00A0E326E000E336AACEC35F0E2
:1049F80030502A6ED9CF2CF026C02DF029500DE06A
:104A08002DC02FF02CC02EF0295090EC1EF02D5008
:104A18009CEC07F090EC1EF019D02B502DC031F013
:104A28002CC030F0000E08E002EC1FF02D509CEC7A
:104A380007F090EC1EF00AD002EC1FF02D50080F82
:104A4800316E2CC030F0000E02EC1FF02D50100F0C
:104A58002F6E2CC02EF02A5090EF1EF0E8CFD9FF11
:104A6800640E326E000E336A29C030F02AC031F06D
:104A780026EC34F030502B6E640E27EC07F0ACECCB
:104A880035F030C030F031C031F00A0E326E000E11
:104A9800336A26EC34F030502D6E640E27EC07F0A4
:104AA800ACEC35F00A0E326E000E336AACEC35F021
:104AB80030502C6ED9CF2EF028C02FF02B500DE09F
:104AC8002FC031F02EC030F02B5023EC1BF02F50AC
:104AD80021EC07F023EC1BF019D02D502FC031F03A
:104AE8002EC030F0000E08E002EC1FF02F5021EC31
:104AF80007F023EC1BF00AD002EC1FF02F50080F30
:104B0800316E2EC030F0000E02EC1FF02F50100F47
:104B1800316E2EC030F02C5023EF1BF0E8CFD9FFB8
:104B2800640E326E000E336A29C030F02AC031F0AC
:104B380026EC34F030502B6E640E3BEC0AF0ACECF3
:104B480035F030C030F031C031F00A0E326E000E50
:104B5800336A26EC34F030502D6E640E3BEC0AF0CC
:104B6800ACEC35F00A0E326E000E336AACEC35F060
:104B780030502C6ED9CF2EF028C02FF02B500DE0DE
:104B88002FC031F02EC030F02B500AEC17F02F5008
:104B980030EC0AF00AEC17F019D02D502FC031F084
:104BA8002EC030F0000E08E06BEC1FF02F5030ECF8
:104BB8000AF00AEC17F00AD06BEC1FF02F50060F22
:104BC800316E2EC030F0000E6BEC1FF02F500C0F22
:104BD800316E2EC030F02C500AEF17F0F4CF44F0AD
:104BE800A1A249D0A192FC0E7B6E170E7A6E20EC22
:104BF80037F0172B01011751050A03E1176B75EC04
:104C08002CF00101182B040E186515D00001A329FA
:104C1800D8B4A429D8B4A529D8B4A62906E0A32BCA
:104C2800000EA423A523A62304D0A36BA46BA56B15
:104C3800A66B0101186B0001DC511AE0DB2B010E99
:104C480001012F6F0001DB5101011D5D09E3000126
:104C58008F0504E18F0519E1976717D08B8E15D062
:104C68000A0E0001DB6102D08B9E0FD0DB6B0DD0EA
:104C78008B9E0001FBD7F2A408D0F294010E01012B
:104C8800226FD80ED76EEF0ED66E44C0F4FF43C025
:104C9800F3FF42C0EAFF41C0E9FF1100E8CFF4FF8B
:104CA800276A286AF4500608F36E26507408E96EDD
:104CB800E9380F0BD96EE9500F0BE16EB00E88EC96
:104CC8000BF0F0EC36F0100E82EC0BF0F0EC36F056
:104CD800E1CF3FF0406AF0EC36F0296A2A6A090E03
:104CE80027242B6E000E28202C6E2B50295C2C506C
:104CF8002A5808E2000E3F6A406AE7EC36F0294A73
:104D08002A2AEDD7B10E88EC0BF0F0EC36F0100E35
:104D180082EC0BF0F0EC36F0E1CF3FF0406AF0ECBB
:104D280036F0090E2724F36E000E2820F46E120EBA
:104D380027242B6E000E28202C6E2B50F35C2C5051
:104D4800F458D8B01200000E3F6A406AE7EC36F01B
:104D5800F34AF42AECD7E8CFF4FF236A246AF45024
:104D68000608F36E22507408E96EE9380F0BD96E05
:104D7800E9500F0BE16EB00E1BEC07F0F0EC36F0CB
:104D8800100E15EC07F0F0EC36F0E1CF3FF0406A7A
:104D9800F0EC36F0256A266A100E2324276E000EE2
:104DA8002420286E2750255C2850265808E2000E3B
:104DB8003F6A406AE7EC36F0254A262AEDD7B10E5D
:104DC8001BEC07F0F0EC36F0100E15EC07F0F0ECE9
:104DD80036F0E1CF3FF0406AF0EC36F0100E2324B5
:104DE800F36E000E2420F46E200E2324276E000E8E
:104DF8002420286E2750F35C2850F458D8B01200AD
:104E0800000E3F6A406AE7EC36F0F34AF42AECD722
:104E1800E8CFF4FF226A236AF4500608F36E2150A3
:104E28007408E96EE9380F0BD96EE9500F0BE16E83
:104E3800B00E5DEC09F0F0EC36F0100E57EC09F00E
:104E4800F0EC36F0E1CF3FF0406AF0EC36F0246A3F
:104E5800256A160E2224266E000E2320276E265061
:104E6800245C2750255808E2000E3F6A406AE7ECA8
:104E780036F0244A252AEDD7B10E5DEC09F0F0ECA6
:104E880036F0100E57EC09F0F0EC36F0E1CF3FF0B9
:104E9800406AF0EC36F0160E2224F36E000E232042
:104EA800F46E2C0E2224266E000E2320276E265028
:104EB800F35C2750F458D8B01200000E3F6A406ADD
:104EC800E7EC36F0F34AF42AECD7E8CFE1FFE96AD9
:104ED800E1500608276E26507A08D96ED9380F0B8C
:104EE800F36ED9500F0BF46EB00EBCEC06F0F0EC7C
:104EF80036F0100EB6EC06F0F0EC36F0F4CF3FF0DA
:104F0800406AF0EC36F0D96AE9CF28F0296A100E29
:104F18002826000E2922D9CF2AF0A3EC06F008E2B1
:104F2800AE0ED924ADEC06F0E7EC36F0D92AECD772
:104F3800B10EBCEC06F0F0EC36F0100EB6EC06F054
:104F4800F0EC36F0F4CF3FF0406AF0EC36F0E95080
:104F5800100FE16EE9CF28F0296A200E2826000EEE
:104F68002922E1CF2AF0A3EC06F0D8B01200AE0E49
:104F7800E124ADEC06F0E7EC36F0E12AEBD70001CE
:104F8800926B946BC1C088F0C1C02EF18851020A9F
:104F980008E08851030A05E088510A0A02E0020E77
:104FA800886F8851020A02E1D06B0AD08851030A3F
:104FB80002E1010E04D088510A0A02E1020ED06F04
:104FC800EEC01FF0EFC020F01FC010F020C011F09D
:104FD800C90E105C000E115807E37D0E1F6E206A83
:104FE8001FC010F020C011F01B50105C1C5011584D
:104FF80003E2280E1B6E1C6AF0C074F0F1C075F055
:10500800640E745D000E755903E3050E746F756BBD
:10501800ECC076F0EDC077F0640E765D000E77593F
:10502800D8A01200020E766F776B000C516A526A94
:10503800536A4F0E566E000E576E470E546E000E92
:10504800556E85EC32F04E6E4F6602D0CCEF06F00E
:105058004D0E566E000E576E4A0E546E000E556E6B
:1050680085EC32F0506E4D6602D0CCEF06F04D5014
:10507800890F4F5E50504E1A180E506ED890513608
:10508800523653364A50475C4B5048584C50495852
:1050980007E34A50475E4B50485A4C50495A518092
:1050A800D890473648364936502EE8D74FC056F084
:1050B800510E546E000E556ED4EC1FF04E50D8A40D
:1050C800538E51C047F052C048F053C049F0120007
:1050D800306A316A326A2E0E356E000E366E260E32
:1050E800336E000E346EBCEC32F02D6E2E6602D09C
:1050F8000BEF09F02C0E356E000E366E290E336E4E
:10510800000E346EBCEC32F02F6E2C6602D00BEF22
:1051180009F02C50890F2E5E2F502D1A180E2F6E65
:10512800D8903036313632362950265C2A502758E6
:105138002B50285807E32950265E2A50275A2B500F
:10514800285A3080D8902636273628362F2EE8D78A
:105158002EC035F0300E336E000E346E3AEC20F06F
:105168002D50D8A4328E30C026F031C027F032C07E
:1051780028F01200E8CF4BF04D6A4E6A4B50F3EC22
:1051880032F001010A51020D820EF324E96EEA6A37
:10519800000EEA224FC0EEFF50C0EDFF0A2B0A5165
:1051A800030AD8B40A6B4C6A4C50020D0001820EF7
:1051B800F324E96EEA6A000EEA22EE504D26ED501D
:1051C8004E224C2A020E4C64EFD7030E516E000E8D
:1051D800526A4DC04FF04EC050F051EC30F04FC005
:1051E8004DF050C04EF04E50800A7C0F000ED8B4DF
:1051F8004D5C03E34D68030E4E6E4E50800A800FDF
:10520800010ED8B44D5C02E24D6A4E6A4DC049F0B9
:105218004EC04AF01200E8CF4BF04D6A4E6A4B5030
:10522800F3EC32F001010D51020D300EF324E96E5A
:10523800EA6A010EEA224FC0EEFF50C0EDFF0D2BC7
:105248000D510A0AD8B40D6B4C6A4C50020D300E41
:10525800F324E96EEA6A010EEA22EE504D26ED507B
:105268004E224C2A090E4C64F0D70A0E516E000EDD
:10527800526A4DC04FF04EC050F051EC30F04FC064
:105288004DF050C04EF04E50800A7C0F000ED8B43E
:105298004D5C03E34D68030E4E6E4E50800A800F3E
:1052A800010ED8B44D5C02E24D6A4E6A4DC049F019
:1052B8004EC04AF01200E8CFF3FF286A296AF3507B
:1052C8000608276E26507A08E96EE9380F0BD96E62
:1052D800E9500F0BE16EB00E8BEC0AF0F0EC36F0F3
:1052E800100E85EC0AF0F0EC36F0E1CF3FF0406AA2
:1052F800F0EC36F0F36AF46A2E0E71EC0AF008E26C
:105308006C0E7BEC0AF0E7EC36F0F34AF42AF4D79B
:10531800B10E8BEC0AF0F0EC36F0100E85EC0AF0CA
:10532800F0EC36F0E1CF3FF0406AF0EC36F02E0EAC
:105338002824F36E000E2920F46E5C0E71EC0AF03E
:10534800D8B012006C0E7BEC0AF0E7EC36F0F34AAA
:10535800F42AF3D7E8CFF3FF2A6A2B6AF35006083A
:10536800296E28507A08E96EE9380F0BD96EE95092
:105378000F0BE16EB00E15EC08F0F0EC36F0100EE5
:105388000FEC08F0F0EC36F0E1CF3FF0406AF0ECBB
:1053980036F0F36AF46A2E0EFBEC07F008E2C80E4A
:1053A80005EC08F0E7EC36F0F34AF42AF4D7B10E2E
:1053B80015EC08F0F0EC36F0100E0FEC08F0F0ECFD
:1053C80036F0E1CF3FF0406AF0EC36F02E0E2A249A
:1053D800F36E000E2B20F46E5C0EFBEC07F0D8B0D9
:1053E8001200C80E05EC08F0E7EC36F0F34AF42A90
:1053F800F3D7E8CFF3FF286A296AF3500608276E27
:1054080026507A08E96EE9380F0BD96EE9500F0B70
:10541800E16EB00E5FEC07F0F0EC36F0100E59ECD0
:1054280007F0F0EC36F0E1CF3FF0406AF0EC36F0F0
:10543800F36AF46A100E45EC07F008E2CE0E4FEC62
:1054480007F0E7EC36F0F34AF42AF4D7B10E5FEC34
:1054580007F0F0EC36F0100E59EC07F0F0EC36F0EF
:10546800E1CF3FF0406AF0EC36F0100E2824F36EDE
:10547800000E2920F46E200E45EC07F0D8B012007B
:10548800CE0E4FEC07F0E7EC36F0F34AF42AF3D7E8
:10549800E8CFF3FF286A296AF3500608276E2650DA
:1054A8007A08E96EE9380F0BD96EE9500F0BE16EF7
:1054B800B00E0FEC07F0F0EC36F0100E09EC07F028
:1054C800F0EC36F0E1CF3FF0406AF0EC36F0F36AEA
:1054D800F46A300EF5EC06F008E20C0EFFEC06F06C
:1054E800E7EC36F0F34AF42AF4D7B10E0FEC07F0E4
:1054F800F0EC36F0100E09EC07F0F0EC36F0E1CFE6
:105508003FF0406AF0EC36F0300E2824F36E000EBF
:105518002920F46E600EF5EC06F0D8B012000C0EDF
:10552800FFEC06F0E7EC36F0F34AF42AF3D7E8CFBD
:10553800F3FF2A6A2B6AF3500608296E28507A0866
:10554800E96EE9380F0BD96EE9500F0BE16EB00E1A
:105558004CEC09F0F0EC36F0100E46EC09F0F0ECEB
:1055680036F0E1CF3FF0406AF0EC36F0F36AF46AC7
:10557800360E32EC09F008E2A00E3CEC09F0E7EC3C
:1055880036F0F34AF42AF4D7B10E4CEC09F0F0ECFB
:1055980036F0100E46EC09F0F0EC36F0E1CF3FF0B3
:1055A800406AF0EC36F0360E2A24F36E000E2B20FB
:1055B800F46E6C0E32EC09F0D8B01200A00E3CEC80
:1055C80009F0E7EC36F0F34AF42AF3D7E8CFF3FF13
:1055D8002A6A2B6AF3500608296E28507A08E96E61
:1055E800E9380F0BD96EE9500F0BE16EB00E2CECB9
:1055F80009F0F0EC36F0100E26EC09F0F0EC36F07D
:10560800E1CF3FF0406AF0EC36F0F36AF46A360E08
:1056180012EC09F008E2C80E1CEC09F0E7EC36F0D1
:10562800F34AF42AF4D7B10E2CEC09F0F0EC36F07A
:10563800100E26EC09F0F0EC36F0E1CF3FF0406AAE
:10564800F0EC36F0360E2A24F36E000E2B20F46EA2
:105658006C0E12EC09F0D8B01200C80E1CEC09F060
:10566800E7EC36F0F34AF42AF3D7E8CFF3FF2A6AD7
:105678002B6AF3500608296E28507A08E96EE93833
:105688000F0BD96EE9500F0BE16EB00EA6EC08F0C7
:10569800F0EC36F0100EA0EC08F0F0EC36F0E1CFAC
:1056A8003FF0406AF0EC36F0F36AF46A360E8CECA0
:1056B80008F008E2340E96EC08F0E7EC36F0F34A0E
:1056C800F42AF4D7B10EA6EC08F0F0EC36F0100E80
:1056D800A0EC08F0F0EC36F0E1CF3FF0406AF0ECD7
:1056E80036F0360E2A24F36E000E2B20F46E6C0E64
:1056F8008CEC08F0D8B01200340E96EC08F0E7EC09
:1057080036F0F34AF42AF3D7E8CFF3FF286A296A78
:10571800F3500608276E26507A08E96EE9380F0B11
:10572800D96EE9500F0BE16EB00EDBEC0BF0F0EC2C
:1057380036F0100ECDEC0BF0F0EC36F0E1CF3FF088
:10574800406AF0EC36F0F36AF46A3A0EB9EC0BF002
:1057580008E2E80EC3EC0BF0E7EC36F0F34AF42A63
:10576800F4D7B10EDBEC0BF0F0EC36F0100ECDEC0C
:105778000BF0F0EC36F0E1CF3FF0406AF0EC36F099
:105788003A0E2824F36E000E2920F46E740EB9EC3C
:105798000BF0D8B01200E80EC3EC0BF0E7EC36F0D3
:1057A800F34AF42AF3D7E8CFF3FF2A6A2B6AF350B7
:1057B8000608296E28507A08E96EE9380F0BD96E69
:1057C800E9500F0BE16EB00E86EC08F0F0EC36F005
:1057D800100E80EC08F0F0EC36F0E1CF3FF0406AB4
:1057E800F0EC36F0F36AF46A360E6CEC08F008E276
:1057F8005C0E76EC08F0E7EC36F0F34AF42AF4D7BE
:10580800B10E86EC08F0F0EC36F0100E80EC08F0E3
:10581800F0EC36F0E1CF3FF0406AF0EC36F0360EAF
:105828002A24F36E000E2B20F46E6C0E6CEC08F03C
:10583800D8B012005C0E76EC08F0E7EC36F0F34ACC
:10584800F42AF3D7E8CF27F0F36AF46A275006085A
:10585800286E26507A08E96EE9380F0BD96EE950A0
:105868000F0BE16EB00E3FEC07F0F0EC36F0100EC7
:1058780039EC07F0F0EC36F0E1CF3FF0406AF0EC9D
:1058880036F0296A2A6A100E2FEC07F008E2000E9B
:105898003F6A406AE7EC36F0294A2A2AF4D7B10E63
:1058A8003FEC07F0F0EC36F0100E39EC07F0F0ECB6
:1058B80036F0E1CF3FF0406AF0EC36F0100EF324FA
:1058C800296E000EF4202A6E200E2FEC07F0D8B0B7
:1058D8001200000E3F6A406AE7EC36F0294A2A2A8D
:1058E800F3D73AD00001FE6BFF6BC36BC46B9A6BA6
:1058F8009B6B12008A908A920001929192939295E2
:1059080092979299929D929F9A6B9B6B120054EF7B
:1059180018F000019705D8B412009751020AD8B4BC
:10592800120054EC18F054EF18F012008A908A9282
:10593800000192919293929592979299929D929F3B
:10594800FE6BFF6BC36BC46B9A6B9B6B14EF37F0EA
:105958008A908A9214EF37F01E50C4E0010ACAE018
:10596800030AD5E0010AD5E0070AE0E0010ADEE013
:10597800030ADBE0010AECE00D0AC9E01200506AF4
:10598800516A526A4E0E566E000E576E470E546E8E
:10599800000E556E85EC32F04D6E4F0E566E000EB1
:1059A800576E4A0E546E000E556E85EC32F04D1A45
:1059B8004F5002E04E6602D097EF06F04F507B0F33
:1059C8004E26070E4F6E47B090EC06F0D89049323D
:1059D80048324732D8904A364B364C364F2EF3D79A
:1059E800090E4F6E47B090EC06F0D8904932483215
:1059F8004732D8905232513250324F2EF3D74EC0E0
:105A080056F0500E546E000E556ED4EC1FF04D50EB
:105A1800D8A4528E97EF06F01A501C0A14E101011F
:105A28000C6711D0010E0C6FFF0E0001A71FEA6B67
:105A3800EB6B01012C6B0001A76705D0190E226ED4
:105A4800060EAFEC26F01A509C0A19E101010C670A
:105A580016D0010E0C6F0001A71FEA6BEB6BA75164
:105A680004E0010E01012C6F02D001012C6B000132
:105A7800A76705D0190E226E060EAFEC26F00001BE
:105A8800A75115E001012C51D8A412000001EA4BDE
:105A9800EB2B9A0EEA5D3A0EEB59D8A01200A76BD1
:105AA800EA6BEB6B190E226E060EAFEF26F0AAEF2B
:105AB8002DF02A6A2B6A2C6A280E356E000E366E77
:105AC800210E336E000E346EBCEC32F0276E290EB8
:105AD800356E000E366E240E336E000E346EBCEC3E
