:020000040000FA
:1000000082EF00F0FF00FF005C82D9CF40F0DACF32
:1000100041F0F3CF42F0F4CF43F0F6CF44F0F7CF06
:1000200045F0F8CF46F0F5CF47F0A1A24FD0A15050
:10003000FD0BA16EFC0E7B6E170E7A6EF7EC47F08F
:1000400000018C2B050E8C19D8A403D08C6BC8EC46
:100050003CF000018A2B040E8A651BD0010158294F
:1000600007E1592905E15A2903E15B29D8B407D0F2
:10007000010E5827000E59235A235B2308D0000E87
:10008000586F000E596F000E5A6F000E5B6F000123
:100090008A6BC051D8B417D08B2B010EBD6F8B511A
:1000A000BA5DD8A00BD05904D8A406D05904D8A45E
:1000B00017D05850D8A414D08B8E12D00A0E8B6152
:1000C00003D08B9E0DD08B9E8B6B0AD0F2A408D0F0
:1000D000F294010E00019C6FD80ED76EEF0ED66E13
:1000E00047C0F5FF46C0F8FF45C0F7FF44C0F6FF24
:1000F00043C0F4FF42C0F3FF41C0DAFF40C0D9FF64
:100100005C92110002EF43F05BEF08F00001B06B6E
:10011000000E716F000E706F596A000E01019D6F25
:10012000000E9C6F81503C0B1C0AD8A427D08C5128
:100130000001F16F01018D510001F26F01018C4B43
:100140008D2B0001F25104E1650EF15DD8A016D0AF
:10015000100E01018C5D270E8D59D8B00FD0270EDF
:100160008D6F100E8C6F00017C517D11D8B402D0C0
:10017000000E01D0800E7D6F000E7C6F4850000194
:10018000F16F4950F26F484A492A5E0EF15D010E47
:10019000F259D8A024D0010E5B6E000E496E000EFD
:1001A000486E546AA66BB3EC47F0000E0101976FDE
:1001B000000E966F0001A06B010EA46F81EC45F05C
:1001C0004EC084F04FC085F0000E01015C6F000E40
:1001D0005D6F000E5E6F000E5F6F5A9812004950FF
:1001E00004E1FA0E485CD8A003D0F5EC41F012000F
:1001F000495004E1330E485CD8A023D0495013E1A4
:10020000340E485CD8B00FD01E0E9F6107D0000E90
:10021000496E000E486E8B949F6B12008CEC32F08E
:100220008B848B868A82E4EC47F0A2EC33F0495051
:1002300004E13F0E485CD8A002D08996120089865E
:10024000120081503C0B380AD8A4E6D79F2B12002D
:100250000001B86B000E01019F6F000E9E6F8A9225
:10026000596A000E5C6F000E5D6F000E5E6F000E2F
:100270005F6F5A98000EA76F000EA66F0001B05175
:10028000D8A41200A005D8B41200380EA619D8A41C
:1002900003D0A2C05BF01200340EA619D8A412003D
:1002A000040E5B6E78C04CF079C04DF0120078C03F
:1002B0004CF079C04DF0000E0001716F000E706FB0
:1002C000596A020EA26FA005D8B41200380EA61902
:1002D000D8A424D1050E5B6E12005950D8A442D088
:1002E00078C04CF079C04DF048500001F16F495092
:1002F000F26F484A492AF25104E1320EF15DD8A06A
:10030000F9D0000E496E000E486E704B712B3C0EFA
:100310007403F3CFF1F0F4CFF2F07503F350F2274A
:10032000F151705DF2517159D8A0E4D0B86B000E54
:1003300001019F6F000E9E6F0001B86B5A98000E6E
:1003400001019B6F000E9A6F010E586E000E0001A6
:100350006B6F000E6A6F000E716F000E706F010EF2
:10036000596EC8D05904D8A4C5D076C04CF077C017
:100370004DF04E500001845D4F508559D8B02AD0C1
:1003800084514E5CF16F85514F58F26FF1C0CAF045
:10039000F2C0CBF0CC6BCD6B000E70EC2EF0CAC06F
:1003A000D8F0CBC0D9F0CCC0DAF0CDC0DBF060C063
:1003B000DCF061C0DDF062C0DEF063C0DFF024EC91
:1003C0001FF0D8C060F1D9C061F1DAC062F1DBC0C2
:1003D00063F109D0000E0101606F000E616F000E25
:1003E000626F000E636F60C1E3F061C1E4F062C14F
:1003F000E5F063C1E6F091EC3DF0E3C04AF0E4C003
:100400004BF05804D8A434D06A51F16F6B51F26F9D
:100410006A4B6B2BF25104E10C0EF15DD8A024D095
:100420008A926B5104E14B0E6A5DD8A01ED04CC07D
:10043000D6F04DC0D7F002EC47F07E514C24F16F5E
:100440007F514D20F26F4A50F15D4B50F259D8A0C8
:1004500006D0020E586E000E496E000E486E000E59
:100460006B6F000E6A6F01D08A82B86B5A9842D0C7
:100470006A51F16F6B51F26F6A4B6B2BF30EF15DAA
:10048000010EF259D8A036D0586A4850F16F495041
:10049000F26F484A492AF25104E1320EF15DD8A0C8
:1004A00025D0000E496E000E486E704B712B3C0E2D
:1004B0007203F3CFF1F0F4CFF2F07303F350F227AD
:1004C000F151705DF2517159D8A010D0B86B000E87
:1004D00001019F6F000E9E6F000E0001716F000EF4
:1004E000706F596A78C04CF079C04DF0010E6B6F97
:1004F000F30E6A6F030E0001A26FA005D8B41200BC
:10050000380EA619D8A40AD0596A000E496E000EFA
:10051000486E000E716F000E706FDCD6B40EBDD643
:100520005950D8A42DD078C04CF079C04DF0485027
:100530000001F16F4950F26F484A492AF25104E133
:10054000320EF15DD8A04ED0000E496E000E486EFE
:10055000704B712B3C0E7403F3CFF1F0F4CFF2F03B
:100560007503F350F227F151705DF2517159D8A023
:1005700039D0000E716F000E706F010E596E32D0BF
:100580005904D8A42FD076C04CF077C04DF0485015
:100590000001F16F4950F26F484A492AF25104E1D3
:1005A000320EF15DD8A01ED0000E496E000E486ECE
:1005B000704B712B3C0E7203F3CFF1F0F4CFF2F0DD
:1005C0007303F350F227F151705DF2517159D8A0C5
:1005D00009D0000E716F000E706F596A78C04CF030
:1005E00079C04DF00A0E0001A26FA005D8B4120028
:1005F000040EA319D8B41200380EA619D8B46AD6BE
:100600008DD70001B86B000E01019F6F000E9E6F29
:100610008B9E000EA76F000EA66F596A0001A00501
:10062000D8B41200380EA619D8A403D0A2C05BF02B
:100630000FD0B40EA619D8A407D0040E5B6E78C0F4
:100640004CF079C04DF004D0040EA619D8B49E1F0A
:10065000000E01015C6F000E5D6F000E5E6F000EFC
:100660005F6F5A98586A1200000E01015C6F000E0D
:100670005D6F000E5E6F000E5F6F5A98000EA76FE1
:10068000000EA66F5350D8A455D00001A851D8A48D
:1006900018D0020E526E340EA619D8A405D0010E41
:1006A000A86F030E526E12002C0EA619D8B4F7D7FD
:1006B000380EA619D8A41200010E536E81EC45F035
:1006C0001200A805D8A40FD0030E526E340EA6193E
:1006D000D8A404D0A86B020E526E12002C0EA619DC
:1006E000D8B4F8D7E5D7020EA819D8A412000A0E7C
:1006F000526E340EA619D8A40BD0A86B020ECC6F84
:10070000000ECD6F800ECE6F000EACEC41F0E3D743
:100710002C0EA619D8A4CCD7010EA86F020ECC6F50
:10072000000ECD6F800ECE6F000EACEC41F0030ECC
:10073000526E12005304D8A419D1020E5218D8A434
:1007400095D0340E0001A619D8A41AD00A0E4C2454
:100750004C6E000E4D204D6E2D0E4C5C010E4D5812
:10076000D8A004D0000E4D6E140E4C6E060ECC6F49
:10077000000ECD6F800ECE6F040EACEC41F0DFD0DA
:100780002C0EA619D8A41AD0F60E4C244C6EFF0ECF
:100790004D204D6E4D5008E1140E4C5CD8B004D085
:1007A000010E4D6E2C0E4C6E060ECC6F000ECD6FF2
:1007B000800ECE6F040EACEC41F0C1D0AC0EA61989
:1007C000D8A422D0512A5104F16F140EF16101D046
:1007D0001200516AF60E4C244C6EFF0E4D204D6EE9
:1007E0004D5008E1140E4C5CD8B004D0000E4D6E94
:1007F000140E4C6E060ECC6F000ECD6F800ECE6FB9
:10080000040EACEC41F09BD0B40EA619D8A422D0B3
:10081000512A5104F16F140EF16101D01200516A96
:100820000A0E4C244C6E000E4D204D6E2D0E4C5C6D
:10083000010E4D58D8A004D0010E4D6E2C0E4C6EFA
:10084000060ECC6F000ECD6F800ECE6F040EACEC9A
:1008500041F075D0380EA619D8A471D0536A52C091
:10086000A2F0050E5B6E81EC45F069D0340E0001FC
:10087000A619D8A410D00A0E4C244C6E000E4D20A0
:100880004D6E2D0E4C5C010E4D58D8A058D0000E68
:100890004D6E140E13D02C0EA619D8A411D0F60E3E
:1008A0004C244C6EFF0E4D204D6E4D5048E1140E01
:1008B0004C5CD8B044D0010E4D6E2C0E4C6E3FD027
:1008C000AC0EA619D8A415D0512A5104F16F140EFC
:1008D000F16101D01200516AF60E4C244C6EFF0EED
:1008E0004D204D6E4D502BE1140E4C5CD8A0CFD74F
:1008F00026D0B40EA619D8A415D0512A5104F16FF0
:10090000140EF16101D01200516A0A0E4C244C6E93
:10091000000E4D204D6E2D0E4C5C010E4D58D8B082
:10092000CAD70DD0380EA619D8A409D0030E521874
:10093000D8A402D0020E01D0030E536E94D70A0E33
:100940007625F16F000E7721F26FF1514C5CF25178
:100950004D58D8B006D0F60E4C24766FFF0E4D20C1
:10096000776F4CC078F04DC079F01200020E53182A
:10097000D8A4A4D0340E0001A619D8A42FD00A0EF2
:100980007625766F000E7721776F775110E1650E2F
:10099000765DD8B00CD0F60E4C24F16FFF0E4D20D2
:1009A000F26F7651F15D7751F259D8B004D0000E54
:1009B000776F0A0E766FF60E4C24F16FFF0E4D2006
:1009C000F26FF151765DF2517759D8A062D0F60EF0
:1009D0004C24766FFF0E4D20776F5BD02C0EA6193E
:1009E000D8A41FD0F60E7625766FFF0E7721776F8D
:1009F000F60E4C24F16FFF0E4D20F26FF151765D33
:100A0000F2517759D8A006D0F60E4C24766FFF0E1F
:100A10004D20776F77513DE10A0E765DD8A0D7D78C
:100A200038D0AC0EA619D8A41BD0512A5104F16FAE
:100A3000140EF16101D01200516AF60E7625766F20
:100A4000FF0E7721776FF60E4C24F16FFF0E4D20CD
:100A5000F26FF151765DF2517759D8B0B8D719D00D
:100A6000B40EA619D8A40DD0512A5104F16F140E5A
:100A7000F16101D01200516A0A0E7625766F000EE0
:100A8000E0D7380EA619D8A404D081EC45F0030EA7
:100A9000536E775104E1650E765DD8A004D0000E48
:100AA000776F640E766F775103E10A0E765DD8B0EA
:100AB0001200000E776F0A0E766F1200030E5318A5
:100AC000D8A469D0340E0001A619D8A411D074514D
:100AD000F16F7551F26F744B752BF25104E1630E97
:100AE000F15DD8A01200000E756F010E746F120038
:100AF0002C0EA619D8A413D07451F16F7551F26F52
:100B0000010E745F000E755BF25103E1020EF15DA0
:100B1000D8B01200000E756F630E746F1200AC0E29
:100B2000A619D8A417D0512A5104F16F140EF161FF
:100B300001D01200516A050E745F000E755B75518D
:100B4000D2E1640E745DD8B0CED774517511D8A4BB
:100B50001200C9D7B40EA619D8A417D0512A51042F
:100B6000F16F140EF16101D01200516A050E742765
:100B7000000E75237551CEE1640E745DD8B0CAD7EE
:100B800074517511D8A41200C5D7380EA619D8A46F
:100B90001200040E92D5040E5318D8A47ED0340E41
:100BA0000001A619D8A411D07251F16F7351F26FE0
:100BB000724B732BF25104E1630EF15DD8A0120069
:100BC000000E736F010E726F12002C0EA619D8A4BE
:100BD00013D07251F16F7351F26F010E725F000EFC
:100BE000735BF25103E1020EF15DD8B01200000E0A
:100BF000736F630E726F1200AC0EA619D8A417D0D3
:100C0000512A5104F16F140EF16101D01200516AA2
:100C1000FB0E7225726FFF0E7321736F7251731189
:100C2000D8B4CED77351CCE1640E725DC7D7B40E81
:100C3000A619D8A415D0512A5104F16F140EF161F0
:100C400001D01200516A050E7225726F000E7321D9
:100C5000736F7351CCE1630E725DD8A01200C7D7D9
:100C6000380EA619D8A41200536A52C0A2F0050E7D
:100C70005B6E000E496E000E486E000E0101C16FE2
:100C8000000EC06F000EBF6F000EBE6F000E0001A1
:100C9000716F000E706F596A1200050E5318D8A4B8
:100CA0001200340E0001A619D8A410D0010E6E2532
:100CB0006E6F000E6F216F6F060ECC6F000ECD6F42
:100CC000800ECE6F040EACEC41F012002C0EA61973
:100CD000D8A410D0FF0E6E256E6FFF0E6F216F6FC0
:100CE000060ECC6F000ECD6F800ECE6F040EACECF6
:100CF00041F01200AC0EA619D8A418D0512A510404
:100D0000F16F140EF16101D01200516AF60E6E25DA
:100D10006E6FFF0E6F216F6F060ECC6F000ECD6FE2
:100D2000800ECE6F040EACEC41F01200B40EA6198A
:100D3000D8A418D0512A5104F16F140EF16101D0DA
:100D40001200516A0A0E6E256E6F000E6F216F6FD2
:100D5000060ECC6F000ECD6F800ECE6F040EACEC85
:100D600041F01200380EA619D8A41200536A000EE2
:100D7000606F000E616F300E626F400E636F050E84
:100D80005B6E1200380E0001A619D8A403D0050E20
:100D90005B6E7AD1340EA619D8A407D0C82B060EE4
:100DA000C86572D1060EC86F6FD12C0EA619D8A4D3
:100DB00006D0C807C851D8A467D1C86B65D1980EB2
:100DC000A619D8A461D139EC42F05ED1000ECD6FE6
:100DD000350ECC6F000E40EC43F0000ECD6F350E9B
:100DE000CC6F020EAAEC43F0000ECD6F350ECC6F27
:100DF000040EAAEC43F0000ECD6F350ECC6F060E3C
:100E0000AAEC43F0000ECD6F7A0ECC6F000EAAEC68
:100E100043F0000ECD6F7A0ECC6F020EAAEC43F0B9
:100E2000000ECD6F7A0ECC6F040EAAEC43F01200C8
:100E3000000ECD6F350ECC6F000EAAEC43F0000E05
:100E4000CD6F350ECC6F020E40EC43F0000ECD6F2F
:100E5000350ECC6F040EAAEC43F0000ECD6F350EAC
:100E6000CC6F060EAAEC43F0000ECD6F7A0ECC6F5D
:100E7000000EAAEC43F0000ECD6F7A0ECC6F020E7E
:100E8000AAEC43F0000ECD6F7A0ECC6F040EAAECE4
:100E900043F01200000ECD6F350ECC6F000EAAECA1
:100EA00043F0000ECD6F350ECC6F020EAAEC43F06E
:100EB000000ECD6F350ECC6F040E40EC43F0000EEB
:100EC000CD6F350ECC6F060EAAEC43F0000ECD6F41
:100ED0007A0ECC6F000EAAEC43F0000ECD6F7A0EA6
:100EE000CC6F020EAAEC43F0000ECD6F7A0ECC6FE1
:100EF000040EAAEC43F01200000ECD6F350ECC6F3D
:100F0000000EAAEC43F0000ECD6F350ECC6F020E32
:100F1000AAEC43F0000ECD6F350ECC6F040EAAEC98
:100F200043F0000ECD6F350ECC6F060E40EC43F053
:100F3000000ECD6F7A0ECC6F000EAAEC43F0000EBF
:100F4000CD6F7A0ECC6F020EAAEC43F0000ECD6F7F
:100F50007A0ECC6F040EAAEC43F01200000ECD6F97
:100F6000350ECC6F000EAAEC43F0000ECD6F350E9F
:100F7000CC6F020EAAEC43F0000ECD6F350ECC6F95
:100F8000040EAAEC43F0000ECD6F350ECC6F060EAA
:100F9000AAEC43F0000ECD6F7A0ECC6F000E40EC41
:100FA00043F0000ECD6F7A0ECC6F020EAAEC43F028
:100FB000000ECD6F7A0ECC6F040EAAEC43F0120037
:100FC000000ECD6F350ECC6F000EAAEC43F0000E74
:100FD000CD6F350ECC6F020EAAEC43F0000ECD6F34
:100FE000350ECC6F040EAAEC43F0000ECD6F350E1B
:100FF000CC6F060EAAEC43F0000ECD6F7A0ECC6FCC
:10100000000EAAEC43F0000ECD6F7A0ECC6F020EEC
:1010100040EC43F0000ECD6F7A0ECC6F040EAAECBC
:1010200043F01200000ECD6F350ECC6F000EAAEC0F
:1010300043F0000ECD6F350ECC6F020EAAEC43F0DC
:10104000000ECD6F350ECC6F040EAAEC43F0000EEF
:10105000CD6F350ECC6F060EAAEC43F0000ECD6FAF
:101060007A0ECC6F000EAAEC43F0000ECD6F7A0E14
:10107000CC6F020EAAEC43F0000ECD6F7A0ECC6F4F
:10108000040E40EC43F01200C851000AD8B49ED6BA
:10109000010AD8B4CDD6030AD8B4FCD6010AD8B414
:1010A0002BD7070AD8B45AD7010AD8B489D7030A6C
:1010B000D8A41200B7D75B50000AD8B486EF00F06E
:1010C000010AD8B428EF01F0030AD8B457EF01F0B1
:1010D000010AD8B46DEF01F0070AD8B434EF03F079
:1010E000010AD8B401EF03F0030AD8B41200010AD0
:1010F000D8B412000F0AD8B41200010AD8B442D6EC
:10110000030AD8A4120090EF02F05350D8A481D063
:10111000AC51D8A460D0010EAC6FC851D8B42ED059
:10112000460ECC6F000E1AEC33F0EE0EDB6FFF0EA6
:10113000DC6F000EDD6F050EDE6F64EC3FF0E70E36
:10114000DB6FFF0EDC6F000EDD6F500EDE6F64ECA8
:101150003FF0AC0EDB6FFF0EDC6F020EDD6F080E92
:10116000DE6F64EC3FF0640EDB6FFF0EDC6F040E8D
:10117000DD6F050EDE6F64EC3FF02DD0460ECC6FB8
:10118000000E1AEC33F01E0EDB6FFF0EDC6F000E4C
:10119000DD6F050EDE6F64EC3FF0180EDB6FFF0EA7
:1011A000DC6F000EDD6F500EDE6F64EC3FF0990EC9
:1011B000DB6FFE0EDC6F020EDD6F080EDE6F64EC7F
:1011C0003FF08E0EDB6FFE0EDC6F040EDD6F050E42
:1011D000DE6F64EC3FF0020E5218D8A40BD0740EF0
:1011E000CC6F020EE8EC38F0740ECC6F040EECEC11
:1011F0003AF01200030E5218D8A41200740ECC6FED
:10120000040EE8EC38F0740ECC6F020EECEC3AF001
:1012100012005304D8A47DD14CC086F04DC087F095
:10122000020E5218D8A43DD0C851D8B415D0200E03
:10123000CC6F030E0EEC44F0300EDA6F040E1AEC95
:101240002AF0D50EDB6FFF0EDC6F000EDD6F240E73
:10125000DE6F64EC3FF0FCD00B0ECC6F030E0EEC97
:1012600044F04CC086F04DC087F04D500AE1640E4A
:101270004C5CD8B006D01A0EDA6F040E1AEC2AF0C5
:1012800005D01A0EDA6F040E1AEC2AF0DC0EDB6FB2
:10129000FE0EDC6F000EDD6F2E0EDE6F64EC3FF095
:1012A000D7D0C851D8B424D0AC51D8A444D0010E62
:1012B000AC6FD50EDB6FFF0EDC6F000EDD6F240E02
:1012C000DE6F64EC3FF0960EDB6FFF0EDC6F020EFC
:1012D000DD6F060EDE6F64EC3FF0A10EDB6FFF0EDC
:1012E000DC6F040EDD6F060EDE6F64EC3FF023D082
:1012F000200ECC6F030E0EEC44F0DC0EDB6FFE0E06
:10130000DC6F000EDD6F2A0EDE6F64EC3FF0C10E65
:10131000DB6FFE0EDC6F020EDD6F030EDE6F64EC22
:101320003FF0B80EDB6FFE0EDC6F040EDD6F030EB8
:10133000DE6F64EC3FF0C851D8B416D0010EC96F0F
:10134000490EDA6F4CC0DBF04DC0DCF0020E4DEC04
:1013500030F0C96B490EDA6F76C0DBF077C0DCF095
:10136000040E4DEC30F015D0010EC96F350EDA6F5A
:101370004CC0DBF04DC0DCF0020E4DEC30F0C96B20
:10138000350EDA6F76C0DBF077C0DCF0040E4DEC82
:1013900030F0C851D8B41DD0020ECC6F620ECD6FA4
:1013A0006D0E4BEC15F0020ECC6F690ECD6F6D0E0D
:1013B0004BEC15F0020ECC6F700ECD6F480E4BEC5F
:1013C00015F0020ECC6F770ECD6F670E4BEC15F05B
:1013D0003FD0020ECC6F4E0ECD6FAC0EAAEC21F0BA
:1013E000020ECC6F540ECD6FAC0EAAEC21F0020EA3
:1013F000CC6F5A0ECD6FC10EAAEC21F0020ECC6F4D
:10140000600ECD6FB00EAAEC21F0020ECC6F660E0E
:10141000CD6FB20EAAEC21F0020ECC6F6C0ECD6F28
:10142000C10EAAEC21F0020ECC6F720ECD6FB10E80
:10143000AAEC21F0020ECC6F780ECD6FB20EAAECA2
:1014400021F0020ECC6F7E0ECD6FC10EAAEC21F002
:10145000C96BC851D8B41DD0040ECC6F620ECD6FCD
:101460006D0E4BEC15F0040ECC6F690ECD6F6D0E4A
:101470004BEC15F0040ECC6F700ECD6F480E4BEC9C
:1014800015F0040ECC6F770ECD6F670E4BEC15F098
:101490001200040ECC6F4E0ECD6FAC0EAAEC21F0F4
:1014A000040ECC6F540ECD6FAC0EAAEC21F0040EDE
:1014B000CC6F5A0ECD6FC10EAAEC21F0040ECC6F8A
:1014C000600ECD6FB00EAAEC21F0040ECC6F660E4C
:1014D000CD6FB20EAAEC21F0040ECC6F6C0ECD6F66
:1014E000C10EAAEC21F0040ECC6F720ECD6FB10EBE
:1014F000AAEC21F0040ECC6F780ECD6FB20EAAECE0
:1015000021F0040ECC6F7E0ECD6FC10EAAEC21F03F
:101510001200020E5318D8A45AD1AC6B4CC086F0FE
:101520004DC087F0020E5218D8A423D0200ECC6FE5
:10153000030E0EEC44F0300EDA6F040E1AEC2AF0B3
:10154000C851D8B40BD0D50EDB6FFF0EDC6F000E88
:10155000DD6F240EDE6F64EC3FF0D8D0DC0EDB6F65
:10156000FE0EDC6F000EDD6F2A0EDE6F64EC3FF0C6
:10157000CDD0C851D8B41FD0D50EDB6FFF0EDC6FB5
:10158000000EDD6F240EDE6F64EC3FF0960EDB6F15
:10159000FF0EDC6F020EDD6F060EDE6F64EC3FF0B7
:1015A000A10EDB6FFF0EDC6F040EDD6F060EDE6F2B
:1015B00064EC3FF01ED0DC0EDB6FFE0EDC6F000E25
:1015C000DD6F2A0EDE6F64EC3FF0C10EDB6FFE0EA6
:1015D000DC6F020EDD6F030EDE6F64EC3FF0B80EC1
:1015E000DB6FFE0EDC6F040EDD6F030EDE6F64EC4E
:1015F0003FF0C851D8B416D0490EDA6F4CC0DBF0BA
:101600004DC0DCF0020E4DEC30F0010EC96F490EFA
:10161000DA6F76C0DBF077C0DCF0040E4DEC30F012
:10162000C96B15D0350EDA6F4CC0DBF04DC0DCF065
:10163000020E4DEC30F0010EC96F350EDA6F76C038
:10164000DBF077C0DCF0040E4DEC30F0E9D7C85188
:10165000D8B41DD0020ECC6F620ECD6F6D0E4BEC68
:1016600015F0020ECC6F690ECD6F6D0E4BEC15F0C0
:10167000020ECC6F700ECD6F480E4BEC15F0020EC3
:10168000CC6F770ECD6F670E4BEC15F03FD0020E8E
:10169000CC6F4E0ECD6FAC0EAAEC21F0020ECC6FCB
:1016A000540ECD6FAC0EAAEC21F0020ECC6F5A0E88
:1016B000CD6FC10EAAEC21F0020ECC6F600ECD6F83
:1016C000B00EAAEC21F0020ECC6F660ECD6FB20EFA
:1016D000AAEC21F0020ECC6F6C0ECD6FC10EAAECFD
:1016E00021F0020ECC6F720ECD6FB10EAAEC21F07C
:1016F000020ECC6F780ECD6FB20EAAEC21F0020E66
:10170000CC6F7E0ECD6FC10EAAEC21F0C96BC85113
:10171000D8B41DD0040ECC6F620ECD6F6D0E4BECA5
:1017200015F0040ECC6F690ECD6F6D0E4BEC15F0FD
:10173000040ECC6F700ECD6F480E4BEC15F0040EFE
:10174000CC6F770ECD6F670E4BEC15F01200040EC8
:10175000CC6F4E0ECD6FAC0EAAEC21F0040ECC6F08
:10176000540ECD6FAC0EAAEC21F0040ECC6F5A0EC5
:10177000CD6FC10EAAEC21F0040ECC6F600ECD6FC0
:10178000B00EAAEC21F0040ECC6F660ECD6FB20E37
:10179000AAEC21F0040ECC6F6C0ECD6FC10EAAEC3A
:1017A00021F0040ECC6F720ECD6FB10EAAEC21F0B9
:1017B000040ECC6F780ECD6FB20EAAEC21F0040EA1
:1017C000CC6F7E0ECD6FC10EAAEC21F01200030E7D
:1017D0005318D8A486D0C851D8B41FD0640EDB6F7C
:1017E000FF0EDC6F000EDD6F100EDE6F64EC3FF05D
:1017F000B70EDB6FFF0EDC6F020EDD6F060EDE6FC5
:1018000064EC3FF0C10EDB6FFF0EDC6F040EDD6F8A
:10181000060EDE6F64EC3FF01ED0120EDB6FFF0E83
:10182000DC6F000EDD6F320EDE6F64EC3FF0D30E26
:10183000DB6FFE0EDC6F020EDD6F140EDE6F64ECEC
:101840003FF0CA0EDB6FFE0EDC6F040EDD6F140E70
:10185000DE6F64EC3FF0010EC96F4B0EDA6F74C09F
:10186000DBF075C0DCF0020E4DEC30F0C96BC851F6
:10187000D8B40BD0F30EDB6FFF0EDC6F020EDD6F02
:10188000650EDE6F64EC3FF00AD0240EDB6FFF0EB6
:10189000DC6F020EDD6F650EDE6F64EC3FF04B0E09
:1018A000DA6F72C0DBF073C0DCF0040E4DEC30F088
:1018B000C851D8B40BD0F30EDB6FFF0EDC6F040EF3
:1018C000DD6F650EDE6F64EC3FF01200240EDB6FFF
:1018D000FF0EDC6F040EDD6F650EDE6F64EC3FF013
:1018E0001200040E5318D8A47ED0AC6BC851D8B4E3
:1018F0001FD0640EDB6FFF0EDC6F000EDD6F100E6D
:10190000DE6F64EC3FF0B70EDB6FFF0EDC6F020E94
:10191000DD6F060EDE6F64EC3FF0C10EDB6FFF0E75
:10192000DC6F040EDD6F060EDE6F64EC3FF01ED040
:10193000120EDB6FFF0EDC6F000EDD6F320EDE6FFE
:1019400064EC3FF0D30EDB6FFE0EDC6F020EDD6F3A
:10195000140EDE6F64EC3FF0CA0EDB6FFE0EDC6F20
:10196000040EDD6F140EDE6F64EC3FF0C96B4B0E9E
:10197000DA6F74C0DBF075C0DCF0020E4DEC30F0B5
:10198000C96BC851D8B40BD0F30EDB6FFF0EDC6F00
:10199000020EDD6F650EDE6F64EC3FF00AD0240EA0
:1019A000DB6FFF0EDC6F020EDD6F650EDE6F64EC29
:1019B0003FF0010EC96F4B0EDA6F72C0DBF073C0DF
:1019C000DCF0040E4DEC30F0C96BC851D8B47ED7B2
:1019D000F30EDB6FFF0EDC6F040EDD6F650EDE6F46
:1019E00064EC3FF01200050E5318D8A41200200E2C
:1019F000CC6F020E0EEC44F0C851D8B44ED0000E9D
:101A0000CC6F180ECD6F530E4BEC15F0000ECC6F53
:101A10001F0ECD6F650E4BEC15F0000ECC6F260E31
:101A2000CD6F740E4BEC15F0000ECC6F300ECD6FF9
:101A3000500E4BEC15F0000ECC6F370ECD6F720EC2
:101A40004BEC15F0000ECC6F3E0ECD6F650E4BECDF
:101A500015F0000ECC6F450ECD6F730E4BEC15F0EC
:101A6000000ECC6F4C0ECD6F730E4BEC15F0000ECC
:101A7000CC6F530ECD6F750E4BEC15F0000ECC6F86
:101A80005A0ECD6F720E4BEC15F0000ECC6F610E3E
:101A9000CD6F650E4BEC15F04DD0000ECC6F180ECF
:101AA000CD6F930E4BEC15F0000ECC6F1F0ECD6F6B
:101AB000B10E4BEC15F0000ECC6F260ECD6FB20EB2
:101AC0004BEC15F0000ECC6F300ECD6FA00E4BEC32
:101AD00015F0000ECC6F370ECD6FAD0E4BEC15F040
:101AE000000ECC6F3E0ECD6FAE0E4BEC15F0000E1F
:101AF000CC6F450ECD6FB20E4BEC15F0000ECC6FD7
:101B00004C0ECD6FA80E4BEC15F0000ECC6F530EA3
:101B1000CD6FB20E4BEC15F0000ECC6F5A0ECD6FA0
:101B2000B60E4BEC15F0000ECC6F610ECD6FA40E0F
:101B30004BEC15F06EC086F06FC087F04D500AE197
:101B4000640E4C5CD8B006D0300EDA6F040E1AEC7E
:101B50002AF005D02E0EDA6F040E1AEC2AF0C851C6
:101B6000D8B41DD0040ECC6F5A0ECD6F6D0E4BEC59
:101B700015F0040ECC6F610ECD6F6D0E4BEC15F0B1
:101B8000040ECC6F680ECD6F480E4BEC15F0040EB2
:101B9000CC6F6F0ECD6F670E4BEC15F03FD0040E7F
:101BA000CC6F4E0ECD6FAC0EAAEC21F0040ECC6FB4
:101BB000540ECD6FAC0EAAEC21F0040ECC6F5A0E71
:101BC000CD6FC10EAAEC21F0040ECC6F600ECD6F6C
:101BD000B00EAAEC21F0040ECC6F660ECD6FB20EE3
:101BE000AAEC21F0040ECC6F6C0ECD6FC10EAAECE6
:101BF00021F0040ECC6F720ECD6FB10EAAEC21F065
:101C0000040ECC6F780ECD6FB20EAAEC21F0040E4C
:101C1000CC6F7E0ECD6FC10EAAEC21F0C96B120005
:101C20004E50845D4F508559D8B02AD084514E5CB7
:101C3000F16F85514F58F26FF1C0CAF0F2C0CBF08E
:101C4000CC6BCD6B000E70EC2EF0CAC0D8F0CBC0C0
:101C5000D9F0CCC0DAF0CDC0DBF060C0DCF061C000
:101C6000DDF062C0DEF063C0DFF024EC1FF0D8C00E
:101C7000F3F0D9C0F4F0DAC0F5F0DBC0F6F008D02C
:101C8000000EF36F000EF46F000EF56F000EF66F8E
:101C9000F3C0E3F0F4C0E4F0F5C0E5F0F6C0E6F020
:101CA00091EC3DF0E3C066F0E4C067F09E51D8A42B
:101CB00028D0FB0E4C24F16FFF0E4D20F26FF15136
:101CC000665DF2516759D8A005D04CC066F04DC092
:101CD00067F017D066C0CFF067C0D0F0000ED26FAB
:101CE000050ED16FABEC45F0060ECF03F3CFF1F04C
:101CF000F4CFF2F0D003F350F227F1C066F0F2C057
:101D000067F0675103E1050E665DD8B0B6D2000EEC
:101D1000676F000E666FB1D2AB51D8A438D0010EF8
:101D2000AB6FC851D8B41AD0140ECC6F020E1AEC97
:101D300033F0DE0EDB6FFF0EDC6F020EDD6F320E56
:101D4000DE6F64EC3FF0280EDB6FFF0EDC6F040EDD
:101D5000DD6F0A0EDE6F64EC3FF019D0140ECC6F0D
:101D6000020E1AEC33F0A40EDB6FFE0EDC6F020ED7
:101D7000DD6F320EDE6F64EC3FF0440EDB6FFE0E63
:101D8000DC6F040EDD6F0E0EDE6F64EC3FF0020EB2
:101D9000A219D8A486D0C851D8B430D0110ECC6FB7
:101DA000000E29EC34F01C0ECC6F000EDCEC43F07E
:101DB000220EDE6F4CC0DFF04DC0E0F0000EDDEC17
:101DC00030F0000ECC6F340ECD6F000EB7EC26F065
:101DD000000ECC6F3A0ECD6F000EB7EC26F0000E61
:101DE000CC6F400ECD6F240EB7EC26F0000ECC6FFA
:101DF000460ECD6F300EB7EC26F0D8D0110ECC6F5A
:101E0000000E29EC34F01F0ECC6F000EDCEC43F01A
:101E1000250EDE6F4CC0DFF04DC0E0F0000EDDECB3
:101E200030F0000ECC6F3C0ECD6FAC0EAAEC21F062
:101E3000000ECC6F420ECD6FAC0EAAEC21F0000E5E
:101E4000CC6F480ECD6FC10EAAEC21F0000ECC6F06
:101E50004E0ECD6FB00EAAEC21F0000ECC6F540EDA
:101E6000CD6FB20EAAEC21F0000ECC6F5A0ECD6FE2
:101E7000C10EAAEC21F0000ECC6F600ECD6FB10E3A
:101E8000AAEC21F0000ECC6F660ECD6FB20EAAEC5C
:101E900021F0000ECC6F6C0ECD6FC10EAAEC21F0BC
:101EA00085D0C851D8B430D0110ECC6F000EB0EC34
:101EB00034F01C0ECC6F000EDCEC43F0210EDE6F14
:101EC0004CC0DFF04DC0E0F0000EDDEC30F0000E55
:101ED000CC6F340ECD6F000EB7EC26F0000ECC6F39
:101EE0003A0ECD6F000EB7EC26F0000ECC6F400E10
:101EF000CD6F240EB7EC26F0000ECC6F460ECD6FE2
:101F0000300EB7EC26F052D0110ECC6F000EB0ECB4
:101F100034F01F0ECC6F000EDCEC43F0250EDE6FAC
:101F20004CC0DFF04DC0E0F0000EDDEC30F0000EF4
:101F3000CC6F3C0ECD6FAC0EAAEC21F0000ECC6F36
:101F4000420ECD6FAC0EAAEC21F0000ECC6F480E05
:101F5000CD6FC10EAAEC21F0000ECC6F4E0ECD6FEE
:101F6000B00EAAEC21F0000ECC6F540ECD6FB20E65
:101F7000AAEC21F0000ECC6F5A0ECD6FC10EAAEC68
:101F800021F0000ECC6F600ECD6FB10EAAEC21F0E7
:101F9000000ECC6F660ECD6FB20EAAEC21F0000ED3
:101FA000CC6F6C0ECD6FC10EAAEC21F0A051D8B44D
:101FB00006D06C0ECC6F060E37EC35F012006C0EAE
:101FC000CC6F060E63EC3BF01200C6EC18F088EC08
:101FD00046F0120083EC13F0FAD74CC068F04DC005
:101FE00069F0020EA219D8A473D0110ECC6F000EA6
:101FF00029EC34F01F0ECC6F000EDCEC43F0250E04
:10200000DE6F68C0DFF069C0E0F0000EDDEC30F09C
:10201000C851D8B41DD0000ECC6F370ECD6F000E56
:10202000B7EC26F0000ECC6F3D0ECD6F000EB7EC76
:1020300026F0000ECC6F430ECD6F240EB7EC26F0C9
:10204000000ECC6F490ECD6F300EB7EC26F0B6D037
:10205000000ECC6F3C0ECD6FAC0EAAEC21F0000E42
:10206000CC6F430ECD6FAC0EAAEC21F0000ECC6FFE
:102070004A0ECD6FC10EAAEC21F0000ECC6F510EAE
:10208000CD6FB00EAAEC21F0000ECC6F580ECD6FC4
:10209000B20EAAEC21F0000ECC6F5F0ECD6FC10E18
:1020A000AAEC21F0000ECC6F660ECD6FB10EAAEC3B
:1020B00021F0000ECC6F6D0ECD6FB20EAAEC21F0A8
:1020C000000ECC6F740ECD6FC10EAAEC21F076D04D
:1020D000030EA219D8A472D0110ECC6F000EB0EC72
:1020E00034F01F0ECC6F000EDCEC43F0250EDE6FDB
:1020F00068C0DFF069C0E0F0000EDDEC30F0C851E0
:10210000D8B41DD0000ECC6F370ECD6F000EB7ECDB
:1021100026F0000ECC6F3D0ECD6F000EB7EC26F012
:10212000000ECC6F430ECD6F240EB7EC26F0000EE0
:10213000CC6F490ECD6F300EB7EC26F03FD0000EBD
:10214000CC6F3C0ECD6FAC0EAAEC21F0000ECC6F24
:10215000430ECD6FAC0EAAEC21F0000ECC6F4A0EF0
:10216000CD6FC10EAAEC21F0000ECC6F510ECD6FD9
:10217000B00EAAEC21F0000ECC6F580ECD6FB20E4F
:10218000AAEC21F0000ECC6F5F0ECD6FC10EAAEC51
:1021900021F0000ECC6F660ECD6FB10EAAEC21F0CF
:1021A000000ECC6F6D0ECD6FB20EAAEC21F0000EBA
:1021B000CC6F740ECD6FC10EAAEC21F088EC46F006
:1021C0009951D8A41200C851D8B41CD0570EDB6F57
:1021D000FF0EDC6F030EDD6F140EDE6F64EC3FF05C
:1021E000060ECC6F040ECD6F7C0EAAEC21F0300EE3
:1021F000DD6FFF0EDE6F060EDF6F100EE06FA1ECDD
:1022000044F012005C0EDB6FFE0EDC6F030EDD6F20
:10221000140EDE6F64EC3FF0060ECC6F040ECD6F33
:102220007C0EAAEC21F0E50EDB6FFE0EDC6F060ED5
:10223000DD6F100EDE6F64EC3FF0120085EC08F0ED
:102240001200BE510F0B050AD8A409D0C851D8B44A
:1022500003D07DEC42F01200EFEC3DF0120081EC77
:1022600045F0000ECB6FAE0ECA6FC5EC47F0120002
:10227000E5EC24F0B0C08DF012005B50000AD8B439
:102280001200010AD8B448D5030AD8B49ED6010A70
:10229000D8B4A0D6070AD8B4D1D7010AD8B49DD6ED
:1022A000030AD8B41200010AD8B4CBD70F0AD8A4B5
:1022B0001200DED7000E156E000E146E4C504D103D
:1022C000D8A417D0F3EC47F00101A2510A6EA35134
:1022D0000B6EA24BA32BE90E0A5C030E0B58D8A081
:1022E00006D08A92040EA36F4C0EA26F12008A824F
:1022F00012004CC008F04DC009F013EC41F0000E84
:102300000101A36F000EA26F5AA609D0000EA56F9F
:10231000000EA46F8A908A92F3EC47F012004CC032
:1023200001F04DC002F0ACC103F0ADC104F0C7EC48
:1023300046F001C00EF002C00FF000017E514C24A7
:10234000126E7F514D20136E400E125C010E135819
:10235000D8A004D0010E136E3D0E126E4A500E5CD2
:102360004B500F58D8A059D0B86B000E01019F6F89
:10237000000E9E6F0001B42B310EB46505D0B46B16
:10238000000E816F000E806FB56B000E0101A56F0E
:10239000000EA46F000E5C6F000E5D6F000E5E6F8E
:1023A000000E5F6F000EAB6F000EAA6F000EA96FDC
:1023B000000EA86F5A980001B651D8A49DD1010112
:1023C000B04BB12BB15104E10B0EB05DD8A094D14C
:1023D000000EB16F000EB06F5904D8A403D0020EE6
:1023E0005818D8B48A925AA013D0E10E0001825D29
:1023F0002E0E8359D8B006D0610E825D540E8359DB
:10240000D8A006D0F3EC47F0010E0001BF6F74D1E5
:10241000EFEC47F00001BF6B6FD112504A5C1350D4
:102420004B58D8A08CD0804B812BE80E805D030EDA
:102430008159D8A004D0030E816FE80E806F4CC084
:1024400001F04DC002F0000E046E0A0E036ED4ECD3
:1024500045F0020E0124146E000E0220156E155078
:1024600008E10F0E145CD8B004D0000E156E0F0EEC
:10247000146E030E5B18D8A406D0040E1424146E38
:10248000000E1520156E140E1402F3CF0AF0F4CFCF
:102490000BF01502F3500B260AC014F00BC015F018
:1024A000155008E1150E145CD8B004D0000E156E5E
:1024B000140E146E900E145C010E1558D8A004D0A2
:1024C000010E156E900E146E00018051145C815146
:1024D0001558D8B005D0F3EC47F08B9E0001C06BC7
:1024E000F30E14240A6E010E15200B6E80510A5C47
:1024F00081510B58D8B015D0B651D8A412D00101D3
:10250000C04BC12B0001BD6B010EB66FB76B000E47
:102510000101B36F000EB26F000E0001816F000E5B
:10252000806FB86B000E01019F6F000E9E6F00015F
:10253000B56B000E0101A56F000EA46FDDD05AA08F
:102540000DD0E10E825D2E0E8359D8B005D0610EFC
:10255000825D540E8359D8B0F3EC47F05CC10AF0A9
:102560005DC10BF05EC10CF05FC10DF001015C2B91
:10257000000E5D235E235F230D5007E1210E0A5CF0
:10258000BF0E0B58020E0C58D8B05A880001B52B5C
:10259000310EB56506D0B46BB56B000E816F000EC1
:1025A000806F01019E4B9F2B4B5004E1460E4A5C0D
:1025B000D8A00CD0030E5B18D8A404D0170E116E4F
:1025C000700E0FD00B0E116EB80E0BD0030E5B18F1
:1025D000D8A404D0270E116E100E03D0130E116E66
:1025E000880E106E10509E5D11509F59D8A084D057
:1025F0000001B851020D3A0EF324D96E010EF420F9
:10260000DA6E4AC0DEFF4BC0DDFFB82B070EB8659F
:102610006ED001013A51481904E13B514919D8B42F
:102620000DD0010E48250A6E000E49210B6E3A515D
:102630000A183DE13B510B18D8A439D0495104E1A7
:10264000460E485DD8A002D05A8832D0495104E1E4
:102650003A0E485DD8A02CD03E513C250A6E3F5121
:102660003D210B6E40510A2641510B2242510A2650
:1026700043510B2244510A2645510B2246510A264A
:1026800047510B223A510A24016E3B510B20026E36
:10269000000E046E070E036ED4EC45F001014851A4
:1026A000011806E149510218D8B4CED701D05A9882
:1026B0003CC13AF13DC13BF13EC13CF13FC13DF16E
:1026C00040C13EF141C13FF142C140F143C141F13E
:1026D00044C142F145C143F146C144F147C145F10E
:1026E00048C146F149C147F1070E0001B86F000E1D
:1026F00001019F6F000E9E6F0001B651D8B4120009
:10270000BFEC3FF012005950D8A405D04CC068F07F
:102710004DC069F004D076C068F077C069F08D5183
:10272000B019D8A481EC45F0C405D8A407D056EC64
:1027300045F0000E0101696F010E686F0001B05194
:10274000D8B403D0E5EC24F0A3D1C405D8A41BD0A1
:1027500081EC45F0C851D8B40BD0710EDB6FFF0E81
:10276000DC6F030EDD6F140EDE6F64EC3FF090D172
:10277000690EDB6FFE0EDC6F030EDD6F220EDE6F67
:1027800064EC3FF085D1010168056911D8A406D039
:10279000000E696F000E686F56EC45F008EC3FF0D4
:1027A000110E0001CC6F000EB0EC34F01F0ECC6F98
:1027B000000EDCEC43F0250EDE6F68C0DFF069C070
:1027C000E0F0000EDDEC30F0C851D8B459D0000E66
:1027D000CC6F390ECD6F000EB7EC26F0000ECC6F2B
:1027E0003F0ECD6F000EB7EC26F0000ECC6F450EFD
:1027F000CD6F240EB7EC26F0000ECC6F4B0ECD6FD4
:10280000300EB7EC26F0500EDE6F74C0DFF075C0EE
:10281000E0F0020E6DEC31F0020ECC6F6A0ECD6F5F
:102820006D0E4BEC15F0020ECC6F710ECD6F690E74
:102830004BEC15F0020ECC6F780ECD6F6E0E4BEC9C
:1028400015F0500EDE6F72C0DFF073C0E0F0040EC2
:102850006DEC31F0040ECC6F6A0ECD6F6D0E4BEC4B
:1028600015F0040ECC6F710ECD6F690E4BEC15F0A8
:10287000040ECC6F780ECD6F6E0E4BEC15F065D05C
:10288000000ECC6F3C0ECD6FAC0EAAEC21F0000E0A
:10289000CC6F430ECD6FAC0EAAEC21F0000ECC6FC6
:1028A0004A0ECD6FC10EAAEC21F0000ECC6F510E76
:1028B000CD6FB00EAAEC21F0000ECC6F580ECD6F8C
:1028C000B20EAAEC21F0000ECC6F5F0ECD6FC10EE0
:1028D000AAEC21F0000ECC6F660ECD6FB10EAAEC03
:1028E00021F0000ECC6F6D0ECD6FB20EAAEC21F070
:1028F000000ECC6F740ECD6FC10EAAEC21F0500EFD
:10290000DE6F74C0DFF075C0E0F0020E6DEC31F0E8
:10291000240EDB6FFF0EDC6F020EDD6F6A0EDE6FC2
:1029200064EC3FF0500EDE6F72C0DFF073C0E0F079
:10293000040E6DEC31F0240EDB6FFF0EDC6F040E25
:10294000DD6F6A0EDE6F64EC3FF08F2B8F05ED6F4D
:10295000320EED6505D08F6B66C06CF167C06DF10E
:102960000101664B672B675104E1090E665DD8A033
:102970000ED0000E676F000E666F6CC1D6F06DC191
:10298000D7F060EC41F0D6C072F1D7C073F15904B2
:10299000D8A403D05804D8B440D001016E5100012E
:1029A000ED6F01016F510001EE6F01016E4B6F2B56
:1029B0000001EE5104E1030EED5DD8A01DD0000E24
:1029C00001016F6F000E6E6F72C1CFF073C1D0F056
:1029D000000E0001D26F050ED16FABEC45F0050E75
:1029E000CF03F3CFEDF0F4CFEEF0D003F350EE27AA
:1029F000EDC086F0EEC087F0050E4C24ED6F000EA2
:102A00004D20EE6FED51865DEE518759D8A01DD057
:102A10004CC086F04DC087F018D05804D8A415D00B
:102A200001019A519B11D8A404D04AC086F04BC032
:102A300087F09A4B9B2B9B5104E1320E9A5DD8A0F4
:102A400004D0000E9B6F000E9A6F1E0E0001DA6F0D
:102A5000040EA5EC2BF00C0ECC6F020E0EEC44F025
:102A6000C851D8B40BD08A0EDD6FFF0EDE6F060E94
:102A7000DF6F020EE06FA1EC44F00AD0760EDB6F40
:102A8000FE0EDC6F060EDD6F020EDE6F64EC3FF0B3
:102A9000B0C08DF01200D46F1F0E0001D465B1D00C
:102AA000800ED461AED0D4C0DBF0DC6BDC5104E12D
:102AB0005B0EDB5DD8A017D09F0EDB25CE6FFF0E1F
:102AC000DC21CF6F0E0ECE03F3CFD0F0F4CFD1F0D8
:102AD000CF03F350D127D0C0DBF0D1C0DCF0D80E4B
:102AE000D26FFC0EA7D0DC5104E1290EDB5DD8A02B
:102AF00017D0BF0EDB25CE6FFF0EDC21CF6F0E0E81
:102B0000CE03F3CFD0F0F4CFD1F0CF03F350D127E1
:102B1000D0C0DBF0D1C0DCF06C0ED26FFB0E8AD0DF
:102B2000CC510608D56FCD517A08D86FD8390F0B24
:102B3000D66FD8510F0BD76FB00ED525CA6FCB6BA0
:102B4000000ECB23C5EC47F0100E0001D625CA6F4E
:102B5000CB6B000ECB23C5EC47F0D7C0CAF0000109
:102B6000CB6BC5EC47F0DBC0D9F0DCC0DAF008D0A5
:102B7000000ECB6F000ECA6FBCEC47F0D94BDA2BBE
:102B8000020E0001DB25CE6F000EDC21CF6FCE518F
:102B9000D95DCF51DA59D8A0EBD7B10ED525CA6F80
:102BA000CB6B000ECB23C5EC47F0100E0001D625F1
:102BB000CA6FCB6B000ECB23C5EC47F0D7C0CAF071
:102BC0000001CB6BC5EC47F0020E0001DB25D96F8D
:102BD000000EDC21DA6F08D0000ECB6F000ECA6F3A
:102BE000BCEC47F0D94BDA2B040EDB25CE6F000E80
:102BF000DC21CF6FCE51D95DCF51DA59D8B0120058
:102C0000EBD77F0ED46518D0800ED425CE6FCF6B56
:102C1000FF0ECF230E0ECE03F3CFD0F0F4CFD1F0C2
:102C2000CF03F350D127D0C0DBF0D1C0DCF01C0EB5
:102C3000D26FF70ED36F71D0CC510608D56FCD513E
:102C40007A08D86FD8390F0BD66FD8510F0BD76FC2
:102C5000B00ED525CA6FCB6B000ECB23C5EC47F069
:102C6000100E0001D625CA6FCB6B000ECB23C5EC2E
:102C700047F0D7C0CAF00001CB6BC5EC47F0DBC012
:102C8000D9F0DCC0DAF008D0000ECB6F000ECA6FAE
:102C9000BCEC47F0D94BDA2B020E0001DB25CE6FDE
:102CA000000EDC21CF6FCE51D95DCF51DA59D8A0BB
:102CB000EBD7B10ED525CA6FCB6B000ECB23C5EC7D
:102CC00047F0100E0001D625CA6FCB6B000ECB2348
:102CD000C5EC47F0D7C0CAF00001CB6BC5EC47F09C
:102CE000020E0001DB25D96F000EDC21DA6F08D05F
:102CF000000ECB6F000ECA6FBCEC47F0D94BDA2B3D
:102D0000040EDB25CE6F000EDC21CF6FCE51D95DD6
:102D1000CF51DA59D8B01200EBD7CC510608D56F95
:102D2000CD517A08D86FD8390F0BD66FD8510F0B09
:102D3000D76FB00ED525CA6FCB6B000ECB23C5EC79
:102D400047F0100E0001D625CA6FCB6B000ECB23C7
:102D5000C5EC47F0D7C0CAF00001CB6BC5EC47F01B
:102D6000DBC0D9F0DCC0DAF012D0D951D225CE6F59
:102D7000DA51D321CF6FCEC0F6FFCFC0F7FF0800E6
:102D8000F550CA6FCB6BBCEC47F0D94BDA2B070E72
:102D90000001DB25CE6F000EDC21CF6FCE51D95D57
:102DA000CF51DA59D8A0E1D7B10ED525CA6FCB6B78
:102DB000000ECB23C5EC47F0100E0001D625CA6FDC
:102DC000CB6B000ECB23C5EC47F0D7C0CAF0000197
:102DD000CB6BC5EC47F0070E0001DB25D96F000E69
:102DE000DC21DA6F12D0D951D225CE6FDA51D3213E
:102DF000CF6FCEC0F6FFCFC0F7FF0800F550CA6F07
:102E0000CB6BBCEC47F0D94BDA2B0E0EDB25CE6F2B
:102E1000000EDC21CF6FCE51D95DCF51DA59D8B039
:102E20001200E1D7070E5B18D8B41DD05B50D8B4A0
:102E30001AD0000E01018B6F000E8A6F0001A005F1
:102E4000D8B46CD1B80EA619D8A468D1A405D8B44A
:102E50001200010EA46FAC6B81EC45F0070E5B6EA7
:102E6000070EA36F5BD1070E5B18D8A457D10001E2
:102E7000BE510F0B050AD8B451D101018A5100018E
:102E8000ED6F01018B510001EE6F01018A4B8B2B1D
:102E90000001EE5104E1330EED5DD8A03FD18B501F
:102EA000BF0B8B6E8992000ECA6FA00ECB6F000E07
:102EB000CC6F000ECD6F46EC47F0000E0001CA6FDC
:102EC000A00ECB6F000ECC6F000ECD6F78C0CEF091
:102ED00079C0CFF0E6EC46F0020E0001CA6FA00EFA
:102EE000CB6F000ECC6F000ECD6F74C0CEF075C0EE
:102EF000CFF0E6EC46F0040E0001CA6FA00ECB6FD7
:102F0000000ECC6F000ECD6F72C0CEF073C0CFF04C
:102F1000E6EC46F0060E0001CA6FA00ECB6F000E65
:102F2000CC6F000ECD6FA2C0CEF0CF6BE6EC46F0BA
:102F3000000E0001CE6F000ECF6F7A0ED06F440EE0
:102F4000D16F60C0CAF061C0CBF062C0CCF063C08A
:102F5000CDF078EC1AF0CAC0E3F0CBC0E4F0CCC0FE
:102F6000E5F0CDC0E6F091EC3DF0E3C06CF0E4C0DC
:102F70006DF06CC0CFF06DC0D0F0030ED26FE80ED4
:102F8000D16FABEC45F0CFC094F1D0C095F1030EFA
:102F9000CD6FE80ECC6F6CC0CAF06DC0CBF047ECC3
:102FA00046F0CAC0CFF0CBC0D0F0000ED26F640E96
:102FB000D16FABEC45F0CFC092F1D0C093F1030ECE
:102FC000CD6FE80ECC6F6CC0CAF06DC0CBF047EC93
:102FD00046F0CAC0F1F0CBC0F2F0000ECD6F640E27
:102FE000CC6FF1C0CAF0F2C0CBF047EC46F0CAC0DB
:102FF000CFF0CBC0D0F0000ED26F0A0ED16FABEC89
:1030000045F0CFC090F1D0C091F1030ECD6FE80E26
:10301000CC6F6CC0CAF06DC0CBF047EC46F0CAC0B4
:10302000F1F0CBC0F2F0000ECD6F640ECC6FF1C0AA
:10303000CAF0F2C0CBF047EC46F0CAC0EFF0CBC00C
:10304000F0F0EFC0CAF0F0C0CBF0000ECD6F0A0E6A
:10305000CC6F47EC46F0CAC08EF1CBC08FF1080EA2
:10306000CA6FA00ECB6F000ECC6F000ECD6F94C157
:10307000CEF095C1CFF0E6EC46F00A0E0001CA6F23
:10308000A00ECB6F000ECC6F000ECD6F92C1CEF0B4
:1030900093C1CFF0E6EC46F00C0E0001CA6FA00E13
:1030A000CB6F000ECC6F000ECD6F90C1CEF091C1F2
:1030B000CFF0E6EC46F00E0E0001CA6FA00ECB6F0B
:1030C000000ECC6F000ECD6F8EC1CEF08FC1CFF051
:1030D000E6EC46F000017C51C8117C6F7D517D6F9C
:1030E000100ECA6FA00ECB6F000ECC6F000ECD6F0E
:1030F0007CC0CEF07DC0CFF0E6EC46F0120E0001B1
:10310000CA6FA00ECB6F000ECC6F000ECD6F76C0D5
:10311000CEF077C0CFF0E6EC46F08B94A40E000121
:10312000A619D8A406D0A06B000E0101976F000E5F
:10313000966F240E0001A619D8A406D0A06B000E2D
:103140000101976F000E966F0001A051D8A416D010
:103150005B04D8A413D0A951D8A410D0980EA619F6
:10316000D8A40CD0010EA96FC851D8A403D0FE0E6C
:10317000C86F01D0C86BAB6B81EC45F09D515B18FB
:10318000D8A481EC45F05BC09DF012004CC068F003
:103190004DC069F08D51B019D8A481EC45F0C4053B
:1031A000D8B456EC45F0B051D8B403D0E5EC24F0D7
:1031B0009CD1C405D8A420D0000E01016B6F010E74
:1031C0006A6F81EC45F0C851D8B40BD0710EDB6F3B
:1031D000FF0EDC6F030EDD6F140EDE6F64EC3FF04C
:1031E00084D1690EDB6FFE0EDC6F030EDD6F220EE5
:1031F000DE6F64EC3FF079D101016A056B11D8A450
:1032000007D056EC45F0000E01016B6F000E6A6F9F
:1032100008EC3FF0110E0001CC6F000E29EC34F0E9
:103220001F0ECC6F000EDCEC43F0250EDE6F68C085
:10323000DFF069C0E0F0000EDDEC30F0C851D8B42A
:103240001DD0000ECC6F390ECD6F000EB7EC26F0FE
:10325000000ECC6F3F0ECD6F000EB7EC26F0000EC7
:10326000CC6F450ECD6F240EB7EC26F0000ECC6F60
:103270004B0ECD6F300EB7EC26F03FD0000ECC6F6A
:103280003C0ECD6FAC0EAAEC21F0000ECC6F430EBD
:10329000CD6FAC0EAAEC21F0000ECC6F4A0ECD6FB4
:1032A000C10EAAEC21F0000ECC6F510ECD6FB00E06
:1032B000AAEC21F0000ECC6F580ECD6FB20EAAEC26
:1032C00021F0000ECC6F5F0ECD6FC10EAAEC21F085
:1032D000000ECC6F660ECD6FB10EAAEC21F0000E81
:1032E000CC6F6D0ECD6FB20EAAEC21F0000ECC6F3C
:1032F000740ECD6FC10EAAEC21F08F2B8F05ED6FF0
:10330000320EED6505D08F6B66C06CF167C06DF154
:103310000101664B672B675104E1090E665DD8A079
:103320000ED0000E676F000E666F6CC1D6F06DC1D7
:10333000D7F060EC41F0D6C072F1D7C073F1010153
:103340006E510001ED6F01016F510001EE6F01013F
:103350006E4B6F2B0001EE5104E1030EED5DD8A022
:103360001DD0000E01016F6F000E6E6F72C1CFF0A5
:1033700073C1D0F0000E0001D26F050ED16FABEC1F
:1033800045F0050ECF03F3CFEDF0F4CFEEF0D00310
:10339000F350EE27EDC086F0EEC087F0050E4C240A
:1033A000ED6F000E4D20EE6F8651ED5D8751EE59A9
:1033B000D8A00CD07E514C5CED6F7F514D58EE6F14
:1033C0008651ED5D8751EE59D8B004D04CC086F0DF
:1033D0004DC087F0C851D8B427D01E0EDA6F040E46
:1033E000A5EC2BF00C0ECC6F020E0EEC44F0040E8C
:1033F000CC6F4C0ECD6F6D0E4BEC15F0040ECC6FF8
:10340000530ECD6F6D0E4BEC15F0040ECC6F5A0EB3
:10341000CD6F480E4BEC15F0040ECC6F610ECD6FE6
:10342000670E4BEC15F049D0140EDA6F040EA5ECC4
:103430002BF0060ECC6F020E0EEC44F0040ECC6F97
:10344000420ECD6FAC0EAAEC21F0040ECC6F490EEB
:10345000CD6FAC0EAAEC21F0040ECC6F500ECD6FE8
:10346000C10EAAEC21F0040ECC6F570ECD6FB00E3A
:10347000AAEC21F0040ECC6F5E0ECD6FB20EAAEC5A
:1034800021F0040ECC6F650ECD6FC10EAAEC21F0B9
:10349000040ECC6F6C0ECD6FB10EAAEC21F0040EB1
:1034A000CC6F730ECD6FB20EAAEC21F0040ECC6F70
:1034B0007A0ECD6FC10EAAEC21F0C851D8B40BD052
:1034C0008A0EDD6FFF0EDE6F060EDF6F020EE06FFD
:1034D000A1EC44F00AD0760EDB6FFE0EDC6F060E18
:1034E000DD6F020EDE6F64EC3FF0B0C08DF01200B5
:1034F000CD51800BD66FCD51CD25DC6FCCBFDC819B
:10350000DC51D8B40DD0DC29D8A408D0000ECA6F85
:10351000000ECB6F000ECC6F000ECD6FCC8F08D09D
:10352000000ECA6F000ECB6F000ECC6F000ECD6F79
:10353000D151800BD61BD151D125D76FD0BFD781A8
:10354000D751D8B40DD0D729D8A408D0000ECE6F4B
:10355000000ECF6F000ED06F000ED16FD08F08D04D
:10356000000ECE6F000ECF6F000ED06F000ED16F29
:10357000D751D8B403D0DC51D8A409D0000ECA6FFB
:10358000000ECB6F000ECC6F000ECD6F1200D0512D
:10359000CA03F3CFE1F0F4CFE2F0E151D86FD96B79
:1035A000DA6BDB6BE251DD6FDE6BDF6BE06BCF5113
:1035B000CB03F3CFE1F0F4CFE2F0E151D827000ED6
:1035C000D923DA23DB23E251DD27000EDE23DF23BC
:1035D000E023CE51CC03F3CFE1F0F4CFE2F0E151A0
:1035E000D827000ED923DA23DB23E251DD27000E92
:1035F000DE23DF23E023DAC0DBF0D9C0DAF0D8C065
:10360000D9F0D86BCE51CB03F3CFE1F0F4CFE2F099
:10361000E151D827E251D923000EDA23000EDB2333
:10362000CF51CA03F3CFE1F0F4CFE2F0E151D82754
:10363000E251D923000EDA23000EDB23DAC0DBF0DF
:10364000D9C0DAF0D8C0D9F0D86BCE51CA03F3CFC5
:10365000E1F0F4CFE2F0E151D827E251D923000E96
:10366000DA23000EDB23D051CB03F3CFE1F0F4CF0C
:10367000E2F0E151DD27E251DE23000EDF23000EF0
:10368000E023CF51CC03F3CFE1F0F4CFE2F0E151EE
:10369000DD27E251DE23000EDF23000EE023D051B0
:1036A000CC03F3CFE1F0F4CFE2F0E151D26FE2517D
:1036B000D36FD46BD56BD4C0D5F0D3C0D4F0D2C007
:1036C000D3F0D26BD251DD27D351DE23D451DF2387
:1036D000D551E023DB51DD27000EDE23DF23E0237D
:1036E000DAC0DBF0D9C0DAF0D8C0D9F0D86BD75146
:1036F000DCC0D2F0D36BD227000ED323820ED225AA
:10370000E16FFF0ED321E26F0FD0D890DD37DE37A7
:10371000DF37E037DBBFDD81D890D837D937DA37EC
:10372000DB37E107D8A0E207DFAFEFD7D76BDBAF1E
:1037300017D0FF0ED815D26FFF0ED915D36FFF0E1D
:10374000DA15D46F7F0EDB15D56FD251D311D4119A
:10375000D511D8B403D0010ED76F02D0DDB1FBD79D
:10376000D751D8B41FD0010EDD27000EDE23DF2392
:10377000E023E0A117D0DDC0D2F0DEC0D3F0DFC07F
:10378000D4F0E0C0D5F0D535D533D433D333D233EC
:10379000D2C0DDF0D3C0DEF0D4C0DFF0D5C0E0F0A1
:1037A000E14BE22BE2BF0DD0E25103E1E129D8A0C9
:1037B00008D0000EDD6F000EDE6F800EDF6F7F0E13
:1037C0001FD0E2BF05D0E2510DE1E105D8B00AD02B
:1037D000000EDD6F000EDE6F000EDF6F000EE06F7B
:1037E000D66B0FD0E1C0DCF0FF0EDD17FF0EDE1749
:1037F0007F0EDF17000EE017DCB1DF8FD890DC31D1
:10380000E06FD651E013DDC0CAF0DEC0CBF0DFC000
:10381000CCF0E0C0CDF012002250800B2B6E225075
:103820002224316E21BE31803150D8B40DD03128E0
:10383000D8A408D0000E1F6E000E206E000E216E60
:10384000000E226E218E08D0000E1F6E000E206E1C
:10385000000E216E000E226E2650800B2B1A265071
:1038600026242C6E25BE2C802C50D8B40DD02C28AC
:10387000D8A408D0000E236E000E246E000E256E14
:10388000000E266E258E08D0000E236E000E246ECC
:10389000000E256E000E266E2C50D8B403D0315089
:1038A000D8A409D0000E1F6E000E206E000E216EEF
:1038B000000E226E120025501F02F3CF36F0F4CF17
:1038C00037F036502D6E2E6A2F6A306A3750326EBE
:1038D000336A346A356A24502002F3CF36F0F4CFCD
:1038E00037F036502D26000E2E222F223022375050
:1038F0003226000E33223422352223502102F3CF08
:1039000036F0F4CF37F036502D26000E2E222F221F
:10391000302237503226000E3322342235222FC077
:1039200030F02EC02FF02DC02EF02D6A2350200233
:10393000F3CF36F0F4CF37F036502D2637502E2205
:10394000000E2F22000E302224501F02F3CF36F03B
:10395000F4CF37F036502D2637502E22000E2F226E
:10396000000E30222FC030F02EC02FF02DC02EF0D0
:103970002D6A23501F02F3CF36F0F4CF37F03650C4
:103980002D2637502E22000E2F22000E30222550D9
:103990002002F3CF36F0F4CF37F0365032263750CE
:1039A0003322000E3422000E352224502102F3CFA0
:1039B00036F0F4CF37F03650322637503322000E2F
:1039C0003422000E352225502102F3CF36F0F4CFF9
:1039D00037F03650276E3750286E296A2A6A29C078
:1039E0002AF028C029F027C028F0276A275032265D
:1039F00028503322295034222A5035223050322682
:103A0000000E3322342235222FC030F02EC02FF08A
:103A10002DC02EF02D6A2C5031C027F0286A2726A1
:103A2000000E2822820E2724366EFF0E2820376EC5
:103A30000FD0D890323633363436353630BE3280F9
:103A4000D8902D362E362F3630363606D8A037068B
:103A500034AEEFD72C6A30AE17D0FF0E2D14276E80
:103A6000FF0E2E14286EFF0E2F14296E7F0E3014B9
:103A70002A6E2750281029102A10D8B403D0010E1E
:103A80002C6E02D032B0FBD72C50D8B41FD0010E10
:103A90003226000E33223422352235A017D032C010
:103AA00027F033C028F034C029F035C02AF02A347A
:103AB0002A3229322832273227C032F028C033F088
:103AC00029C034F02AC035F0364A372A37BE0DD027
:103AD000375003E13628D8A008D0000E326E000E11
:103AE000336E800E346E7F0E1FD037BE05D0375038
:103AF0000DE13604D8B00AD0000E326E000E336EDF
:103B0000000E346E000E356E2B6A0FD036C031F0C9
:103B1000FF0E3216FF0E33167F0E3416000E3516CA
:103B200031B0348ED8903130356E2B50351232C0D2
:103B30001FF033C020F034C021F035C022F0120055
:103B40001250800B1B6E125012241D6E11BE1D8070
:103B50001D50D8B40ED01D28D8A408D0000E0F6E6A
:103B6000000E106E000E116E000E126E118E126A93
:103B700008D0000E0F6E000E106E000E116E000EBB
:103B8000126E1650800B1C6E1B501C18D8A41B8C78
:103B9000165016241C6E15BE1C801C50D8B40ED0B6
:103BA0001C28D8A408D0000E136E000E146E000E50
:103BB000156E000E166E158E166A08D0000E136E66
:103BC000000E146E000E156E000E166E1D501C5C5D
:103BD000D8B022D01BAC02D0800E1B1A1DC01EF024
:103BE0001CC01DF01EC01CF00FC01EF013C00FF053
:103BF0001EC013F010C01EF014C010F01EC014F050
:103C000011C01EF015C011F01EC015F012C01EF03C
:103C100016C012F01EC016F01E6A1D501CC017F010
:103C2000186A175E000E185A18BE2CD0185004E1FE
:103C30001A0E175CD8A026D00F50101011101210B9
:103C4000D8B402D0010E01D0000E1E6E000E0F6E11
:103C5000000E106E000E116E000E126E1CC01DF0D4
:103C600015D01EA005D0D8901E3001091E6E02D0BE
:103C7000D8901E320FB01E8E123412321132103212
:103C80000F321D2A1C501D5CD8A0EBD71BBC28D0BE
:103C90001D50D8A409D0000E0F6E000E106E000E3D
:103CA000116E000E126E120013500F2614501022C7
:103CB000155011221650122212A071D01EA005D04C
:103CC000D8901E3001091E6E02D0D8901E320FB05F
:103CD0001E8E12341232113210320F321D2A5FD072
:103CE00013500F5C14501058155011581250800A80
:103CF000176E1650800A1758D8B025D00F50135C95
:103D0000176E10501458186E11501558196E125025
:103D100016581A6EFF0E17240F6EFF0E1820106E25
:103D2000FF0E1920116EFF0E1A20126E800E1B1A44
:103D30001E6C1E50D8A40FD0010E0F26000E1022AC
:103D40001122122208D013500F5E1450105A155031
:103D5000115A1650125A0F50101011101210D8A4E8
:103D60001CD01E50D8A419D0000E0F6E000E106E7D
:103D7000000E116E000E126E1200D8900F36103623
:103D8000113612361EBE0F801EA002D0D88001D080
:103D9000D8901E361D50D8A41D0611AEEED71C6A51
:103DA0001EAE0BD01EC017F07F0E1716D8B403D06E
:103DB000010E1C6E02D00FB0FBD71C50D8B420D01F
:103DC000010E0F26000E10221122122212A018D06E
:103DD0000FC017F010C018F011C019F012C01AF07F
:103DE0001A341A3219321832173217C00FF018C0AD
:103DF00010F019C011F01AC012F01D28D8A41D2A05
:103E00001D28D8B403D01D50D8A40BD0000E0F6EBF
:103E1000000E106E000E116E000E126E1D50D8B402
:103E20001B6A1DA002D0118E01D0119ED8901D30AA
:103E3000126E1BBE128E0FC00FF010C010F011C01A
:103E400011F012C012F01200DB51800BE86FDB5151
:103E5000DB25EF6FDABFEF81EF51D8B40ED0EF2939
:103E6000D8A408D0000ED86F000ED96F000EDA6FFC
:103E7000000EDB6FDA8FDB6B08D0000ED86F000E00
:103E8000D96F000EDA6F000EDB6FDF51800BE81B7D
:103E9000DF51DF25F06FDEBFF081F051D8B40ED0D6
:103EA000F029D8A408D0000EDC6F000EDD6F000EE4
:103EB000DE6F000EDF6FDE8FDF6B08D0000EDC6F71
:103EC000000EDD6F000EDE6F000EDF6FDC51DD11C6
:103ED000DE11DF11D8A417D0000ED86F000ED96FF5
:103EE000000EDA6F000EDB6F800EDA137F0EDB132D
:103EF000E851DB13D8C0D8F0D9C0D9F0DAC0DAF075
:103F0000DBC0DBF01200EF51D8A409D0000ED86F4F
:103F1000000ED96F000EDA6F000EDB6F1200F05149
:103F2000EFC0E0F0E16BE05F000EE15B7F0EE025AB
:103F3000E96F000EE121EA6FD8C0E4F0D9C0E5F0E6
:103F4000DAC0E6F0DBC0E7F0000ED86F000ED96FE4
:103F5000000EDA6F000EDB6F000EEB6F000EEC6FE1
:103F6000000EED6F000EEE6FF06B28D0F051D8B45C
:103F700011D0D890E437E537E637E737D890D8370F
:103F8000D937DA37DB37EEBFD881D890EB37EC374B
:103F9000ED37EE37DC51E45DDD51E559DE51E65990
:103FA000DF51E759D8A009D0EE8DDC51E45FDD5137
:103FB000E55BDE51E65BDF51E75BF02B190EF06548
:103FC000D5D7E451E511E611E711D8B411D0EB8152
:103FD0000FD0D890D837D937DA37DB37EEBFD88152
:103FE000D890EB37EC37ED37EE37E907D8A0EA0782
:103FF000DAAFEFD7F06BEEAF17D0FF0EEB15E06F37
:10400000FF0EEC15E16FFF0EED15E26F7F0EEE1562
:10401000E36FE051E111E211E311D8B403D0010ED6
:10402000F06F02D0D8B1FBD7F051D8B41FD0010E39
:10403000D827000ED923DA23DB23DBA117D0D8C081
:10404000E0F0D9C0E1F0DAC0E2F0DBC0E3F0E33544
:10405000E333E233E133E033E0C0D8F0E1C0D9F03C
:10406000E2C0DAF0E3C0DBF0E94BEA2BEABF10D0A4
:10407000EA5103E1E929D8A00BD0000EEA6FE96903
:10408000000ED86F000ED96F000EDA6F000EDB6FD6
:10409000EABF05D0EA5110E1E905D8B00DD0000E15
:1040A000EA6F000EE96F000ED86F000ED96F000E98
:1040B000DA6F000EDB6FE86BE9C0EFF0EFA102D022
:1040C000DA8F01D0DA9FD890EF31DB6F11D7125021
:1040D000800B1F6E12501224266E11BE26802650B1
:1040E000D8B40ED02628D8A408D0000E0F6E000E2B
:1040F000106E000E116E000E126E118E126A08D034
:10410000000E0F6E000E106E000E116E000E126E7D
:104110001650800B1F1A16501624276E15BE2780C6
:104120002750D8B40ED02728D8A408D0000E136E7C
:10413000000E146E000E156E000E166E158E166AA9
:1041400008D0000E136E000E146E000E156E000ED9
:10415000166E1350141015101610D8A417D0000E98
:104160000F6E000E106E000E116E000E126E800E9D
:1041700011127F0E12121F5012120FC00FF010C03A
:1041800010F011C011F012C012F012002650D8A485
:1041900009D0000E0F6E000E106E000E116E000E94
:1041A000126E1200275026C017F0186A175E000E14
:1041B000185A7F0E1724206E000E1820216E0FC093
:1041C0001BF010C01CF011C01DF012C01EF0000E3C
:1041D0000F6E000E106E000E116E000E126E000EAD
:1041E000226E000E236E000E246E000E256E276ACE
:1041F00028D02750D8B411D0D8901B361C361D3685
:104200001E36D8900F3610361136123625BE0F8066
:10421000D890223623362436253613501B5C145092
:104220001C5815501D5816501E58D8A009D0258C62
:1042300013501B5E14501C5A15501D5A16501E5A0E
:10424000272A190E2764D5D71B501C101D101E10CD
:10425000D8B411D022800FD0D8900F361036113636
:10426000123625BE0F80D8902236233624362536C6
:104270002006D8A0210611AEEFD7276A25AE17D0A9
:10428000FF0E2214176EFF0E2314186EFF0E241457
:10429000196E7F0E25141A6E1750181019101A1067
:1042A000D8B403D0010E276E02D00FB0FBD7275031
:1042B000D8B41FD0010E0F26000E10221122122298
:1042C00012A017D00FC017F010C018F011C019F0CD
:1042D00012C01AF01A341A3219321832173217C0B3
:1042E0000FF018C010F019C011F01AC012F0204AD7
:1042F000212A21BE10D0215003E12028D8A00BD0C4
:10430000000E216E2068000E0F6E000E106E000E63
:10431000116E000E126E21BE05D0215010E1200456
:10432000D8B00DD0000E216E000E206E000E0F6E64
:10433000000E106E000E116E000E126E1F6A20C06D
:1043400026F026A002D0118E01D0119ED8902630E2
:10435000126E11D7D66F1F0E0001D6651AD0800ECF
:10436000D66117D0D651CE6FCF6BCE3BCF3BF00E80
:10437000CF17CE510F0BCF13F00ECE17000ECE2558
:10438000D76FFE0ECF21D86F1C0ED725D16FF10E3F
:1043900019D07F0ED66518D0D651CE6FCF6BCE3BDD
:1043A000CF3BF00ECF17CE510F0BCF13F00ECE1721
:1043B000000ECE25D76FF80ECF21D86F1C0ED72553
:1043C000D16FF70ED82107D0000ED86F000ED76F2F
:1043D0001C0ED16FF10ED26FCC510608D36FCD51A8
:1043E0007A08D06FD0390F0BD46FD0510F0BD56F27
:1043F000D751D811D8A456D0B00ED325CA6FCB6BE5
:10440000000ECB23C5EC47F0100E0001D425CA6F77
:10441000CB6B000ECB23C5EC47F0D5C0CAF0000132
:10442000CB6BC5EC47F0000E0001DA6F000ED96FC0
:10443000000ECB6F000ECA6FBCEC47F0D94BDA2BE5
:10444000DA5104E1020ED95DD8A0F2D7B10ED3251E
:10445000CA6FCB6B000ECB23C5EC47F0100E0001EA
:10446000D425CA6FCB6B000ECB23C5EC47F0D5C06B
:10447000CAF00001CB6BC5EC47F0000E0001DA6F0B
:10448000000ED96F000ECB6F000ECA6FBCEC47F068
:10449000D94BDA2BDA5105E1020ED95DD8B0120002
:1044A000F1D71200B00ED325CA6FCB6B000ECB2311
:1044B000C5EC47F0100E0001D425CA6FCB6B000E7F
:1044C000CB23C5EC47F0D5C0CAF00001CB6BC5ECDF
:1044D00047F00F0E0001D725D96F000ED821DA6FF3
:1044E00017D0D751D15DCE6FD851D259CF6FD95196
:1044F000CE27DA51CF23CEC0F6FFCFC0F7FF08009A
:10450000F550CA6FCB6BBCEC47F0D907D8A0DA07DF
:10451000070ED725CE6F000ED821CF6FD951CE5DB3
:10452000DA51CF59D8A0DDD7B10ED325CA6FCB6BE6
:10453000000ECB23C5EC47F0100E0001D425CA6F46
:10454000CB6B000ECB23C5EC47F0D5C0CAF0000101
:10455000CB6BC5EC47F0070E0001D725D96F000ED5
:10456000D821DA6F17D0D751D15DCE6FD851D2593B
:10457000CF6FD951CE27DA51CF23CEC0F6FFCFC0AF
:10458000F7FF0800F550CA6FCB6BBCEC47F0D907BA
:10459000D8A0DA07FF0ED725CE6FFF0ED821CF6F38
:1045A000D951CE5DDA51CF59D8B01200DCD7CEEC5C
:1045B00047F00400000E0001CA6FA00ECB6F000E82
:1045C000CC6F000ECD6F25EC46F0CAC07CF1CBC09D
:1045D0007DF1020ECA6FA00ECB6F000ECC6F000EE5
:1045E000CD6F25EC46F0CAC07AF1CBC07BF1040E4A
:1045F000CA6FA00ECB6F000ECC6F000ECD6F25ECF6
:1046000046F0CAC078F1CBC079F1060ECA6FA00E91
:10461000CB6F000ECC6F000ECD6F25EC46F0CAC0FC
:104620007EF1CBC07FF1080ECA6FA00ECB6F000EDB
:10463000CC6F000ECD6F25EC46F0CAC094F1CBC014
:1046400095F10A0ECA6FA00ECB6F000ECC6F000E54
:10465000CD6F25EC46F0CAC092F1CBC093F10C0EA1
:10466000CA6FA00ECB6F000ECC6F000ECD6F25EC85
:1046700046F0CAC090F1CBC091F10E0ECA6FA00EE9
:10468000CB6F000ECC6F000ECD6F25EC46F0CAC08C
:104690008EF1CBC08FF1100ECA6FA00ECB6F000E43
:1046A000CC6F000ECD6F25EC46F0CAC07CF0CBC0BD
:1046B0007DF07CC0C8F0FE0EC819D8A4C86B000EEF
:1046C0007C157C6F800E7D157D6F120ECA6FA00E5B
:1046D000CB6F000ECC6F000ECD6F25EC46F0CAC03C
:1046E00076F0CBC077F030EC47F09EEC47F0DEEC94
:1046F00047F078EC43F0A9EC47F02DEC3DF05A6A16
:10470000000E0101B76F000EB66F566AEAEC47F073
:104710007980936BF28EF28C04005BEC47F0000E14
:104720000001606F000E616F300E626F400E636FAC
:10473000040000019C51D8B4FBD79C6B5B50D8B4EB
:1047400004D063EC2CF0A8EC46F0FDEC44F084ECD3
:1047500000F012EC17F010EC0EF05B50D8A404D06F
:10476000080E5B18D8A406D040EC44F019EC40F0D9
:104770006DEC3AF05B50D8B408D0070E5B18D8B493
:1047800004D05B04D8A4CEEC2DF056C0F7F0F00EA8
:104790000001F717D8B418D09551D8A4C9D7962BD3
:1047A0009605F76F310EF7650DD0010EC06F630EE1
:1047B0009665BED7010E956F8A90966B01014A4BA4
:1047C0004B2BB6D78A80B4D7C06B956B8A90966B0B
:1047D000AFD7480ECC03F3CFD0F0F4CFD1F0CD0358
:1047E000F350D127D0C0D6F0D1C0D7F0CE510608B3
:1047F000D36FCF517A08D26FD2390F0BD46FD25109
:104800000F0BD56FB00ED325CA6FCB6B000ECB2329
:10481000C5EC47F0100E0001D425CA6FCB6B000E1B
:10482000CB23C5EC47F0D5C0CAF00001CB6BC5EC7B
:1048300047F0D6C0D8F0D7C0D9F00ED05F0ED8253B
:10484000F66EE40ED921F76E0800F550CA6FCB6BF7
:10485000BCEC47F0D84BD92B120E0001D625D06FF7
:10486000000ED721D16FD051D85DD151D959D8A0E0
:10487000E5D7B10ED325CA6FCB6B000ECB23C5ECA9
:1048800047F0100E0001D425CA6FCB6B000ECB236E
:10489000C5EC47F0D5C0CAF00001CB6BC5EC47F0C2
:1048A000120E0001D625D86F000ED721D96F0ED079
:1048B0005F0ED825F66EE40ED921F76E0800F5508C
:1048C000CA6FCB6BBCEC47F0D84BD92B240ED62546
:1048D000D06F000ED721D16FD051D85DD151D959A9
:1048E000D8A0E6D7B20ED325CA6FCB6B000ECB2370
:1048F000C5EC47F0100E0001D425CA6FCB6B000E3B
:10490000CB23C5EC47F0D5C0CAF00001CB6BC5EC9A
:1049100047F0240E0001D625D86F000ED721D96F9D
:104920000ED05F0ED825F66EE40ED921F76E080082
:10493000F550CA6FCB6BBCEC47F0D84BD92B360E79
:10494000D625D06F000ED721D16FD051D85DD1516F
:10495000D959D8A0E6D7B30ED325CA6FCB6B000EBA
:10496000CB23C5EC47F0100E0001D425CA6FCB6BEA
:10497000000ECB23C5EC47F0D5C0CAF00001CB6BCD
:10498000C5EC47F0360E0001D625D86F000ED721B2
:10499000D96F0ED05F0ED825F66EE40ED921F76ED2
:1049A0000800F550CA6FCB6BBCEC47F0D84BD92B45
:1049B000480ED625D06F000ED721D16FD051D85DCB
:1049C000D151D959D8B01200E5D701017051000179
:1049D000E06F010171510001E16F0101704B712B1A
:1049E0000001E1510EE1320EE05DD8B00AD0060EB2
:1049F000CC6F000ECD6F7D0ECE6F000EACEC41F093
:104A00001200010170510001E06F010171510001BC
:104A1000E16F0101704B712B0001E15103E1C80E00
:104A2000E05DD8B0B4D05B50D8B41200070E5B186C
:104A3000D8B412009ED0C851D8B40BD0490EDB6F49
:104A4000FF0EDC6F030EDD6F0D0EDE6F64EC3FF0CA
:104A50001200F50EDB6FFE0EDC6F010EDD6F2E0E09
:104A6000DE6F64EC3FF0AE0EDB6FFE0EDC6F030E0C
:104A7000DD6F2E0EDE6F64EC3FF01200C851D8B42B
:104A80000BD07E0EDB6FFF0EDC6F030EDD6F180E9A
:104A9000DE6F64EC3FF012000B0EDB6FFF0EDC6F7D
:104AA000010EDD6F2E0EDE6F64EC3FF0ED0EDB6F5E
:104AB000FE0EDC6F030EDD6F2E0EDE6F64EC3FF03A
:104AC0001200C851D8B40BD0390ED96FFF0EDA6F6F
:104AD000030EDB6F180EDC6FCFEC44F01200040EF7
:104AE000DB6FFF0EDC6F010EDD6F2E0EDE6F64ECF0
:104AF0003FF0FD0EDB6FFE0EDC6F030EDD6F2E0E42
:104B0000DE6F64EC3FF01200C851D8B40BD0CB0E6E
:104B1000DB6FFF0EDC6F030EDD6F180EDE6F64ECD3
:104B20003FF01200820EDB6FFE0EDC6F030EDD6FB6
:104B3000280EDE6F64EC3FF01200C405D8A412000A
:104B4000C851D8B40BD0710EDB6FFF0EDC6F030EB3
:104B5000DD6F140EDE6F64EC3FF01200690EDB6F48
:104B6000FE0EDC6F030EDD6F140EDE6F64EC3FF0A3
:104B70001200B051030AD8B481D7050AD8B45BD764
:104B8000010AD8B49ED70F0AD8B4BED7D6D7000E24
:104B90000101716F000E706F0001916B1200D56FF3
:104BA0000001D5510C0DF3CFDAF0CC510608D66FC9
:104BB000CD517A08D96FD9390F0BD76FD9510F0B57
:104BC000D86FB00ED625CA6FCB6B000ECB23C5ECC9
:104BD00047F0100E0001D725CA6FCB6B000ECB2318
:104BE000C5EC47F0D8C0CAF00001CB6BC5EC47F06C
:104BF000DAC0DBF03CD08D0EDB25F66EF76AEA0EEC
:104C0000F7220800F550DC6FDD6BDB51CE6FCF6B08
:104C1000060ECE27000ECF238D0ECE25F66EEA0EA1
:104C2000CF21F76E0800F550D16FD06BDC51D01159
:104C3000DC6FDD51D111DD6FDCC0CEF0DDC0CFF017
:104C4000D890CE37CF37D890CE37CF37D890CE3711
:104C5000CF37CEC0DCF0CFC0DDF0DC51DC6FDD6BD8
:104C6000DCC0CAF0DDC0CBF0BCEC47F0DB2B0001B0
:104C7000DA51CE6FCF6B060ECE27000ECF23DB515D
:104C8000D06FD16BCE51D05DD151800AD26FCF5150
:104C9000800AD259D8A0AFD7B10ED625CA6FCB6B38
:104CA000000ECB23C5EC47F0100E0001D725CA6FCC
:104CB000CB6B000ECB23C5EC47F0D8C0CAF0000187
:104CC000CB6BC5EC47F00001DA51060FDB6F3AD031
:104CD0008D0EDB25F66EF76AEA0EF7220800F55016
:104CE000DC6FDD6BFA0EDB25CE6FCF6BFF0ECF23B3
:104CF0008D0ECE25F66EEA0ECF21F76E0800F5CFA9
:104D0000D0F0DC51D16FD051DC6FD1C0DDF0DCC010
:104D1000CEF0DDC0CFF0D890CE37CF37D890CE3799
:104D2000CF37D890CE37CF37CEC0DCF0CFC0DDF054
:104D3000DDC0D3F0D46BD3C0CAF0D4C0CBF0BCEC90
:104D400047F0DB2BDA51CE6FCF6B0C0ECE27000E67
:104D5000CF23DB51D06FD16BCE51D05DD151800AC2
:104D6000D26FCF51800AD259D8B01200B1D7D36FC9
:104D7000D3C0D8F00001CC510608D46FCD517A08C9
:104D8000D76FD7390F0BD56FD7510F0BD66FB00E2A
:104D9000D425CA6FCB6B000ECB23C5EC47F0100EA9
:104DA0000001D525CA6FCB6B000ECB23C5EC47F0B5
:104DB000D6C0CAF00001CB6BC5EC47F0D8C0D9F023
:104DC0003CD0F10ED925F66EF76AE80EF7220800FE
:104DD000F550DA6FDB6BD951CE6FCF6B060ECE2755
:104DE000000ECF23F10ECE25F66EE80ECF21F76E22
:104DF0000800F550D16FD06BDA51D011DA6FDB516A
:104E0000D111DB6FDAC0CEF0DBC0CFF0D890CF335A
:104E1000CE33D890CF33CE33D890CF33CE33CEC02D
:104E2000DAF0CFC0DBF0DA51DA6FDB6BDAC0CAF050
:104E3000DBC0CBF0BCEC47F0D92B0001D851CE6FD2
:104E4000CF6B060ECE27000ECF23D951D06FD16B7A
:104E5000CE51D05DD151800AD26FCF51800AD25944
:104E6000D8A0AFD7B10ED425CA6FCB6B000ECB2321
:104E7000C5EC47F0100E0001D525CA6FCB6B000EB4
:104E8000CB23C5EC47F0D6C0CAF00001CB6BC5EC14
:104E900047F00001D851060FD96F3AD0F10ED9254D
:104EA000F66EF76AE80EF7220800F550DA6FDB6B52
:104EB000FA0ED925CE6FCF6BFF0ECF23F10ECE2584
:104EC000F66EE80ECF21F76E0800F5CFD0F0DA517C
:104ED000D16FD051DA6FD1C0DBF0DAC0CEF0DBC0D9
:104EE000CFF0D890CF33CE33D890CF33CE33D890C5
:104EF000CF33CE33CEC0DAF0CFC0DBF0DBC0DAF098
:104F0000DB6BDAC0CAF0DBC0CBF0BCEC47F0D92BCE
:104F1000D851CE6FCF6B0C0ECE27000ECF23D951B8
:104F2000D06FD16BCE51D05DD151800AD26FCF51AD
:104F3000800AD259D8B01200B1D7B1EC2FF04CC0D2
:104F4000B6F14DC0B7F14E500001845D4F50855908
:104F5000D8B02AD084514E5C386E85514F58396E86
:104F600038C001F039C002F0036A046A000E11EC87
:104F70002FF001C00FF002C010F003C011F004C008
:104F800012F060C013F061C014F062C015F063C08D
:104F900016F067EC20F00FC060F110C061F111C095
:104FA00062F112C063F109D0000E0101606F000EC2
:104FB000616F000E626F000E636F60C101F061C12E
:104FC00002F062C103F063C104F0ABEC3EF001C03B
:104FD0004AF002C04BF0410E4A5C010E4B58D8A07B
:104FE00004D0010E4B6E400E4A6E9A0E236E990E3F
:104FF000246E190E256E3F0E266E000E136E000EE7
:10500000146E480E156EC20E166E4CC001F04DC0E7
:1050100002F0036A046A000E11EC2FF001C00FF0D9
:1050200002C010F003C011F004C012F0A0EC1DF09B
:105030000FC01FF010C020F011C021F012C022F0EC
:105040000CEC1CF01FC03AF020C03BF021C03CF03B
:1050500022C03DF03AC00FF03BC010F03CC011F050
:105060003DC012F0000E136E000E146E200E156E71
:10507000410E166EA0EC1DF00FC060F110C061F182
:1050800011C062F112C063F14D5006E1150E4C5C87
:10509000D8B002D0040E15D04D5004E1460E4C5C41
:1050A000D8A0F8D74D5004E1640E4C5CD8A0F2D7DC
:1050B000230E4C5C010E4D58D8B002D0050E01D025
:1050C000060E0001BA6F4CC001F04DC002F0000E98
:1050D000046E0A0E036ED4EC45F001C03EF002C02F
:1050E0003FF0970E3E24F66EF00E3F20F76E08005C
:1050F000F5CFB9F05AEC11F01200D16F0001D15187
:10510000CE6FCF6BCE3BCF3BF00ECF17CE510F0BF8
:10511000CF13F00ECE17000ECE25DA6F010ECF2181
:10512000DB6FCC510608D26F000ED8A0E82A000829
:10513000D36FCD517A08D86F000ED8A0E82A0008A6
:10514000D96FD8C0CEF0D9C0CFF0040ED06FD890B0
:10515000CF33CE33D02FFBD7CEC0D4F0CFC0D5F0D5
:105160000F0ED815D66FD76BB00ED225CA6F000EB2
:10517000D321CB6FC5EC47F0100E0001D425CA6FC8
:10518000000ED521CB6FC5EC47F0D6C0CAF0D7C012
:10519000CBF0C5EC47F00F0E0001DA25DC6F000EF6
:1051A000DB21DD6F23D0C951D8B411D01C0EDC2512
:1051B000F66EF10EDD21F76E0800F550CE6FCF6B65
:1051C000CE1DCA6FCF1DCB6FBCEC47F00CD01C0EB0
:1051D000DC25F66EF10EDD21F76E0800F550CA6F82
:1051E000CB6BBCEC47F0DC07D8A0DD07070EDA2557
:1051F000CE6F000EDB21CF6FDC51CE5DDD51CF597C
:10520000D8A0D1D7B10ED225CA6F000ED321CB6F53
:10521000C5EC47F0100E0001D425CA6F000ED52151
:10522000CB6FC5EC47F0D6C0CAF0D7C0CBF0C5EC09
:1052300047F0070E0001DA25DC6F000EDB21DD6F81
:1052400023D0C951D8B411D01C0EDC25F66EF10E56
:10525000DD21F76E0800F550CE6FCF6BCE1DCA6F03
:10526000CF1DCB6FBCEC47F00CD01C0EDC25F66ECE
:10527000F10EDD21F76E0800F550CA6FCB6BBCEC68
:1052800047F0DC07D8A0DD07FF0EDA25CE6FFF0E52
:10529000DB21CF6FDC51CE5DDD51CF59D8B012008C
:1052A000D0D7D46FE00E0001D425D56FD66BFF0E9A
:1052B000D623D5C0CEF0D6C0CFF0CE3BCF3BF00E3C
:1052C000CF17CE510F0BCF13F00ECE17CEC0D5F0A7
:1052D000CFC0D6F0CC510608D06FCD518708D36F20
:1052E000D3390F0BD16FD3510F0BD26FB00ED02526
:1052F000CA6FCB6B000ECB23C5EC47F0100E00013C
:10530000D125CA6FCB6B000ECB23C5EC47F0D2C0C2
:10531000CAF00001CB6BC5EC47F0200E0001D41998
:10532000D8A413D0000ED86F000ED76F000ECB6F2D
:10533000000ECA6FBCEC47F0D74BD82BD85127E1F1
:10534000030ED75DD8B023D0F1D70F0ED525D76F78
:10535000000ED621D86F0FD01C0ED725F66EF10E99
:10536000D821F76E0800F550CA6FCB6BBCEC47F044
:10537000D707D8A0D807070ED525CE6F000ED621A7
:10538000CF6FD751CE5DD851CF59D8A0E5D7B10E48
:10539000D025CA6FCB6B000ECB23C5EC47F0100EA7
:1053A0000001D125CA6FCB6B000ECB23C5EC47F0B3
:1053B000D2C0CAF00001CB6BC5EC47F0200E000153
:1053C000D419D8A413D0000ED86F000ED76F000EDA
:1053D000CB6F000ECA6FBCEC47F0D74BD82BD8511F
:1053E00028E1030ED75DD8B01200F1D7070ED525FE
:1053F000D76F000ED621D86F0FD01C0ED725F66EB2
:10540000F10ED821F76E0800F550CA6FCB6BBCECDB
:1054100047F0D707D8A0D807FF0ED525CE6FFF0ECF
:10542000D621CF6FD751CE5DD851CF59D8B0120009
:10543000E4D71200DD6F86C0CFF087C0D0F0000E39
:105440000001D26F640ED16FABEC45F0CF51DE6F2F
:10545000000ECD6F640ECC6F86C0CAF087C0CBF053
:1054600047EC46F0CAC0CFF0CBC0D0F0000ED26FF0
:105470000A0ED16FABEC45F0CF51DF6F000ECD6F50
:10548000640ECC6F86C0CAF087C0CBF047EC46F004
:10549000CAC0DBF0CBC0DCF0DBC0CAF0DCC0CBF0B4
:1054A000000ECD6F0A0ECC6F47EC46F0CA51E06F8C
:1054B000DDC0E1F0DAC0E2F0DE51D8B41FD0C76B36
:1054C000DEC0CCF0CD6BE1C0CEF0E2C0CFF0E2ECBC
:1054D0002AF0DFC0CCF0CD6BE1C0CEF0E2510F0F6F
:1054E000CF6FE2EC2AF0E0C0CCF0CD6BE1C0CEF0A3
:1054F000E2511E0FCF6FE2EC2AF01200DF51D8B458
:1055000035D0C705D8B41DD0010EC76F040ECC6FBF
:10551000000ECD6F800ECE6F020EACEC41F0060E89
:10552000CC6F000ECD6F800ECE6F040EACEC41F050
:10553000080ECC6F000ECD6F800ECE6F060EACEC59
:1055400041F0DFC0CCF0CD6BE1C0CEF0E251080FEE
:10555000CF6FE2EC2AF0E0C0CCF0CD6BE1C0CEF032
:10556000E251170FCF6FE2EC2AF01200020EC719BA
:10557000D8B41DD0020EC76F040ECC6F000ECD6FD5
:10558000800ECE6F020EACEC41F0060ECC6F000E1A
:10559000CD6F800ECE6F040EACEC41F0080ECC6FD8
:1055A000000ECD6F800ECE6F060EACEC41F0E0C069
:1055B000CCF0CD6BE1C0CEF0E251120FCF6FE2EC38
:1055C0002AF012002D0ECC03F3CFD0F0F4CFD1F09F
:1055D000CD03F350D127D0C0D6F0D1C0D7F0CE51F3
:1055E0000608D36FCF517A08D26FD2390F0BD46F20
:1055F000D2510F0BD56FB00ED325CA6FCB6B000EF7
:10560000CB23C5EC47F0100E0001D425CA6FCB6B3D
:10561000000ECB23C5EC47F0D5C0CAF00001CB6B20
:10562000C5EC47F0D6C0D8F0D7C0D9F00ED02F0EB9
:10563000D825F66EE70ED921F76E0800F550CA6F2F
:10564000CB6BBCEC47F0D84BD92B0F0E0001D62505
:10565000D06F000ED721D16FD051D85DD151D9591B
:10566000D8A0E5D7B10ED325CA6FCB6B000ECB23E4
:10567000C5EC47F0100E0001D425CA6FCB6B000EAD
:10568000CB23C5EC47F0D5C0CAF00001CB6BC5EC0D
:1056900047F00F0E0001D625D86F000ED721D96F25
:1056A0000ED02F0ED825F66EE70ED921F76E080022
:1056B000F550CA6FCB6BBCEC47F0D84BD92B1E0E04
:1056C000D625D06F000ED721D16FD051D85DD151E2
:1056D000D959D8A0E6D7B20ED325CA6FCB6B000E2E
:1056E000CB23C5EC47F0100E0001D425CA6FCB6B5D
:1056F000000ECB23C5EC47F0D5C0CAF00001CB6B40
:10570000C5EC47F01E0E0001D625D86F000ED7213C
:10571000D96F0ED02F0ED825F66EE70ED921F76E71
:105720000800F550CA6FCB6BBCEC47F0D84BD92BB7
:105730002D0ED625D06F000ED721D16FD051D85D58
:10574000D151D959D8B01200E5D7DD6F86C0CFF05E
:1057500087C0D0F0000E0001D26F640ED16FABECA9
:1057600045F0CF51DE6F000ECD6F640ECC6F86C05A
:10577000CAF087C0CBF047EC46F0CAC0CFF0CBC030
:10578000D0F0000ED26F0A0ED16FABEC45F0CF51C6
:10579000DF6F000ECD6F640ECC6F86C0CAF087C07D
:1057A000CBF047EC46F0CAC0DBF0CBC0DCF0DBC08E
:1057B000CAF0DCC0CBF0000ECD6F0A0ECC6F47EC08
:1057C00046F0CA51E06FDDC0E1F0DAC0E2F0DE5130
:1057D000D8B41FD0C76BDEC0CCF0CD6BE1C0CEF02B
:1057E000E2C0CFF0E9EC23F0DFC0CCF0CD6BE1C03C
:1057F000CEF0E251120FCF6FE9EC23F0E0C0CCF015
:10580000CD6BE1C0CEF0E251240FCF6FE9EC23F075
:105810001200DF51D8B435D0C705D8B41DD0010E61
:10582000C76F040ECC6F000ECD6F800ECE6F020ED0
:10583000ACEC41F0060ECC6F000ECD6F800ECE6F3B
:10584000040EACEC41F0080ECC6F000ECD6F800E54
:10585000CE6F060EACEC41F0DFC0CCF0CD6BE1C0FA
:10586000CEF0E251090FCF6FE9EC23F0E0C0CCF0AD
:10587000CD6BE1C0CEF0E2511B0FCF6FE9EC23F00E
:105880001200020EC719D8B4F1D7020EC76F040E6A
:10589000CC6F000ECD6F800ECE6F020EACEC41F0DF
:1058A000060ECC6F000ECD6F800ECE6F040EACECEA
:1058B00041F0080ECC6F000ECD6F800ECE6F060E3D
:1058C000ACEC41F0D3D781503C0B556EA751551825
:1058D000D8A488D07A51D66F7B51D76F7A4B7B2B67
:1058E000D75104E1050ED65DD8A081D03C0E5518E5
:1058F000D8A447D0A46BA96BB051D8A41CD0AF5189
:10590000D8A419D00A0EBE19D8B415D001019851E7
:105910000001D66F010199510001D76F0101984B29
:10592000992BDD0E0001D65D050ED759D8A003D006
:105930008B50BF0B8B6E010196510001D66F010198
:1059400097510001D76F0101964B972BDD0E000197
:10595000D65D050ED759D8A002D0010EA06FA55173
:10596000D8A40BD05450D8B404D054C0A6F0AE6B19
:1059700006D054C0A6F0AD6B3AD0A56BA66B546AA6
:1059800036D0000E0101976F000E966F000E996FD2
:10599000000E986FE4EC47F055C054F0240EA619A1
:1059A000D8A412D07B5104E1050E7A5DD8A01FD097
:1059B000000E7B6F050E7A6F5450800FA66F0ED0CD
:1059C000010EA56FAE6B13D07B5104E1640E7A5DBE
:1059D000D8A00DD0000E7B6F640EEDD7A505D8B40E
:1059E0001200EED7000E7B6F000E7A6FA66BA651E9
:1059F000D8B41DD0AC6B080E5B18D8A413D0060E1B
:105A0000CC6F000ECD6F7D0ECE6F000EACEC41F072
:105A1000AB6BAC6BAA6BA1C05BF0A16BA66BC46B4C
:105A2000E4EC47F0000E01019D6F000E9C6F55C025
:105A3000A7F01200D36F0001D351100DF3CFD8F0AF
:105A4000CC510608D46FCD517A08D76FD7390F0BD8
:105A5000D56FD7510F0BD66FB00ED425CA6FCB6B55
:105A6000000ECB23C5EC47F0100E0001D525CA6F00
:105A7000CB6B000ECB23C5EC47F0D6C0CAF00001BB
:105A8000CB6BC5EC47F0D8C0D9F021D0C951D8B400
:105A900011D0ED0ED925F66EF76AE90EF72208004F
:105AA000F550CE6FCF6BCE1DCA6FCF1DCB6FBCEC48
:105AB00047F00CD0ED0ED925F66EF76AE90EF72205
:105AC0000800F550CA6FCB6BBCEC47F0D92B000136
:105AD000D851CE6FCF6B080ECE27000ECF23D951F1
